:400000000080002011000000C90B0000C90B000080B500AF024A034B1B68136000F002FEBC760040FA460040080002230000087608000323000010760800042300002876E5
:4000400008000523000030760500062300002070050007230000307005000823000060700500FE230000707010000A220000105110000B220000305120000C2200005051CD
:4000800010000D220000C0511000FE220000F05180010F22000000008005102200000008800111220000000E8003122200000018800013220000004280001422000000438D
:4000C0008000152200000044800016220000004580001722000000498000FE220000004D070019230000205208001A230000205B08001B230000285B20001C2300007064A8
:400100002000FE230000706508001E230000005180001F230000000280002023000080028000212300000004800022230000800480002323000000068000242300008006DC
:400140008000252300000014800026230000801480002723000000168000282300008016100029230000105010002A230000005080002B230000804D80002C230000004CE6
:4001800080002D230000804C80002E230000004780002F23000080478000302300000046800031230000804680003223000080458000332300008044800034230000801B99
:4001C0008000352300000015800036230000801580003723000000178000382300008017800039230000000780003A230000800780003B230000000580003C2300008005B3
:4002000080003D230000800D80003E230000000380003F2300008003800040230000800F8000412300008001800042230000804980004323000000488000442300008048A6
:40024000800045230000804380004623000080428000472300000041800048230000804180004923000000408000FE23000080400100000001000000010000000048014038
:4002800001000000004800400100000000200140010000000020004010B5054C237833B9044B13B10448AFF300800123237010BDE081FF1F00000000F85F0000084B10B562
:4002C0001BB108480849AFF300800848036803B910BD074B002BFBD0BDE81040184700BF00000000F85F0000E481FF1F0881FF1F0000000080B400AF064B1B889BB29AB2DF
:40030000054B1A80054B01221A70BD465DF8047B704700BFA25B00409882FF1F2882FF1F80B400AF064B1B889BB29AB2054B1A80054B01221A70BD465DF8047B704700BFA8
:40034000A05B00409A82FF1FFC81FF1FB0B590B008AF01F011F90020002101F01DF9904801F050F90120002101F016F98D4801F049F900F053FF8C4801F026FF01F022F83B
:4003800001F00AFB894801F087FF01F0D9FB62B601F06EFC01F050FD01F032FE002000F0B7FA012000F0EAFA022000F0E7FA642002F046F87E4800F0DFFB7D4B1B78002BF5
:4003C00015D07C4B00937C4B01937C4B02937C4B03937C4B04937C4B05937C4B06937C4B079373487B497C4A7C4B03F02DFD7C4B1B78002B64D04FF00003FB61794B1B8845
:400400001BB2184601F02EF87861786902F056FA04460D463B461846734922462B4603F0EFFC0023FB761AE0FB7EFA7E01326F4931F812106D4A22F81310FB7E01336B4A84
:4004400032F81330184602F0A9FD0346F869194602F0F0FC0346FB61FB7E0133FB76FB7E122BE1D95F4B1B889AB2604BDA845D4B1B881BB2184602F091FD03461846F9695E
:4004800002F0D8FC03461846594902F08FFE0346FB61F86902F0C2FF03463B820020052101F07AF8534801F0ADF80020052101F073F83B8A184601F01DFA494B00221A7008
:4004C0004D4B1B78002B64D04FF00003FB614B4B1B881BB2184601F083FB7861786902F0EDF904460D463B4618463F4922462B4603F086FC0023FB761AE0FB7EFA7E01326B
:400500003F4931F812103E4A22F81310FB7E01333B4A32F81330184602F040FD0346F869194602F087FC0346FB61FB7E0133FB76FB7E122BE1D9314B1B889AB2304BDA8402
:400540002E4B1B881BB2184602F028FD03461846F96902F06FFC03461846254902F026FE0346FB61F86902F059FF03467B820120052101F011F81F4801F044F801200521DA
:4005800001F00AF87B8A184601F0B4F91A4B00221A7000F039F8022001F052FF0AE700BF006000001060000021030000F50200009C82FF1F5C82FF1F0C81FF1F1081FF1F84
:4005C0001481FF1F1881FF1F1C81FF1F1E81FF1F2481FF1F206000005482FF1F5882FF1FFC81FF1F9A82FF1F406000000082FF1F0000A041486000002882FF1F9882FF1F4C
:400600002C82FF1F00000000B0B500AF824B1B881AB2824B1B881BB2D21A814B1B881BB2D31A184602F0BAFC02467E4B1A607D4B1A687D4B1B681046194602F0F9FB034642
:400640001C467A4B1A68774B1B681046194602F0F9FC03462046194602F0ECFB03461D46704B1C68704B1B681846194602F0E2FB03462046194602F0DBFB03461A466C4B1E
:400680001B681046194602F0D5FB03461A46694B1B681046194602F0D5FC03462846194602F0C8FB03461A46634B1B681046194602F0C8FC0346184602F000F904460D46A9
:4006C0005E4B1B68184602F0F9F802460B46104619464FA3D3E9002302F044F902460B462046294601F08CFF02460B461046194602F04AFB0246524B1A60514B1B684F4AB9
:400700001360494B1B684A4A1360464B1B68464A13604C4B1B6883F00042494B1B681046194602F037FE0346002B16D0434B1A68444B1B681046194602F02CFE0346002B8E
:400740000BD0414B00221A803F4B1A883F4B1A803F4B4FF400721A8041E0394B1B6818463C4902F02BFE0346002B02D0344B394A1A60334B1B681846374902F001FE03462C
:40078000002B02D02E4B344A1A602D4B1B68184602F01EFE03469AB22C4B1A80284B1B6883F00043184602F013FE03469AB2264B1A80234B1A68294B1B681046194602F083
:4007C000F5FC034618464FF0884102F033FB0346184602F023FE03469AB21D4B1A801B4B1B881BB201201946FF2200F021F9164B1B881BB202201946FF2200F019F9144B93
:400800001B880020194640F2FF3200F029F8B0BD666666666666EE3F9A82FF1F9882FF1F2081FF1F5482FF1F5882FF1F1081FF1F5C82FF1F1481FF1F0C81FF1F6482FF1FFA
:400840006082FF1F2481FF1F6A82FF1F6882FF1F6C82FF1F00C07F4400C07FC41881FF1F80B584B000AF0346FB710B46BB8013467B80FB79002B47D1BB88DAB2BB881B0ABF
:400880009BB2DBB21344DAB27B88DBB21344DAB27B881B0A9BB2DBB21344DBB22633FB73FB7BDB43FB73FF2001F032FAFF2001F02FFAFE2001F02CFA072001F029FA032051
:4008C00001F026FA1E2001F023FABB88DBB2184601F01EFABB881B0A9BB2DBB2184601F017FA7B88DBB2184601F012FA7B881B0A9BB2DBB2184601F00BFAFB7B184601F0BC
:4009000007FA022001F09CFD1037BD4680BD00BF80B584B000AF0346FB711023FB73FB7BDB43FB73FB79002B21D1FF2001F0F0F9FF2001F0EDF9FE2001F0EAF9072001F0CA
:40094000E7F9032001F0E4F9062001F0E1F9002001F0DEF9002001F0DBF9FF2001F0D8F9032001F0D5F9FB7B184601F0D1F9022001F066FD1037BD4680BD00BF80B584B071
:4009800000AF0346FB710E23FB73FB7BDB43FB73FB79012B21D1FF2001F09EFAFF2001F09BFAFE2001F098FA072001F095FA032001F092FA062001F08FFA002001F08CFA34
:4009C000002001F089FA002001F086FA002001F083FAFB7B184601F07FFAFB79022B21D1FF2001F05DFBFF2001F05AFBFE2001F057FB072001F054FB032001F051FB062058
:400A000001F04EFB002001F04BFB002001F048FB002001F045FB002001F042FBFB7B184601F03EFB022001F00BFD1037BD4680BD80B584B000AF0346FB710B46BB801346E0
:400A4000BB71B7F90430B3F5806F02DB40F2FF33BB80B7F9043013F5806F02DC4FF60143BB80B7F90430002B07DABB885B429BB2BB80BB8843F48063BB80FB79012B3AD13B
:400A8000BB88DAB2B7F904301B129BB2DBB21344DAB2BB791344DBB22733FB73FB7BDB43FB73FF2001F018FAFF2001F015FAFE2001F012FA062001F00FFA032001F00CFA21
:400AC000202001F009FABB88DBB2184601F004FAB7F904301B129BB2DBB2184601F0FCF9BB79184601F0F8F9FB7B184601F0F4F9022001F0A5FCFB79022B3AD1BB88DAB221
:400B0000B7F904301B129BB2DBB21344DAB2BB791344DBB22733FB73FB7BDB43FB73FF2001F0BEFAFF2001F0BBFAFE2001F0B8FA062001F0B5FA032001F0B2FA202001F000
:400B4000AFFABB88DBB2184601F0AAFAB7F904301B129BB2DBB2184601F0A2FABB79184601F09EFAFB7B184601F09AFA022001F067FC1037BD4680BD90B585B000AF7860C1
:400B80000023FB601AE0FB687A68D41801F0D6FC034623702378FB72FB7A0D2B05D0FB7A0A2B02D0FB7A002B05D1FB687A68134400221A7005E0FB680133FB60FB68632B61
:400BC000E1DD1437BD4690BD80B400AFFEE700BF80B584B000AF7860104B1A687B6813441A460F4BD31AB3F5007F09DC0B4B1B68FB600A4B1A687B681344084A136007E06A
:400C000002F02CFC02460C2313604FF0FF33FB60FB6818461037BD4680BD00BF2881FF1F9083FF1F80B586B000AF224B7B61224B3B61204B7B6135E03B691B68FB603B69F7
:400C40005B68BB603B699B683B6000237B600CE0FB681A68BB681A60BB680433BB60FB680433FB607B6804337B607A683B689A42EED13B69DB683B6000237B6008E0BB68DE
:400C800000221A60BB680433BB607B6804337B607A683B689A42F2D13B6910333B617B69013B7B617B69002BC6D102F0DDFBFFF74DFBFEE7010000007C64000080B582B0B0
:400CC00000AF174B174A1A60174A174B1B6843F40073136000237B600FE07B68032B04D8124A7B6852F8233000E0114B11497A6841F822307B6801337B607B682F2BECD9F8
:400D00000D4B1B78DAB20D4B1A700D4B094A1A6000F016FA0B4B00221A600837BD4680BD0CED00E00004FA0514ED00E000000000C90B00000080FF1FBC7600400481FF1F80
:400D400008ED00E00081FF1F80B584B000AFF860B9607A60F868B9687A6802F0ABFB1037BD4680BD80B483B000AF0346FB71FEE780B483B000AF434B00221A60424B10226B
:400D80001A70424B01221A70414B00221A70414B4FF412721A80404B01221A703F4B03221A703F4B3F4A92B21A803F4B47F608021A803E4B00221A803D4B4FF480421A8011
:400DC0003C4B09221A703C4B0E221A703B4B18221A703B4B1D221A70BFF35F8F394B01221A70BFF35F8F00BF2A4B1B889BB2002BFAD100237B600DE07B68DA00324B1344D6
:400E00001946324A7B6852F823309BB20B807B6801337B607B68482BEED9BFF35F8F294B01221A70BFF35F8F00BF294B1B78DBB203F00103002BF8D100BF264B1B78DBB281
:400E400003F00103002BF8D100BF234B1B78DBB203F00103002BF8D100BF204B1B78DBB203F00103002BF8D100BF1D4B1B78DBB203F00103002BF8D10C37BD465DF8047BCE
:400E8000704700BF7082FF1F00760040107000401970004000780040027800400378004004780040280000000678004004760040067600402970004039700040697000404D
:400EC00079700040147000400C78004050600000187000402870004038700040687000407870004080B582B000AF434B29221A80424B18221A70424B2E221A80414B1822B2
:400F00001A70414B39221A80404B18221A70404B39221A803F4B18221A703F4B39221A803E4B18221A703E4B39221A803D4B18221A703D4B40F2B1221A803C4B18221A7081
:400F40003B4B02221A704FF0402308221A70394B03221A70384B394A1278D2B21A70384B40F235221A80374B41F251221A800023FB7019237B6014E0FB785B00DAB2324B3E
:400F80001B78DBB203F00103DBB21343DBB203F00303FB704FF4F07001F036FA7B68013B7B607B68002B02D0FB78032BE4D17B68002B02D10320FFF7D5FE244B4FF48072E1
:400FC0001A80224B07221A70214B00221A70214B48221A701D4B00221A701F4B02221A701E4A1E4B1B78DBB243F07F03DBB213700837BD4680BD00BF80400040824000409D
:401000008440004086400040884000408A4000408C4000408E40004090400040924000409440004096400040984000409A4000400043004000420040A1460040080100497E
:4010400022420040204200402542004004400040064000400840004001400040A243004080B483B000AF264B1B78FB71254B1B78BB71254B1B787B71244AFB7903F00703C8
:40108000DBB21370224AFB791B09DBB213701D4ABB7943F00303DBB213701B4A7B7943F00303DBB213701B4B03221A701A4B40221A701A4B40221A70194B40221A70194B1B
:4010C00040221A70184B20221A70184B20221A70174B10221A70174B20221A70164B10221A70094A7B791370064ABB791370134B44221A700C37BD465DF8047B704700BF8E
:40110000CF010049F8460040F94600406E5800406F5800404D5100400159004003590040095900400B590040205B0040235B0040285B00402B5B0040585B0040765800402F
:4011400080B500AF72B6274B01221A70FFF7CAFE254A254B1B78DBB243F00403DBB21370FFF706FE214A214B1B78DBB243F00203DBB213701E4A1E4B1B78DBB243F00203DB
:40118000DBB213701B4A1B4B1B78DBB243F04003DBB21370184A184B1B78DBB243F01003DBB21370154816490822FFF7CDFD154815490822FFF7C8FD144815490A22FFF751
:4011C000C3FD144A134B1B78DBB243F00803DBB21370FFF745FF104806490E22FFF7B4FD80BD00BF00480040E84600400350014013500140A0430040C24300400251004028
:40120000801500482251004088150048405100409015004822430040B043004080B500AF054B1B78002B04D100F008F8024B01221A7000F025F880BD7882FF1F80B500AFAC
:40124000102001F00FF80020072101F055F90020084901F029F9084A074B1B78DBB243F00603DBB213700C2000F084F8034B00221A8080BDE9140000015900400483FF1F10
:4012800080B582B000AF01F0C7F80346FB712E4A2D4B1B78DBB243F00103DBB213702B4A2A4B1B78DBB243F00103DBB21370284A274B1B78DBB243F00103DBB21370254A51
:4012C000244B1B78DBB243F00103DBB21370224B1B78BB71BB7943F00203BB71BB7943F00103BB711C4ABB7913701C4B04221A701B4A1B4B1B78DBB243F04003DBB2137018
:40130000174A174B1B78DBB223F00303DBB21370144BC8221A70144B02221A70134A134B1B78DBB243F00803DBB213700A2001F0A9F80F4B01221A60FB79184601F070F8BA
:401340000837BD4680BD00BFAB430040BB430040A2430040B24300400359004006590040055900400059004014460040275B004080E200E080B584B000AF0346FB71FB7918
:401380000A2B07D00C2B02D0082B06D008E0C423FB730BE08423FB7308E04423FB7305E0C423FB73002001F03FF800BF044AFB7B1370FB79184600F015F81037BD4680BD37
:4013C0000259004080B400AF054A054B1B78DBB243F00103DBB21370BD465DF8047B70470059004080B584B000AF0346FB71FB790A2B08D00C2B02D0082B08D00BE04FF4B2
:401400008053FB600DE04FF48063FB6009E04FF48073FB6005E00023FB60002001F004F800BF0C4B00221A80FB6842F2107202FB03F303F6C413084A82FB0312D212DB17BE
:40144000D31A064A1360064B00221A801037BD4680BD00BF0683FF1FAD8BDB680083FF1F0883FF1F90B585B000AF0346FB801A4B1B889BB2002B09D0174B1B889BB21AB299
:4014800013469B0013445B00FB6002E0134B1B68FB60134B1B889BB2FA889BB2D31A9BB2FB80B7F90630184601F078FD034618460C4901F0C7FD03461C46F86801F06EFD79
:4014C00003462046194601F071FE0346BB60BB6818461437BD4690BD0683FF1F0083FF1F0483FF1F0000204180B400AFBD465DF8047B704780B500AF282000F0A1FF032060
:4015000000F0C8F9052000F09BFF032000F0C2F90F2000F095FF032000F0BCF9012000F08FFF022000F0B6F9052000F089FF062000F09EF80E2000F09BF82C2000F098F8DC
:40154000082000F095F8012000F092F80C2000F08FF8032000F08CF8052000F071FF80BD80B500AF0C2000F083F8024B01221A7080BD00BF7982FF1F80B500AF054B1B78DE
:40158000002B04D1FFF7B6FF024B01221A70FFF7E7FF80BD7A82FF1F80B582B000AF03460A46FB711346BB71FB79032B26D801A252F823F0C5150000D3150000E11500005B
:4015C000EF150000BB79803BDBB2184600F050F815E0BB79403BDBB2184600F049F80EE0BB796C3BDBB2184600F042F807E0BB792C3BDBB2184600F03BF800E000BF0837C9
:40160000BD4680BD80B584B000AF78600123FB737B681B78BB730BE0BB7B184600F00EF8FB7B7A6813441B78BB73FB7B0133FB73BB7B002BF0D11037BD4680BD80B584B035
:4016400000AF0346FB7100F02DF8FB791B09FB73FB7B184600F0E2F8FB7903F00F03FB73FB7B184600F0DAF81037BD4680BD00BF80B584B000AF0346FB7100F013F8FB794E
:401680001B09FB73FB7B184600F004F9FB7903F00F03FB73FB7B184600F0FCF81037BD4680BD00BF80B582B000AF4FF4CA737B60554A554B1B78DBB223F07F03DBB213707D
:4016C000524B1B78DBB223F00F03FB704F4AFB7843F00F03DBB213704D4B1B78DBB223F00F03FB704A4AFB7813704A4B1B78DBB223F00F03FB70474AFB781370424A424B85
:401700001B78DBB223F02003DBB213703E4A3E4B1B78DBB243F04003DBB21370002000F0B1FE394A384B1B78DBB243F01003DBB21370012000F0A6FE374B1B78FB70324AA0
:40174000314B1B78DBB223F01003DBB21370002000F098FEFB7803F00803FB702A4A2A4B1B78DBB243F01003DBB21370012000F089FE254A244B1B78DBB223F01003DBB26D
:401780001370FB78002B02D10A2000F07BFE7B68013B7B60FB78002B02D07B68002BBDD1194A194B1B78DBB223F04003DBB21370154A154B1B78DBB223F07F03DBB21370CB
:4017C000124A124B1B78DBB223F00F03DBB213700F4B1B78DBB223F00F03FB700C4AFB7843F00F03DBB213700A4B1B78DBB223F00F03FB70074AFB7843F00F03DBB2137095
:401800000837BD4680BD00BF205100402251004023510040245100402151004080B582B000AF0346FB711A4A194B1B78DBB243F02003DBB21370164A154B1B78DBB223F0DF
:401840004003DBB21370002000F01CFE104A104B1B78DBB223F00F03DBB213700C490C4B1B78DAB2FB791343DBB243F01003DBB20B70012000F006FE054A054B1B78DBB29D
:4018800023F01003DBB213700837BD4680BD00BF2051004080B582B000AF0346FB71144A134B1B78DBB223F06003DBB21370104A0F4B1B78DBB223F00F03DBB213700C4978
:4018C0000B4B1B78DAB2FB791343DBB243F01003DBB20B70012000F0D5FD054A044B1B78DBB223F01003DBB213700837BD4680BD2051004080B586B000AF78600A23FB7538
:40190000FB7D07F118021344002203F8102CFB7D013BFB751CE079681E4BA3FB0123DA0813469B0013445B00CA1AD3B23033BB75FB7D07F118021344BA7D03F8102C7B688B
:40194000144AA2FB0323DB087B60FB7D013BFB757B68092BDFD879680E4BA3FB0123DA0813469B0013445B00CA1AD3B23033BB75FB7D07F118021344BA7D03F8102CFB7D4F
:4019800007F1080213441846FFF73CFE1837BD4680BD00BFCDCCCCCC80B500AF054B1B78002B04D100F008F8024B01221A7000F025F880BD7B82FF1F80B500AF102000F0A7
:4019C000B9FC0120072100F097FD0120084900F06BFD084A074B1B78DBB243F00603DBB213700C2000F084F8034B00221A8080BD651C0000095900400E83FF1F80B582B073
:401A000000AF00F009FD0346FB712E4A2D4B1B78DBB243F00203DBB213702B4A2A4B1B78DBB243F00203DBB21370284A274B1B78DBB243F00203DBB21370254A244B1B78E5
:401A4000DBB243F00203DBB21370224B1B78BB71BB7943F00203BB71BB7943F00103BB711C4ABB7913701C4B18221A701B4A1B4B1B78DBB243F04003DBB21370174A174BBA
:401A80001B78DBB223F00303DBB21370144BC8221A70144B02221A70134A134B1B78DBB243F00803DBB213700A2000F0EBFC0F4B02221A60FB79184600F0B2FC0837BD4629
:401AC00080BD00BFAB430040BB430040A2430040B24300400B5900400E5900400D59004008590040164600402F5B004080E200E080B584B000AF0346FB71FB790A2B07D09D
:401B00000C2B02D0082B06D008E0C223FB730BE08223FB7308E04223FB7305E0C223FB73002000F081FC00BF044AFB7B1370FB79184600F015F81037BD4680BD0A590040DB
:401B400080B400AF054A054B1B78DBB243F00103DBB21370BD465DF8047B70470859004080B584B000AF0346FB71FB790A2B08D00C2B02D0082B08D00BE04FF48053FB608F
:401B80000DE04FF48063FB6009E04FF48073FB6005E00023FB60002000F046FC00BF0C4B00221A80FB6842F2107202FB03F303F6C413084A82FB0312D212DB17D31A064AE3
:401BC0001360064B00221A801037BD4680BD00BF0C83FF1FAD8BDB681083FF1F1483FF1F90B585B000AF0346FB801A4B1B889BB2002B09D0174B1B889BB21AB213469B0039
:401C000013445B00FB6002E0134B1B68FB60134B1B889BB2FA889BB2D31A9BB2FB80B7F90630184601F0BAF9034618460C4901F009FA03461C46F86801F0B0F9034620467B
:401C4000194601F0B3FA0346BB60BB6818461437BD4690BD0C83FF1F1083FF1F0E83FF1F0000204180B400AFBD465DF8047B704780B500AF054B1B78002B04D100F008F851
:401C8000024B01221A7000F01FF880BD7C82FF1F80B500AF0220084900F006FC0220072100F02AFC054B06221A70054B47221A70044B02221A7080BDC91D000025640040F3
:401CC000356400408464004080B582B000AF00F0A3FB0346FB710B4A0A4B1B78DBB243F01003DBB21370084B04221A60074B04221A6000F039FBFB79184600F091FB0837D4
:401D0000BD4680BD9464004080E200E000E100E080B485B000AF0346FB71254B1B78FB73244B1B78BB73FA7BBB7B9A4208D2FA7BBB7B013B9A420CBF01230023DBB207E010
:401D4000FA7BBB7BD31A1A2B0CBF01230023DBB2002BE2D1BA7BFB7B9A420AD1164B1B78DBB203F00403002B03D1144AFB79137018E0FB7B1A2B01D90023FB73FB7B1049EB
:401D8000FA79CA54FB7B0133FB73094AFB7B1370094B1B78DBB203F00203002B02D0094B04221A601437BD465DF8047B704700BF7E82FF1F7D82FF1F64640040446400400E
:401DC0001883FF1F00E200E080B400AF17E0154B1B78DBB21A2B02D9124B00221A70124B104A1278D2B21146104A525CD2B21A700C4B1B78DBB20133DAB20A4B1A70094B49
:401E00001B78DAB20A4B1B789A4206D0094B1B78DBB203F00403002BD9D0BD465DF8047B704700BF7D82FF1F446400401883FF1F7E82FF1F6464004080B500AF054B1B78AF
:401E4000002B04D100F008F8024B01221A7000F01FF880BD8082FF1F80B500AF0320084900F022FB0320072100F046FB054B06221A70054B47221A70044B02221A7080BDB4
:401E8000911F000024650040346500408565004080B582B000AF00F0BFFA0346FB710B4A0A4B1B78DBB243F01003DBB21370084B08221A60074B08221A6000F06FFAFB7958
:401EC000184600F0ADFA0837BD4680BD9565004080E200E000E100E080B485B000AF0346FB71254B1B78FB73244B1B78BB73FA7BBB7B9A4208D2FA7BBB7B013B9A420CBFD4
:401F000001230023DBB207E0FA7BBB7BD31A1A2B0CBF01230023DBB2002BE2D1BA7BFB7B9A420AD1164B1B78DBB203F00403002B03D1144AFB79137018E0FB7B1A2B01D9CE
:401F40000023FB73FB7B1049FA79CA54FB7B0133FB73094AFB7B1370094B1B78DBB203F00203002B02D0094B08221A601437BD465DF8047B704700BF8282FF1F8182FF1FD0
:401F800065650040456500403483FF1F00E200E080B400AF17E0154B1B78DBB21A2B02D9124B00221A70124B104A1278D2B21146104A525CD2B21A700C4B1B78DBB2013336
:401FC000DAB20A4B1A70094B1B78DAB20A4B1B789A4206D0094B1B78DBB203F00403002BD9D0BD465DF8047B704700BF8182FF1F456500403483FF1F8282FF1F65650040CE
:4020000080B500AF054B1B78002B04D100F008F8024B01221A7000F01FF880BD8482FF1F80B500AF0420084900F03EFA0420072100F062FA054B06221A70054B47221A7029
:40204000044B02221A7080BD5921000027650040376500408665004080B582B000AF00F0DBF90346FB710B4A0A4B1B78DBB243F01003DBB21370084B10221A60074B1022A7
:402080001A6000F0A5F9FB79184600F0C9F90837BD4680BD9665004080E200E000E100E080B485B000AF0346FB71254B1B78FB73244B1B78BB73FA7BBB7B9A4208D2FA7B93
:4020C000BB7B013B9A420CBF01230023DBB207E0FA7BBB7BD31A1A2B0CBF01230023DBB2002BE2D1BA7BFB7B9A420AD1164B1B78DBB203F00403002B03D1144AFB79137081
:4021000018E0FB7B1A2B01D90023FB73FB7B1049FA79CA54FB7B0133FB73094AFB7B1370094B1B78DBB203F00203002B02D0094B10221A601437BD465DF8047B704700BFBC
:402140008682FF1F8582FF1F66650040466500405083FF1F00E200E080B400AF17E0154B1B78DBB21A2B02D9124B00221A70124B104A1278D2B21146104A525CD2B21A70B6
:402180000C4B1B78DBB20133DAB20A4B1A70094B1B78DAB20A4B1B789A4206D0094B1B78DBB203F00403002BD9D0BD465DF8047B704700BF8582FF1F466500405083FF1F6C
:4021C0008682FF1F6665004080B582B000AF786000F03CF8786800F009F8072000F018F800F028F80837BD4680BD00BF80B485B000AF7860054B1B68FB60FB6840337A6880
:402200001A601437BD465DF8047B704708ED00E080B483B000AF0346FB71054AFB795B01DBB213700C37BD465DF8047B704700BF00E400E080B400AF034B01221A60BD4657
:402240005DF8047B704700BF00E100E080B400AF034B01221A60BD465DF8047B704700BF80E100E080B483B000AF0346FB71094B084A1278D2B2D1B2FA7922F00702D2B2E3
:402280000A43D2B2D2B21A700C37BD465DF8047B704700BF8240004080B582B000AF786000F03CF8786800F009F8072000F018F800F028F80837BD4680BD00BF80B485B0EC
:4022C00000AF7860054B1B68FB60FB6844337A681A601437BD465DF8047B704708ED00E080B483B000AF0346FB71054AFB795B01DBB213700C37BD465DF8047B704700BFBB
:4023000001E400E080B400AF034B02221A60BD465DF8047B704700BF00E100E080B400AF034B02221A60BD465DF8047B704700BF80E100E080B483B000AF0346FB71094B7F
:40234000084A1278D2B2D1B2FA7922F00702D2B20A43D2B2D2B21A700C37BD465DF8047B704700BF8640004080B400AF094A094B1B78DBB243F02003DBB21370064A064B42
:402380001B78DBB243F02003DBB21370BD465DF8047B7047A2430040B243004080B400AF094A094B1B78DBB243F00803DBB21370064A064B1B78DBB243F00803DBB21370A8
:4023C000BD465DF8047B7047A2430040B243004080B400AF094A094B1B78DBB243F01003DBB21370064A064B1B78DBB243F01003DBB21370BD465DF8047B7047A24300402B
:40240000B2430040000000000230800803D000BF01380046FCD17047EFF3108072B6704780F31088704700BF80B483B000AF0346FB7101BE0C37BD465DF8047B704700BF2C
:4024400080B582B000AF786008E00C4B1B681846FFF7DAFF7B68A3F500437B607B68B3F5004FF2D8064B1B687A6802FB03F31846FFF7CAFF0837BD4680BD00BF3881FF1F67
:402480003081FF1F80B582B000AF0346FB80FB88044A127802FB03F31846FFF7B5FF0837BD4680BD3481FF1F80B584B000AF03463960FB710F4B1B68FB60FB791F2B02D994
:4024C0000020FFF7B1FFFB7903F01F0310339B00FA6813441B68BB60FB7903F01F0310339B00FA6813443A681A60BB6818461037BD4680BD08ED00E080B582B000AF0346E0
:402500000A46FB711346BB71BB79072B02D90020FFF78AFFFB791F2B02D90020FFF784FFFB7903F01F0303F1604303F56443BA795201D2B21A700837BD4680BD80B483B00F
:4025400000AF0023FB71234B40221A60224B1B78BB71224B1B787B71214B1B78DBB2002B03D1BA797B799A4218D0BB791D4AD35CFB71BB790133BB71BB79192B01D9002306
:40258000BB71154ABB791370154B1B78DBB2002B03D0134B00221A7012E011E0124B1B783B713B7903F02003002B09D00F4B1B78FB713B7903F01E03002B01D00023FB7158
:4025C0000B4B40221A60FB7918460C37BD465DF8047B704780E100E08A82FF1F8B82FF1F8C82FF1F6C83FF1F656400404264004000E100E081F0004102E000BF83F000437E
:4026000030B54FEA41044FEA430594EA050F08BF90EA020F1FBF54EA000C55EA020C7FEA645C7FEA655C00F0E2804FEA5454D4EB5555B8BF6D420CDD2C4480EA020281EA16
:40264000030382EA000083EA010180EA020281EA0303362D88BF30BD11F0004F4FEA01314FF4801C4CEA113102D0404261EB410113F0004F4FEA03334CEA133302D052426C
:4026800063EB430394EA050F00F0A780A4F10104D5F1200E0DDB02FA0EFC22FA05F2801841F1000103FA0EF2801843FA05F359410EE0A5F120050EF1200E012A03FA0EFC17
:4026C00028BF4CF0020C43FA05F3C01851EBE37101F0004507D54FF0000EDCF1000C7EEB00006EEB0101B1F5801F1BD3B1F5001F0CD349085FEA30004FEA3C0C04F10104F4
:402700004FEA445212F5800F80F09A80BCF1004F08BF5FEA500C50F1000041EB045141EA050130BD5FEA4C0C404141EB010111F4801FA4F10104E9D191F0000F04BF014680
:402740000020B1FA81F308BF2033A3F10B03B3F120020CDA0C3208DD02F1140CC2F10C0201FA0CF021FA02F10CE002F11402D8BFC2F1200C01FA02F120FA0CFCDCBF41EA75
:402780000C019040E41AA2BF01EB0451294330BD6FEA04041F3C1CDA0C340EDC04F11404C4F1200220FA04F001FA02F340EA030021FA04F345EA030130BDC4F10C04C4F1AC
:4027C000200220FA02F001FA04F340EA0300294630BD21FA04F0294630BD94F0000F83F4801306BF81F480110134013D4EE77FEA645C18BF7FEA655C29D094EA050F08BF39
:4028000090EA020F05D054EA000C04BF1946104630BD91EA030F1EBF0021002030BD5FEA545C05D14000494128BF41F0004130BD14F580043CBF01F5801130BD01F00045E0
:4028400045F0FE4141F470014FF0000030BD7FEA645C1ABF194610467FEA655C1CBF0B46024650EA013406BF52EA033591EA030F41F4002130BD00BF90F0000F04BF002113
:40288000704730B54FF4806404F132044FF000054FF0000150E700BF90F0000F04BF0021704730B54FF4806404F1320410F0004548BF40424FF000013EE700BF42004FEAE2
:4028C000E2014FEA31014FEA02701FBF12F07F4393F07F4F81F06051704792F0000F14BF93F07F4F704730B54FF4607401F0004521F0004120E700BF50EA010208BF7047A2
:4029000030B54FF000050AE050EA010208BF704730B511F0004502D5404261EB41014FF4806404F132045FEA915C3FF4DCAE4FF003025FEADC0C18BF03325FEADC0C18BFE9
:40294000033202EBDC02C2F1200300FA03FC20FA02F001FA03FE40EA0E0021FA02F11444C1E600BF70B54FF0FF0C4CF4E06C1CEA11541DBF1CEA135594EA0C0F95EA0C0F99
:4029800000F0DEF82C4481EA030621EA4C5123EA4C5350EA013518BF52EA033541F4801143F4801338D0A0FB02CE4FF00005E1FB02E506F00042E0FB03E54FF00006E1FB38
:4029C00003569CF0000F18BF4EF0010EA4F1FF04B6F5007F64F5407404D25FEA4E0E6D4146EB060642EAC62141EA55514FEAC52040EA5E504FEACE2EB4F1FD0C88BFBCF5D5
:402A0000E06F1ED8BEF1004F08BF5FEA500E50F1000041EB045170BD06F0004646EA010140EA020081EA0301B4EB5C04C2BFD4EB0C0541EA045170BD41F480114FF0000EDD
:402A4000013C00F3AB8014F1360FDEBF002001F0004170BDC4F10004203C35DA0C341BDC04F11404C4F1200500FA05F320FA04F001FA05F240EA020001F0004221F00041B0
:402A800010EBD37021FA04F642EB06015EEA430E08BF20EAD37070BDC4F10C04C4F1200500FA04F320FA05F001FA04F240EA020001F0004110EBD37041F100015EEA430EBD
:402AC00008BF20EAD37070BDC4F1200500FA05F24EEA020E20FA04F301FA05F243EA020321FA04F001F0004121FA04F220EA020000EBD3705EEA430E08BF20EAD37070BDE7
:402B000094F0000F0FD101F00046400041EB010111F4801F08BF013CF7D041EA060195F0000F18BF704703F00046520043EB030313F4801F08BF013DF7D043EA060370479C
:402B400094EA0C0F0CEA135518BF95EA0C0F0CD050EA410618BF52EA4306D1D181EA030101F000414FF0000070BD50EA410606BF1046194652EA430619D094EA0C0F02D1B0
:402B800050EA013613D195EA0C0F05D152EA03361CBF104619460AD181EA030101F0004141F0FE4141F470014FF0000070BD41F0FE4141F4780170BD70B54FF0FF0C4CF453
:402BC000E06C1CEA11541DBF1CEA135594EA0C0F95EA0C0F00F0A7F8A4EB050481EA030E52EA03354FEA013100F088804FEA03334FF0805545EA131343EA12634FEA022250
:402C000045EA111545EA10654FEA00260EF000419D4208BF964244F1FD0404F5407402D25B084FEA3202B61A65EB03055B084FEA32024FF480104FF4002CB6EB020E75EBAD
:402C4000030E22BFB61A754640EA0C005B084FEA3202B6EB020E75EB030E22BFB61A754640EA5C005B084FEA3202B6EB020E75EB030E22BFB61A754640EA9C005B084FEAFD
:402C80003202B6EB020E75EB030E22BFB61A754640EADC0055EA060E18D04FEA051545EA16754FEA06164FEAC30343EA52734FEAC2025FEA1C1CC0D111F4801F0BD141EA04
:402CC00000014FF000004FF0004CB6E711F4801F04BF01430020B4F1FD0C88BFBCF5E06F3FF6AFAEB5EB030C04BFB6EB020C5FEA500C50F1000041EB045170BD0EF0004E19
:402D00004EEA113114EB5C04C2BFD4EB0C0541EA045170BD41F480114FF0000E013C90E645EA060E8DE60CEA135594EA0C0F08BF95EA0C0F3FF43BAF94EA0C0F0AD150EA1D
:402D400001347FF434AF95EA0C0F7FF425AF104619462CE795EA0C0F06D152EA03353FF4FDAE1046194622E750EA410618BF52EA43067FF4C5AE50EA41047FF40DAF52EAF1
:402D800043057FF4EBAE12E74FEA4102B2F1E04324BFB3F5001CDCF1FE5C0DD901F0004C4FEAC0024CEA5070B2F1004F40EB830008BF20F00100704711F0804F21D113F1AD
:402DC0003872BCBF01F00040704741F480114FEA5252C2F11802C2F1200C10FA0CF320FA02F018BF40F001004FEAC1234FEAD32303FA0CFC40EA0C0023FA02F34FEA430342
:402E0000CCE77FEA625307D150EA01331EBF4FF0FE4040F44000704701F0004040F0FE4040F40000704700BF80F0004002E000BF81F0004142001FBF5FEA410392EA030F6F
:402E40007FEA226C7FEA236C6AD04FEA1262D2EB1363C1BFD218414048404140B8BF5B42192B88BF704710F0004F40F4000020F07F4018BF404211F0004F41F4000121F0BD
:402E80007F4118BF494292EA030F3FD0A2F1010241FA03FC10EB0C00C3F1200301FA03F100F0004302D5494260EB4000B0F5000F13D3B0F1807F06D340084FEA310102F1DD
:402EC0000102FE2A51D2B1F1004F40EBC25008BF20F0010040EA03007047490040EB000010F4000FA2F10102EDD1B0FA80FCACF1080CB2EB0C0200FA0CF0AABF00EBC250E1
:402F000052421843BCBFD0401843704792F0000F81F4000106BF80F400000132013BB5E74FEA41037FEA226C18BF7FEA236C21D092EA030F04D092F0000F08BF08467047C7
:402F400090EA010F1CBF0020704712F07F4F04D1400028BF40F00040704712F100723CBF00F50000704700F0004343F0FE4040F4000070477FEA226216BF08467FEA236378
:402F80000146420206BF5FEA412390EA010F40F4800070474FF0000304E000BF10F0004348BF40425FEA000C08BF704743F0964301464FF000001CE050EA010208BF704752
:402FC0004FF000030AE000BF50EA010208BF704711F0004302D5404261EB41015FEA010C02BF84460146002043F0B64308BFA3F18053A3F50003BCFA8CF2083AA3EBC253AA
:4030000010DB01FA02FC634400FA02FCC2F12002BCF1004F20FA02F243EB020008BF20F00100704702F1200201FA02FCC2F1200250EA4C0021FA02F243EB020008BF20EAF6
:40304000DC7070474FF0FF0C1CEAD0521EBF1CEAD15392EA0C0F93EA0C0F6FD01A4480EA010C400218BF5FEA41211ED04FF0006343EA501043EA5111A0FB01310CF0004018
:40308000B1F5000F3EBF490041EAD3715B0040EA010062F17F02FD2A1DD8B3F1004F40EBC25008BF20F00100704790F0000F0CF0004C08BF49024CEA502040EA51207F3A8E
:4030C000C2BFD2F1FF0340EAC250704740F400004FF00003013A5DDC12F1190FDCBF00F000407047C2F10002410021FA02F1C2F1200200FA02FC5FEA310040F1000053EA47
:403100004C0308BF20EADC70704792F0000F00F0004C02BF400010F4000F013AF9D040EA0C0093F0000F01F0004C02BF490011F4000F013BF9D041EA0C018FE70CEAD15397
:4031400092EA0C0F18BF93EA0C0F0AD030F0004C18BF31F0004CD8D180EA010000F00040704790F0000F17BF90F0004F084691F0000F91F0004F14D092EA0C0F01D1420251
:403180000FD193EA0C0F03D14B0218BF084608D180EA010000F0004040F0FE4040F40000704740F0FE4040F4400070474FF0FF0C1CEAD0521EBF1CEAD15392EA0C0F93EA5E
:4031C0000C0F69D0A2EB030280EA010C49024FEA402037D04FF0805343EA111143EA10130CF000408B4238BF5B0042F17D024FF4000C8B4224BF5B1A40EA0C00B3EB510F21
:4032000024BFA3EB510340EA5C00B3EB910F24BFA3EB910340EA9C00B3EBD10F24BFA3EBD10340EADC001B0118BF5FEA1C1CE0D1FD2A3FF650AF8B4240EBC25008BF20F010
:40324000010070470CF0004C4CEA50207F32C2BFD2F1FF0340EAC250704740F400004FF00003013A37E792F0000F00F0004C02BF400010F4000F013AF9D040EA0C0093F051
:40328000000F01F0004C02BF490011F4000F013BF9D041EA0C0195E70CEAD15392EA0C0F08D142027FF47DAF93EA0C0F7FF470AF084676E793EA0C0F04D14B023FF44CAFC1
:4032C00008466EE730F0004C18BF31F0004CCAD130F000427FF45CAF31F000437FF43CAF5FE700BF4FF0FF3C06E000BF4FF0010C02E000BF4FF0010C4DF804CD4FEA400250
:403300004FEA41037FEA226C18BF7FEA236C11D001B052EA530C18BF90EA010F58BFB2EB030088BFC81738BF6FEAE17018BF40F0010070477FEA226C02D15FEA402C05D12A
:403340007FEA236CE4D15FEA412CE1D05DF8040B704700BF844608466146FFE70FB5FFF7C9FF002848BF10F1000F0FBD4DF808EDFFF7F4FF0CBF012000205DF808FB00BFE7
:403380004DF808EDFFF7EAFF34BF012000205DF808FB00BF4DF808EDFFF7E0FF94BF012000205DF808FB00BF4DF808EDFFF7D2FF94BF012000205DF808FB00BF4DF808ED09
:4033C000FFF7C8FF34BF012000205DF808FB00BF4FEA4002B2F1FE4F0FD34FF09E03B3EB12620DD94FEA002343F0004310F0004F23FA02F018BF404270474FF0000070476A
:4034000012F1610F01D1420205D110F0004008BF6FF0004070474FF00000704742000ED2B2F1FE4F0BD34FF09E03B3EB126209D44FEA002343F0004323FA02F070474FF044
:403440000000704712F1610F01D1420202D14FF0FF3070474FF00000704700BF014B1868704700BF9C81FF1F0E4B70B51E460E4C0025E41AA410A54204D056F82530984792
:403480000135F8E702F0E8FF084B094C1E46E41AA4100025A54204D056F8253098470135F8E770BD6464000064640000646400006C64000010B5431E0A44914204D011F870
:4034C000014B03F8014FF8E710BD03460244934202D003F8011BFAE770472DE9F0471E4688B0149F002BB8BF06F10043129927F02007B6BF1E4600232D23462F1446109D7B
:40350000DDF84CA00B7003D0452F03D1013501E0032300E002238DE8280406AB039307AB04932246334600F04FFD472F804602D1119BDB0726D5462F08EB050911D198F824
:403540000030302B0AD1204631460022002302F0F9FC18B9C5F10105CAF80050DAF800309944204631460022002302F0EBFC08B1CDF81C90079B4B4504D25A1C07923022D0
:403580001A70F7E74046079B159AC8EB0303136008B0BDE8F087034673B50029B8BF494203F8022BB4BF2D222B22092942701ADD0DF1070426460A2291FBF2F502FB1511E7
:4035C000092D01F1300104F8011D2946F3DC3031651E04F8011CB5421A460AD215F8012B03F8012BF7E71A463024214402F8024B5970101A02B070BD2DE9F04F91B08B4613
:4036000015461E461A9F044601F09AFAD0F800A0504600F045FC00230E933B680990073323F0070303F108029BF818803A60D3E90023CBE91223DBE9120100F0B9FB01288E
:40364000DBE9120119D10022002302F085FC10B12D238BF84330A04BA04FB8F1470F88BF1F460323CBF81030DBF8003023F00403CBF800304FF00009A1E000F099FBDBF8EC
:40368000003048B9964A974FB8F1470F88BF17460322CBF81020E9E7DBF80420DBE91201571CCDE90A0101D1062209E0B8F1670F02D0B8F1470F05D1002A40F0C781012218
:4036C000CBF80420DBF8042043F480638DE80C00CBF800300DF1330302930DAB03930EAB059300230693CDF81080DDE90A232046FFF7F3FE08F0DF03472B07460AD10D9B89
:40370000D81C03DBDBF80420934237DDA8F102085FFA88F8B8F1650F0D9915D8013942460BF150000D91FFF736FF0E9A81468318012ACBF8103003DCDBF80020D10738D5E5
:403740000133CBF8103034E0B8F1660F18D10029DBF8043009DDCBF810101BB9DBF80020D20721D501330B441CE01BB9DBF80020D00701D5023315E0012313E04FF0670886
:403780000D9B0E9A934207DBDBF80020CBF81030D10709D5013305E0002BD4BFC3F1020301231344CBF810300D9B4FF00009CBF858309DF8333013B12D238BF84330009675
:4037C000204659460FAA2B4600F05CF9013002D14FF0FF3052E1DBF800305A0505D4204629463A46DBF8103008E1B8F1650F40F2D080DBE912010022002302F0A3FB50B3D6
:4038000020462946384A0123B0470130E0D00E9B0D9A9A4209DBDBF80030D80705D4DBF800309F0700F1108107E1204629465246099BB0470130CBD000270E9B013B9F4296
:40384000EDDA204629460BF11A020123B0470130BED00137F1E70D9B002B29DC20462946214A0123B0470130B2D00D9B2BB90E9B1BB9DBF80030D907D1D5204629465246C5
:40388000099BB0470130A3D04FF000080D9B20465B429845294608DA0BF11A020123B047013095D008F10108F0E73A460E9BA5E0DBF858200E9B9A42A8BF1A46002A9146C1
:4038C00002DC4FF000081CE0204629463A464B46B0470130F5D17BE77A61000076610000826100007E610000F2620000204629460BF11A020123B04701303FF469AF08F12C
:403900000108DBF85830B9F1000FB4BF1A46C9EB03029045EADB07EB03080D9A0E9B9A4210DBDBF80030DA070CD40E9A1744C8EB07030D9FD21B9342A8BF1346002B1F46EE
:4039400008DC0EE0204629465246099BB0470130EBD13DE7204629464246B04701303FF437AF4FF000080AE0204629460BF11A020123B04701303FF42BAF08F101080D9A9E
:403980000E9B002FA3EB0203A8BFDB1B9845EBDB45E70E9A012A01DCDB0736D5204629463A460123B04701303FF412AF204629465246099BB04701303FF40AAFDBE9120142
:4039C0000022002302F0BEFAE8B90E9B204629467A1C013B1DE0204629460BF11A020123B04701303FF4F4AE01370E9B013B9F42F1DB204629464B460BF15002B047013036
:403A00007FF40DAFE4E60027EFE7204629463A460123B0470130ECD1DAE6204629460BF119020123B04701303FF4D2AE0137DBF80C300F9A9B1A9F42EFDBDBF80C000F9BAE
:403A40009842B8BF184619E00027F0E743F480638DE80C00CBF800300DF1330302930DAB03930EAB059300230693CDF810802046DDE90A23FFF731FD074640E611B0BDE843
:403A8000F08F00BF2DE9F84391461F468A680B6906469342B8BF1346C9F8003091F843200C46DDF8208012B10133C9F800302368990642BFD9F800300233C9F80030256879
:403AC00015F006051CD094F843302268003318BF012392061FD5E118302081F843005A1C94F845102244023382F8431013E03046394604F119020123C047013007D0013562
:403B0000E368D9F800209B1A9D42F0DBDBE74FF0FF30BDE8F8833046394604F14302C0470130F4D02268D9F80050E36802F00602042A08BF5D1B2269A3680CBF25EAE57548
:403B400000259342C4BF9B1AED184FF00009A9450ADA3046394604F11A020123C0470130D5D009F10109F2E70020BDE8F88300002DE9FF410C461746227E98466E2A064669
:403B80000A9B01F1430100F0B08012D8632A23D00AD8002A00F0BD80582A40F0CC8084F84520DFF804E257E0642A1ED0692A1CD0C1E0732A00F0B18009D86F2A2ED0702A28
:403BC00040F0B980226842F0200222603FE0752A24D0782A3BD0AEE01A6804F14205111D1960136884F84230A9E020681A6810F0800F02D0101D186008E010F0400F02F17E
:403C00000400186002D0B2F9003000E01368002B3EDA2D225B4284F8432039E020681A6810F0800F02D0101D186007E010F0400F02F10400186001D0138800E01368227EBD
:403C4000DFF864E16F2A0CBF08220A221CE07822DFF858E184F845202268186812F0800F00F104051D6003D1550601D5038800E00368D00744BF42F0200222601BB92268EC
:403C800022F0200222601022002084F8430002E0DFF814E10A226568002DA8BF2068A560A4BF20F00400206003B965B10D46B3FBF2F002FB10331EF8033005F8013D0346BC
:403CC0000028F4D100E00D46082A0BD12368DA0708D5236962689A42DEBF302305F8013C05F1FF35491B21612EE025681A6815F0800F606903D0151D1D60136808E015F07D
:403D0000400F02F104051D60136801D0188000E01860002323610D4616E01A68111D1960156800212846626800F016FF08B1401B6060636804E004F1420584F842200123CA
:403D40002361002384F84330CDF800803046214603AA3B46FFF796FE013002D14FF0FF301FE0304639462A462369C0470130F5D023689B0705D4E068039B9842B8BF1846D9
:403D80000FE00025E368039A9B1A9D42F3DA3046394604F119020123C0470130DED00135F0E704B0BDE8F081866100009761000031F0004310B51BD00F4AA1F58014944274
:403DC00010D901F1FF410C4A01F5E001914209D9B3F5801F08D3094A934207D1B0FA80F0400910BD042010BD032010BD002010BD0028E6D1022010BDFFFFDF7F0000F07F0D
:403E00000EB400B54FF402719CB0ADF814106FF00041049107914FF6FF711DABADF81610084953F8042B02900690086802A9019301F080FA029B00221A701CB05DF804EBC5
:403E400003B070479C81FF1F0EB430B59CB01FAC4FF4017254F8045BADF814200290069000F01EF80B4B03900B9300230F9314934FF6FF73ADF81630074B079002A91868CE
:403E80002A462346019401F0A1FB1CB0BDE8304003B070479D3E00009C81FF1F00207047034613F8012B002AFBD1181A013870472DE9F74F03690C698046A3427EDB013CB9
:403EC00001F114074FEA840E00F1140606EB0E0357F82450019356F824300135B3FBF5F507EB0E09BDB34FF0000A3846B446D34650F8043B9AB21B0C02FB05A26B4303EB89
:403F0000124392B2C2EB0B0BBCF800204FEA134A5A441FFA83FBDCF800304845CBEB134303EB224392B242EA03424FEA234B4CF8042BDDD956F80E306BB9019B043BB34291
:403F40001A4602D8C8F8104005E01268043B002AF8D1013CF3E7404601F01DF800282BDB304601354FF0000E57F8042B036891B2C1EB0E0E120C99B27144C2EB134303EB99
:403F8000214389B24FEA234E4F4541EA034340F8043BE9D956F8242006EB840362B9043BB3421A4602D8C8F8104005E01268043B002AF8D1013CF3E7284600E0002003B00E
:403FC000BDE8F08F000000002DE9F04F456A95B08246219CCDE9022345B9102000F0B4FDCAF82400456085600560C560DAF82430196859B15A68012393404A608B60504696
:4040000000F0EDFDDAF8243000221A60039BA24A002BBDBF01232360039B0023BCBF23F000430393039FA8BF236027F000431B0D1B0593421DD142F20F73209A1360029B73
:4040400043B9964A964BC7F31300002814BF1846104600E09248229B002B00F06985C37813B100F1080300E0C31C229A136000F05FBDDDE90245002220462946002301F07A
:4040800061FF804658B1209A01231360229B002B00F03C8583481860013800F049BD13AB009312AB0193504622462B4600F0EEFFC7F30A5607905EB1C5F3130343F07F51F6
:4040C000204641F44011A6F2FF36CDF844801DE0139B129E1E446FF482639E42A1BF029A06F2124322FA03F06F4BB7BF6F4B9B1B029A9B1BAABF9F4002FA03F03843FEF7A8
:40410000BBFB0123A1F1F871013E11930022684BFEF774FA5AA3D3E90023FEF723FC5AA3D3E90023FEF76CFA044630460D46FEF7B3FB57A3D3E90023FEF714FC02460B463B
:4041400020462946FEF75CFA04460D4601F02CFF2946834600222046002301F0FDFE58B15846FEF799FB02460B462046294601F0E9FE08B90BF1FF3BBBF1160F0DD84D4BDC
:4041800003EBCB03D3E90001DDE9022301F002FF30B10BF1FF3B002300E00123109300E01090129B9E1B731E0A9345BF5B420993002300234CBF0A930993BBF1000F07DB50
:4041C0000A9BCDF834B05B440A9300230B9308E0099BCBEB03030993CBF100030B9300230D931E9B092B29D8052BC4BF043B1E931E9BC8BF0025A3F10203D8BF0125032BF6
:4042000021D8DFE803F0020E0410002300E001230C931F9B002B20DC0123069305931A4619E0002300E001230C931F9B5B4406930133012B0593B8BF012311E001250023CD
:404240001E930C9501E001230C934FF0FF3306930593002212231F9202E01F9B06930593DAF8244000226260042101F114029A4222D86268490001326260F6E7AFF30080AD
:4042800061436F63A787D23FB3C8608B288AC63FFB799F501344D33F0000F07FA8610000B1610000F36200000EFCFFFFEEFBFFFF0000F83FC06100005046616800F05AFC95
:4042C000DAF8243020601B680893059B0E2B00F24781002D00F04481DDE90223BBF1000FCDE90E2331DDB14A0BF00F034FEA2B1602EBC303F006D3E900450CD5DDE90E0108
:40430000AB4B06F00F06D3E90823FEF755FC0327CDE9020100E00227DFF8948276B1F10708D5D8E9002320462946FEF71BFB04460D460137761008F10808EFE7DDE90201B3
:4043400022462B46FEF738FC1BE0CBF10004DCB1DDE90E01954B04F00F0203EBC203D3E90023FEF7FFFA924D241102274CB1E20704D5D5E900230137FEF7F4FA6410083510
:40438000F4E7CDE9020100E00227109BDBB1DDE90245002220462946864B01F0DDFD90B1059B83B1069B002B40F3D680294620460022814BFEF7D6FA0BF1FF36CDE90201AD
:4043C0000137069D01E05E46059D3846DDE90289FEF762FA42464B46FEF7C4FA774B0022FEF70EF9CDE90201039BA3F150740394CDB9404649460022714BFEF7FFF8029AA8
:4044000023468046894601F0C5FD002840F0408240464946029A04F1004301F09DFD002840F0308298E0614B0C996A1E03EBC203002947D0D3E9002300206249FEF7BCFB99
:40444000DDE90223FEF7DAF8CDE90201089C4946404601F0A9FD0746FEF71EFA02460B4640464946FEF7CAF8DDE90223303704F8017B8046894601F06FFD002840F03783F4
:4044800042464B4600204B49FEF7B8F8DDE9022301F062FD002840F0D080089BE31AAB425ADADDE902010022434BFEF75BFA0022CDE90201404B40464946FEF753FA8046A0
:4044C0008946C4E7D3E90001DDE90223FEF74AFA089BCDE902015C191D464946404601F063FD0746FEF7D8F902460B4640464946FEF784F8303705F8017BA5428046894639
:4045000023D100222F4BDDE90201FEF779F802460B464046494601F03DFD002840F08D80DDE9022300202749FEF768F802460B464046494601F010FD70B114F8013C621E18
:40454000302B40F0D4821446F7E700221A4BFEF709FA80468946C0E7DDE90E23CDE90223139B002BC0F28A80BBF10E0F00F386800E4B03EBCB03D3E900671F9B002B23DA24
:40458000059B002B20DC40F07C81304600220C4B3946FEF7E7F9DDE9022301F0F1FC059D2E46002840F06F8174E100BFC0610000886200000000F03F0000244000001C408F
:4045C000000014400000E03F089CDDE9028932463B4640464946FEF7EFFA01F0E5FC0546FEF75AF932463B46FEF7BCF90B46024649464046FEF702F805F1300E089B04F8EF
:4046000001EBC3EB040E059B9E452AD102460B46FDF7F6FF32463B468046894601F0BAFC70B94046494632463B4601F08BFC002800F05E82EB0703D45AE2B34600E01C46B2
:4046400014F8012C631E392A07D1089A9342F6D13023137013460BF1010B1A7801321A7046E20022A34BFEF77DF9002200238046894601F067FC0028A9D039E20C9A002A24
:4046800032D01E9A012A0ADC119A12B103F2334302E0129BC3F136030B9D099C18E0059B5D1E0B9BAB42B7BF0B9B5D1BEA1A0D9BBEBF0B959B180D93059BB8BF0025002BD0
:4046C000B9BF099B059A099C059BBCBF9C1A0023099A50461A4409920A9A01211A440A9200F01FFB064602E00B9D099C0C9E64B10A9B002B09DDA342A8BF2346099AE41A24
:40470000D21A09920A9AD31A0A930B9B002B20DD0C9BC3B1002D10DD31462A46504600F099FB0646079A3146504600F003FB07460799504600F053FA07970B9B5A1B08D087
:404740005046079902E0504607990B9A00F082FB07905046012100F0E4FA0D9B0546002B0ADD29461A46504600F074FB1E9B0546012B04DD00271BE01E9B012B13DC029B4F
:404780008BB9039BC3F313037BB9039B23F000473F0D3F0557B1099B0127013309930A9B01330A9302E0002700E0029F0D9B43B12B6905EB8303186900F066FAC0F12000A3
:4047C00000E001200A9B184410F01F0008D0C0F12003042B02DDC0F11C0002E008D018461C30099B0444034409930A9B03440A93099B002B05DD504607991A4600F078FBAB
:4048000007900A9B002B05DD294650461A4600F06FFB0546109BEBB10798294600F0BBFB002817DA0023504607990A2200F0EEF90C9B0BF1FF3B0790002B00F06B813146C3
:40484000002350460A2200F0E1F9069B0646002B33DC68E1059B002B26DC1E9B022B23DD059B0693069B73B929460522504600F0CDF905460798294600F08DFB002809DCA0
:4048800001E000252E461F9B089C6FEA030B08E0B3462E46089B089A5C1C312313700BF1010BB14600260FE10C9B23B9059B0693089F079CC9E0059B0693002C05DD31464E
:4048C0005046224600F014FB0646AFB17168504600F050F90446326906F10C01023292000C30FEF7E7FD50462146012200F000FB814602E000002440B146089F079C2946DB
:404900002046FFF7D5FA3146099000F13008204600F041FB4A4605902946504600F057FBC26803463AB919462046079300F033FB079B024600E0012250461946079200F0C7
:404940004EF9079A92B91E9B83B9029B03F0010363B9B8F1390F3B4607943ED0059B7C1C002BC4BF099B03F131083DE0059B002B04DA002AC446079408DC21E024D11E9B65
:4049800013BB029B03F00103F3B9F2E72146012250460597CDF8088000F0AAFA2946079000F0F9FA0028DDF808C0059B03DC07D118F0010F04D0B8F1390F0ED008F1010CAD
:4049C0007C1C87F800C07FE0002A07F101020EDDB8F1390F3B46079403D1392201371A7057E0144608F1010887F800806CE0089B1746D31A02F8018C069A93423AD021463B
:404A00000A220023504600F001F94E450446314650464FF00A024FF0000304D100F0F6F8064681466BE700F0F1F8494606460A225046002300F0EAF8814660E721465046A2
:404A40000A22002300F0E2F8044620462946FFF72FFA089B00F1300807F8018B069AFB1A9342EBDB089BB146012AACBF9B1801331F46002621460122504600F039FA2946E4
:404A8000079000F088FA002803DC15D118F0010F12D03C4614F8013C621E392B09D1089B9A4204D10BF1010B3123089A02E01446F0E70133137007E03C4614F8013C621E2F
:404AC000302B01D11446F8E75046294600F087F8B9F1000F0CD02EB14E4503D05046314600F07DF85046494600F079F800E0B3465046079900F073F80023209A23700BF134
:404B000001031360229B1BB11C6001E00A480FE008980DE0069B002B3FF7CAAE1E9B022B3FF7A0AEC4E61E9B022B3FF79BAEC4E615B0BDE8F08F00BFF2620000AFF300808F
:404B400000487047A081FF1F024B0146186800F041BB00BF9C81FF1F10B5C9B202449042034605D01C7801308C42F8D1184610BD002010BD70B5456A04460E463DB910207B
:404B8000FFF7E2FF6062456085600560C560656AEB6843B1636ADB6853F8260078B1026843F8262017E020460421212200F0C0FA636AE860DB68002BECD1002070BD01217F
:404BC00001FA06F56A1D2046920000F0B1FA0028F3D04660856000230361C36070BD70B5446A06460D463CB91020FFF7ADFF7062446084600460C4603DB1736A6A68DB685D
:404C000053F82210296043F8225070BD2DE9F04106460C460F69984601F1140E0023DEF80000013385B2010C02FB0585514301EB1541ADB24FEA1148BB4205EB01414EF811
:404C4000041BECDBB8F1000F1BD0A3689F4212DB616830460131FFF78DFF0546226904F10C01023292000C30FEF724FC21463046FFF7B5FF2C4604EB87030137C3F81480F7
:404C800027612046BDE8F081030C1B0413B90004102300E0002310F07F4F04BF0002083310F0704F04BF0001043310F0404F04BF80000233002803DB420003D5581C7047E2
:404CC0001846704720207047036813F007020BD0D90722D49A074BBF5B089B08036003604CBF01200220704799B209B91B0C102213F0FF0F04BF1B0A0832190704BF1B0964
:404D00000432990704BF9B080232D90702D45B0805D00132036010467047002070472020704710B50C460121FFF724FF01224461026110BD2DE9F74F14460A6923698846D7
:404D40009A42BEBF0B46A0461C46D8F81070D4F81090D8F80830D8F8041007EB09069E42C8BF0131FFF706FF00F114052B4605EB860C634503D2002243F8042BF9E704F129
:404D8000140208F1140102EB890301EB87070093009B01929A4257D2B2F800B0BBF1000F23D08946AE464FF0000859F8044BBEF800A0A3B20BFB03A34FEA144ADEF8004060
:404DC00043444FEA14480BFB0A84F24604EB13449BB243EA04434F454FEA14484AF8043B01D9D646E1E7CEF80480019B0432B3F802A0BAF1000F21D02C4689462B684FF035
:404E00000008B9F800E0B4F802B09BB20AFB0EBEA346F04443EA08434BF8043B59F8043BB4F804E01B0C0AFB03E3B94503EB18434FEA134801D25C46E3E763600435A7E770
:404E40005CF8043D13B9013E002EF9DC066103B0BDE8F08F12F003032DE9F04106460F46154607D0214A013B52F823200023FFF7CDFE0746AD1035D0746A3CB91020FFF70F
:404E800063FE7062446084600460C460D6F82480D8F808407CB9304640F27121FFF741FF0023C8F808000446036004E06D1019D0206870B10446EB07F8D53946224630468F
:404EC000FFF738FF804639463046FFF788FE4746ECE7304621462246FFF72CFF002320600360E7E73846BDE8F08100BFB06200002DE9F0470C460746164623694FEA621AC6
:404F00000AEB03094968A36809F101059D4202DD01315B00FAE73846FFF72CFE804600F114010023534504DA002241F823200133F8E72AEAEA73206901EB830316F01F0241
:404F400004F1140101EB800E14D0C2F1200C00200E689A469640304343F8040B51F8040B714520FA0CF0F3D3CAF8040048B109F1020506E0043B51F8042B714543F8042F76
:404F8000F9D3013D3846C8F810502146FFF727FE4046BDE8F08703690A6910B59B1A11D192001430143183180A4453F8044D52F8041D8C4202D007D3012010BD8342F4D8E6
:404FC000002010BD184610BD4FF0FF3010BD2DE9F84307460C46084611461546FFF7DBFF061E08D138463146FFF7C4FD012303614661BDE8F883BCBF23462C463846616809
:40500000BABF1D4601260026FFF7B4FD2B69C660266905F1140904F1140101EB860709EB830800F114054FF0000C51F8042B59F8044B93B29C44A3B2240CC3EB0C03C4EBBF
:40504000124202EB23429BB24FEA224CC84543EA02428E4645F8042BE7D8BE450ED25EF8043B9AB262441B0C03EB224392B242EA03424FEA234C45F8042BEEE755F8043D09
:405080000BB9013EFAE70661BDE8F8832DE9F3411C4601211546089F099EFFF76BFDC4F31302C4F30A5480460CB142F480120192EDB102A840F8085DFFF706FE009B50B176
:4050C000019AC0F1200102FA01F10B43C240C8F81430019201E0C8F81430019B002B14BF02250125C8F81830C8F8105009E001A8FFF7EAFD019B0125C8F81430C8F8105025
:40510000203034B1A4F2334404443C60C0F1350009E0A0F2324008EB850338601869FFF7B3FDC0EB45103060404602B0BDE8F08138B502FB01F4214600F04CF8054618B1D0
:4051400000212246FEF7C1F9284638BD30B500293CD051F8042C0B1F1D49002AB8BF9B180A680C4612B95A600B6030BD93420DD219685818904201BF5A5852181A60426805
:4051800023605A6030BD994203D80A4651680029F9D1146815199D420AD11B682344D0188842136012D10868034413604B680CE002D90C23036030BD1C681819884201BF5B
:4051C00008684968001918605960536030BD00BF9482FF1F70B5CC1C24F0030408340C2C38BF0C24002C064603DA0C233360002070BD8C42F9D3204A136810461946A1B104
:405200000A68121B0ED40B2A03D90A608B188C501FE08B420BBF5A684A6802605A6018BF0B4616E00B464968E9E7144D2B681BB9304600F069FC28603046214600F064FC95
:40524000421C0346D1D0C51C25F0030585420AD11C6003F10B001A1D20F00700821A0AD05142995070BD3046E91A00F04DFC0130BBD02B46ECE770BD9482FF1F9082FF1F1B
:405280002DE9F0478E688246B3420C469046994640D38A8912F4906F3AD02568096902236F1A656905EB450595FBF3F57B1C4B449D4238BF1D4653050FD52946FFF78AFFFC
:4052C000064698B121693A46FEF7F4F8A38923F4906343F08003A38113E02A4600F0ACFD064670B950462169FFF730FF0C23CAF80030A3894FF0FF3043F04003A381BDE86E
:40530000F08726613E4426604E466561ED1BA560B14500D24E4632462068414600F071FDA36800209B1BA36023681E442660BDE8F08700002DE9F0439DB003938B890646C0
:405340001C060D4690460CD50B6953B94021FFF741FF2860286110B90C233360CCE040236B610023099320238DF8293030238DF82A3043461C4613F8012B1AB9B4EB0809BC
:405380000FD002E0252AF5D1F8E73046294642464B46FFF775FF013000F0A980099B4B4409932378002B00F0A28000234FF0FF3204930793059206938DF853301A9304F141
:4053C00001084446DFF84891217848460522FFF7C3FB08F10108049B30B1C9EB00000122824013430493ECE7D80644BF20228DF85320190744BF2B228DF8532022782A2A1C
:4054000002D0079923460EE0039A0134111D12680391002ABBBF524243F0020307920792B8BF04930AE01C4622780133303A092A03D80A2000FB0121F5E7079123782E2BA4
:405440001AD163782A2B0AD1039B02341A1D1B680392002BB8BF4FF0FF3305930CE0611C00220C4623780131303B092B03D80A2000FB0232F5E70592DFF89880217840466A
:405480000322FFF769FB38B1049AC8EB00004023834013430493013421781A48062204F101088DF82810FFF757FB88B1164B33B9039B073323F007030833039313E003ABD8
:4054C0000093304604A92A46104BFEF795F807E003AB0093304604A92A460C4BFEF748FB421C074603D0099B3B44099341E7AB895B0601D4099801E04FF0FF301DB0BDE82E
:40550000F08300BFC6620000F935000081520000BC620000C262000038B54B1C144602D14FF0FF3038BD9389CDB223F020039381536B526883B1A36B9A4207DA23685A1E8B
:40554000226003F8015C636801331FE0214600F01FFC0028F2D0E3E72169236851B18B4208D913F8010CA84204D1013B01322360626038BDE36304F1440363630323A36374
:405580002346226403F8465F236001236360284638BD10B50C46496B69B104F14403994201D0FFF7D3FD236C00206063636013B1E36B236010BD23694FF0FF3023600023C5
:4055C0006360A38943F02003A38110BD2DE9F04707460C469046ADF5247D01930023469347939C4B0DF10C0AA2939B4BCDF820A1A39398F80050002D00F0248197490B683F
:4056000089462B445B7803F0080303F0FF02EBB16368002B10DD2368D9F800101A780A44527815070ED5479A01330132479262682360013A6260EBE7A39B38462146984794
:405640000028E8D008F10106B046D2E7252D08F101064FD14592439298F801302A2B03D11023439308F1020631783546A1F13003092B06F1010606D8459B0A2202FB031371
:40568000303B4593F0E7DFF8DC8103224046FFF763FA40B135460123C8EB000003FA00F2439B134343936E1C2D78672D0FD8652D78D25B2D54D005D8002D00F0C580252D9F
:4056C00018D071E0632D57D0642D3FD06CE0702D32D007D86E2D55D03AD8692D64D1002344933BE0752D31D0782D29D0732D5BD102233FE06368002B0DDD23681A78AA4264
:4057000040F0A080013362682360479B013A01336260479398E7A39B3846214698470028EBD04698002800F08F80A38913F0400F18BF4FF0FF3089E0439B43F0200343930C
:40574000439B43F400734393102302E00A2300E008236E2D449301DD04230BE0032309E03146504600F0E0F90646439B43F040034393012349931BE0439B43F0400343939C
:405780000023F7E7439AD0063FF55EAF12F0010F019A479B02F104010191126814BF1380136051E70523E5E7032349930A2344936368002B03DD439B590611D518E0A39B27
:4057C0003846214698470028F5D0AAE7479A013247926268013A002A626013DD013323602368D9F800101A780A4452781207EDD4499B022B0DDC384643A9224601AB00F08A
:4058000033F819E0A39B3846214698470028E7D087E7042B06DC384643A9224601AB00F081F809E00E4B002B3FF40EAF384643A9224601ABAFF30080012803D002287FF467
:4058400003AF6EE7469801E04FF0FF300DF5247DBDE8F0871955000093550000D881FF1F00000000C26200002DE9F04115468A6880460C4632B98A69002A0CBF01224FF063
:40588000FF328A6022680026D1065FBF1A68111D19601768A069F8B923680136DA065EBF2B681B783B702A686B6802F101022A60A26803F1FF3302F1FF326B6058BF0137E3
:4058C000A260EAB1002BE5DCD4F880314046294698470028DED013E0012807D12B6862691B78D35C002BD7D1C6B109E0022807D12B680B4A1B78126813445B781B07CBD5CE
:40590000236813F0100305D1E2680132E260A26902B13B70236900201E442661BDE8F081D881FF1F2DE9F04F0C469A46724B87B08346164693E8070003AB83E807006F4BAA
:40594000A1696F4A04F11C09032918BF1A46A36800925A1EB2F5AE7F82BF6FF4AE7503EB050840F25D134F4688BFA360236898BF4FF0000843F4506323600023326803A9BC
:4059800051F82300117802220193FFF7E5F8019B002835D0012B0BD162682AB908226260226842F400722260226822F4A0620BE0022B0AD1226802F4C061B1F5007F1FD1FE
:4059C0001021616042F480722260A268511EA160B2B132687D1C511C316012783A707268013A002A72600ADCD4F880215846314601939047002841D12F46019B00E02F4645
:405A00000133032BBAD163680BB90A23636063683C496069C91A00F087F83D460027A3686BB3316860690A78805C40B3302A22680AD1100508D50137B8F1000F0BD0013359
:405A400008F1FF38A36006E022F4106222600B78013505F8013C7368013B002B736003DD33680133336005E0D4F8803158463146984720B9A368013BA360D0E700272368D7
:405A8000D9050DD54D4509D915F8011C05F1FF38D4F87C3158463246984745464D4527D0226812F010021BD12A70636858464946009EB0472268DAF8003012F0200F07D193
:405AC000D20705D51A1DCAF800201B68188004E01A1DCAF800201B681860E3680133E360C9EB05053D44276900203D44256100E0012007B0BDE8F08FD0620000995C00000C
:405B00008D5B0000EC62000038B5064C0023054608462360FBF75CF8431C02D1236803B12B6038BD8883FF1FF0B50A78441E5E2A13BF4B1C8B1C4A78002108BF012100F1A3
:405B4000FF0504F8011FAC42FBD10AB9581EF0BDC1F10104E7B2875419785E1C2D2905D05D290ED079B10A463346F3E75D785D2DF9D09542F7DB02330132AA428754FBDBFD
:405B8000EAE73046F0BD1846F0BD00002DE9F0470F46404CD4F800903D4615F801EB09EB0E04667806F0080404F0FF060CB12F46F2E774462D2C03D1BD1C7C78012603E038
:405BC0002B2C04BF7C78BD1C13B1102B0AD15AE0302C56D12C7804F0DF04582C4CD16C7810230235002E14BF4FF000486FF00048B8FBF3FA0027BE4603FB1A8809EB040C1F
:405C00009CF801C01CF0040F01D0303C0BE01CF0030C1BD0BCF1010F0CBF4FF0370C4FF0570CCCEB04049C4210DAB7F1FF3F0AD0D64506D801D1444503DC03FB0E4E01271A
:405C400001E04FF0FF3715F8014BD7E77C1C73460AD1002E4FF0220114BF4FF000436FF0004301602AB911E00EB1CEF100036AB107B1691E116009E03024002BB2D108236D
:405C8000B0E70A23AEE7302CACD1A3E71846BDE8F08700BFD881FF1F2DE9F0470E463B4CD4F80090354615F801EB09EB0E04677807F0080404F0FF070CB12E46F2E77446DA
:405CC0002D2C03D1B51C7478012703E02B2C04BF7478B51C13B1102B0AD151E0302C4DD12C7804F0DF04582C43D16C78102302354FF0FF38B8FBF3F803FB08FA00266FEA5F
:405D00000A0AB64609EB040C9CF801C01CF0040F01D0303C0BE01CF0030C1BD0BCF1010F0CBF4FF0370C4FF0570CCCEB04049C4210DAB6F1FF3F0AD0C64506D801D1544567
:405D400003DC03FB0E4E012601E04FF0FF3615F8014BD7E7741C734603D122230360334602E00FB1CEF100036AB106B1691E116009E03024002BBBD10823B9E70A23B7E761
:405D8000302CB5D1ACE71846BDE8F087D881FF1F2DE9F0410C46496B04F1440399421AD14FF48061FFF716FA18B94FF0FF30BDE8F0814FF48063A36394F84630606380F846
:405DC000FF3394F8453000F2FD30437094F844300370206012E0A66B77003A4600F02CF805460028E1D000EB0608404629463246FDF760FBC4F800806563A7630020BDE8F1
:405E0000F081814210B501EB020301D3421E0BE09842FBD28118D21AD34204D013F8014D01F8014DF8E710BD994204D011F8014B02F8014FF8E710BDF8B5074615460E4655
:405E400021B91146BDE8F840FFF7C4B91AB9FFF77DF92846F8BD00F015F8A8420ED238462946FFF7B7F9044650B131462A46FDF721FB38463146FFF769F901E03046F8BD4A
:405E80002046F8BD51F8040C0028BEBF091851F8043CC018043870474FF0FF3C06E000BF4FF0010C02E000BF4FF0010C4DF804CD4FEA410C7FEA6C5C4FEA430C18BF7FEA67
:405EC0006C5C1BD001B050EA410C0CBF52EA430C91EA030F02BF90EA020F0020704710F1000F91EA030F58BF994208BF90422CBFD8176FEAE37040F0010070474FEA410C95
:405F00007FEA6C5C02D150EA013C07D14FEA430C7FEA6C5CD6D152EA033CD3D05DF8040B704700BF8446104662468C461946634600E000BF01B5FFF7B7FF002848BF10F1E3
:405F4000000F01BD4DF808EDFFF7F4FF0CBF012000205DF808FB00BF4DF808EDFFF7EAFF34BF012000205DF808FB00BF4DF808EDFFF7E0FF94BF012000205DF808FB00BFF0
:405F80004DF808EDFFF7CEFF94BF012000205DF808FB00BF4DF808EDFFF7C4FF34BF012000205DF808FB00BF4FEA410212F5001215D211D56FF47873B3EB625212D94FEAD5
:405FC000C12343F0004343EA505311F0004F23FA02F018BF404270474FF00000704750EA013005D111F0004008BF6FF0004070474FF00000704700BF0000000000000000BE
:40600000414443313D2020202020205600000000414443323D202020202020560000000025662025662025662025662025662025662025662025642025642025660000003D
:40604000252B312E32660000202020202000000090020000880200008002000078020000700200007002000070020000700200007082FF1F7082FF1F7082FF1F7082FF1F19
:406080007082FF1F7082FF1F7082FF1F7082FF1F7082FF1F7082FF1F7082FF1F7082FF1F7082FF1F7082FF1F7082FF1F000000481000004818000048200500484005004836
:4060C0000800004820000048A000004820010048A001004820020048A002004820030048A003004820040048A0040048600500487005004880050048000600488006004859
:40610000000700488007004800080048800800480009004880090048000A0048800A0048000B0048800B0048000C0048800C0048000D0048800D0048000E0048800E004837
:40614000000F0048800F004800100048801000480011004880110048001200488012004800130048801300480014004880140048001500484300494E4600696E66004E41A4
:406180004E006E616E0030313233343536373839414243444546003031323334353637383961626364656600496E66696E697479004E614E00504F534958002E0000000048
:4061C000000000000000F03F000000000000244000000000000059400000000000408F40000000000088C34000000000006AF8400000000080842E4100000000D01263413E
:406200000000000084D797410000000065CDCD41000000205FA00242000000E876483742000000A2941A6D42000040E59C30A2420000901EC4BCD64200003426F56B0C4346
:406240000080E03779C3414300A0D8855734764300C84E676DC1AB43003D9160E458E143408CB5781DAF154450EFE2D6E41A4B4492D54D06CFF08044F64AE1C7022DB54470
:40628000B49DD9794378EA440080E03779C34143176E05B5B5B89346F5F93FE9034F384D321D30F94877825A3CBF737FDD4F157505000000190000007D000000232D302B8D
:4062C0002000686C4C0065666745464700000000EE620000F1620000F4620000412D46612D66383930313233343536375D002B2D00303000785800002020202020202020C7
:40630000202828282828202020202020202020202020202020202020881010101010101010101010101010100404040404040404040410101010101010414141414141019E
:406340000101010101010101010101010101010101010110101010101042424242424202020202020202020202020202020202020202021010101020000000000000000096
:4063800000000000000000000000000000000000000000000000000000000000000000000000000000000000000000000000000000000000000000000000000000000000DD
:4063C000000000000000000000000000000000000000000000000000000000000000000000000000000000000000000000000000000000000000000000000000000000009D
:40640000000000000000000000000000000000000000000000000000000000000000000000000000000000000000000000000000000000000000000000000000000000005C
:40644000000000000000000000000000000000000000000000000000F8B500BFF8BC08BC9E467047BD020000BD0C0000F8B500BFF8BC08BC9E467047990200009064000007
:406480000881FF1FD8000000B0010000000000000000000000000041EC51B83D8FC2F53E00008040B202D002F6FF0000000020419083FF1F40B7280308CF000035000000BA
:4064C0000000846700000000F86300001864000038640000000000000000000000000000000000007461000000000000000000000000000000000000000000000000000069
:406500000000000000000000000000000000000000000000000000000000000000000000000000003C81FF1FBB610000C1620000C1620000C1620000C1620000C1620000B5
:40654000C1620000C1620000C1620000C1620000FFFFFFFFFFFFFFFFFFFFFFFFFFFF0000F76200000000000000000000000000000000000000000000000000000000000044
:4065800000000000000000000000000000000000000000000000000000000000000000000000000000000000000000000000000000000000000000000000000000000000DB
:4065C000000000000000000000000000000000000000000000000000000000000000000000000000000000000000000000000000000000000000000000000000000000009B
:40660000000000000000000000000000000000000000000000000000000000000000000000000000000000000000000000000000000000000000000000000000000000005A
:40664000000000000000000000000000000000000000000000000000000000000000000000000000000000000000000000000000000000000000000000000000000000001A
:020000040003F7
:0200000480007A
:40000000C8A0000000000000FF3F00000000000000000000000000840000000000000084090400001B02000060271B50787903061B206000607F00007B0000001226044982
:4000400040000000200000200006000000001B5978000007043E0346000002A0000000004502030006000E0C14FFFFFF62A0F0410C00000000000211040404046666000130
:4000800000000000000040020010301000101012000000000000000000000000000000000000000001004600000000000A009100000000003F0000000000000014008900BE
:4000C000000000003F000000000000002000000018000700C000200000000000000010000000000000000000000000000000000000000000000008000400000406900001EB
:400100000000000000000000000000000000000000000000000000000000000000000000003700401800225300300041203718C0000000003800040000A406411200208042
:400140002000000000080000280000000100000000F000083E060101002000020000405452060000000EC00B19FFFFFF0000F0440C000000010004000404040455550001F3
:40018000000000000000C000000040020000000000000000000000000000000000000000000000000000020000000000000000010500000000000000050000000000000030
:4001C0000100040001000401000002000000000002000100040100002000000000000510030000000000004000FF07FF4020F0050800000018000400040404040665000178
:4002000040A840200000000000000000000000000000000000000000000000000000000000000800400003000000002B00001C40000000001C182321001F006000000000AD
:4002400000000000211F0E20215416210000000060010F781A0600000220280800000011030000000000040000FF07FF4020F005080000000000000004040400220200015F
:4002800040A84020000000000000000000000000000000000000000000000000000000000041000E10800C030000030009411016000000001C0002000C1C11430000001CDF
:4002C00000000008140000000020000010000000001A1F20000F00C0008000220000000423060000000BE00C19FFFFFF0000F0440C000000010004000404040452220001E4
:40030000000000000000C00000004002000000000000000000000000000000000000000008000100000000000000000000000000000000000001000E000000030D0100167C
:40034000001C00030200041C0D000000000000080000031A0C00000F2800008800001000020000000040000000FF07FF4020F0050800000000000000040404003303000148
:4003800040A84020000000000000000000000000000000000000000000000000000000001C202200000120001406000830000C0010060018090610080000000000140308A4
:4003C000000000000000200A2C001110000000000000002020011F1E00000080000010144302000000E0C00B1AFFFFFF0000F0440C000000010004000404040433330001A1
:40040000000000000000C00000004002000000000000000000000000000000000000000000030004001300040013000C000000000000000000000000000000080100000074
:400440000000000000200005000A00140000000001000030000F0000000820200000010023040000000E00CB31FFFFFF0000F0440C000000010004000404040446440001A2
:40048000000000000000C0000000400200000000000000000000000000000000000000000000000000024C000024004000C000300000000C6C70038831000E800040000026
:4004C00000000880005013003101460000B00044307C0F804A0200010200280000000154040000000000040000FF07FF4020F00508000000000000000404040044040001DF
:4005000040A840200000000000000000000000000000000000000000000000000000000000000000000000000000000000000000000072000F38000F0000000000000000AB
:400540000000000000000000000000000000000000000000000F0F0000000000000000005800000000000000000058000000000064010000000000004001640000000000A3
:400580000000000000000000000000000000000000000000000000000000000000000000000000000000000000000000000000000100000002000000000000000000000038
:4005C00000000000000000000000000000000000000000000000000000000000000000000000000000000000080000000400000000000000000000000000000000000000EF
:400600000000000000000000000000000000000000000000000000000000000000000020000000000000000000000000000000000000000001000000000000000000000099
:40064000000000000000000000000000000000000000000000000000000000000000000000000000000000000000000000000000000000000000000000000000000000007A
:400680000000000000000000000000000000000000000000000000000000000002000000000000000000002000000000000000000000000000000000000000000000000018
:4006C00000000000000001000000000001000000000000000000000000000000000000000000000000000000000000000000000000000000000000000000000000000000F8
:4007000000000000000000000000000000000000000000000000000000000000000000000000000000000000000000000000000000000000000000000000000000000000B9
:400740000000000002000000000000000000000000000000000000000000000000000000000000000000000000000000000000000000000000000000000000000000000077
:400780000000000000000000000000000000000000000000000000000000000000000000000000000000002000000000000000000000000000000000000000000000000019
:4007C00000000000000000000000000000000000040000000000000000000000000000000000000000000000000000000000000000000000000000000000000000000000F5
:400800000000000000000000000000000000000000000000000000000000800000000000000000000000000000000000000000000000000000000000000000000000000038
:400840000000000000000000000000000000000000000000000000000000000000000000000000000000000000000000000000000000000000000000000000000000000078
:400880000000000000000000000000000000000000000000000080000000000000000000000000000000002000000000000000000000000000000000000000000000000098
:4008C00000000000000008000000000000000000000000000000000000000000000000000000000000000000000000000000000000000000000000000000000000000000F0
:400900000000400000000000000000000000000000000000000000000000000000000000000000000000002000000000000000000000000000000000000000000000000057
:400940000000000000000000000000000000000000000000000000000000000000000000000000000000000000000000000000000000000000000000000000000000000077
:400980000000000000000020000000000000000000000000000000000000000000000000000000000000000000000000000000000000000000000000000000000000000017
:4009C00000000000000000000000000000000000000000000000000000000000000000000000000000000000000000000000000000000000000000000000000000000000F7
:400A000000000000000000000000000000000000000000000000000000000000000000000000000000000000000000000000000000000000000000000000000000000000B6
:400A40000000000000000000000000000000000000000000000000000000000000000000000000000000000010000000200000000000000000000000000000000000000046
:400A8000010000000101188100400000010091002000180020002020040410000800010001000820004084090105000020001000200088000000088100000000000420028C
:400AC00004000000000010212000400000010002000000000000280000000000A001080000000000000000800000000000000000000000000000000000000000000000000D
:400B000000000000840000400000000000000000000400000000010000000000000000080000000000000000401000000000840002140001040000000000000000000000F5
:400B4000F800B1006600000000006B00DE00E000E40000000000F0008000000000000000000000000000000010000000200040000000000000000000000000000000000079
