:400000000080002011000000150200001502000080B500AF024A034B1B68136000F0FEF8BC760040FA46004010B5054C237833B9044B13B10448AFF300800123237010BDF3
:400040004081FF1F00000000983E0000084B10B51BB108480849AFF300800848036803B910BD074B002BFBD0BDE81040184700BF00000000983E00004481FF1F0881FF1F25
:400080000000000090B583B000AF00F09FF801F009FA0346002B75D03B4801F027FA3A4B1B78002B4ED1394800F07CF800237B6001F0F8F90346002B0BD0334801F016FA5E
:4000C000314B1B78012B04D1314800F06BF800BF58E07B6803F03F03002B09D100BF01F0F3F90346002BFAD02748402101F0A4F9002002F073FF02F099FF03461C46E1B28C
:40010000244A7B6813440A461A707A68224B1340002B03DA013B63F03F0301331A46E1B2194B99547B68013323F0FF4323F4FF03002B05DA013B6FEA43436FEA534301337D
:400140007B60B5E7104B1B78022B1BD1134800F029F800237B600EE0002002F03FFF02F065FF0C4A7B6813441B78184600F060FD7B6801337B607B68B3F5004FECDB084852
:4001800000F010F883E700BF900100209C3E0000A83E00008081FF1F3F000080B43E0000C03E000080B582B000AF7860012000F07BFB642003F018FD786800F03FFB642050
:4001C00003F012FD0837BD4680BD00BF80B500AF62B600F023FB02F0D9FE00F0D5FC03F091FA0020002100F051FD0848FFF7DAFF00BF00F0EBFE0346002BFAD001F0C8F888
:4002000002F0DCFE0248FFF7CDFF80BDC83E0000C03E000080B400AFFEE700BF80B586B000AF224B7B61224B3B61204B7B6135E03B691B68FB603B695B68BB603B699B68AB
:400240003B6000237B600CE0FB681A68BB681A60BB680433BB60FB680433FB607B6804337B607A683B689A42EED13B69DB683B6000237B6008E0BB6800221A60BB68043377
:40028000BB607B6804337B607A683B689A42F2D13B6910333B617B69013B7B617B69002BC6D103F0BFFDFFF7EDFEFEE7010000008041000080B582B000AF174B174A1A605B
:4002C000174A174B1B6843F40073136000237B600FE07B68032B04D8124A7B6852F8233000E0114B11497A6841F822307B6801337B607B682F2BECD90D4B1B78DAB20D4B1F
:400300001A700D4B094A1A6000F0ACF90B4B00221A600837BD4680BD0CED00E00004FA0514ED00E000000000150200000080FF1FBC7600400481FF1F08ED00E00081FF1F0D
:4003400080B582B000AF78603960786800213A6803F099FD0837BD4680BD00BF80B584B000AFF860B9607A60F868B9687A6803F07FFD1037BD4680BD80B584B000AFF86060
:40038000B9607A60F868B9687A6803F071FD1037BD4680BD80B483B000AF0346FB71FEE780B487B000AF7860396000233B6100237B6127E07B699B007A6813441B68BB60A9
:4003C000BB68FB73BB6823F0FF03BB6014E03B695B003A6813441B781A46BB68134419463B695B003A6813445B780B703B6901333B61FB7B013BFB73FB7B002BE7D17B694A
:4004000001337B617B69152BD4D91C37BD465DF8047B704780B582B000AF3C4B00221A803B4B50221A703B483B490422FFF7A4FF3A4B06221A703A4B52221A70394B3A4A97
:400440001278D2B21A70394B4FF4E1621A80384B41F251221A800023FB7019237B6014E0FB785B00DAB2334B1B78DBB203F00103DBB21343DBB203F00303FB704FF4F0707E
:4004800003F07AFB7B68013B7B607B68002B02D0FB78032BE4D17B68002B02D10320FFF779FF254B4FF480721A80234B07221A70224B00221A70224B48221A701E4B0022CD
:4004C0001A70204B00221A701F4B02221A701F4B04221A701E4A1E4B1B78DBB243F00103DBB213701B4A1B4B1B78DBB243F00103DBB21370184A184B1B78DBB263F07F0305
:40050000DBB213700837BD4680BD00BF804000408240004000410040D83E00000043004000420040A14600400F010049224200402042004025420040044000400640004058
:400540000840004009400040014000400B400040A2430040A1430040A043004080B483B000AF154B1B78FB71144AFB7903F00703DBB21370124AFB791B09DBB21370114B3E
:4005800080221A70104B4FF4A0721A800F4B10221A700F4B01221A700E4B40F201121A800D4B01221A700D4B44221A700C37BD465DF8047B704700BFCF0100496E58004074
:4005C0006F5800403C5100406C510040985A0040005B0040465B00405B5B00407658004080B483B000AF0346FB71FB79012B0ED8FB79094A52F82330FA79074951F8222075
:400600001178FA790548825C0A43D2B21A700C37BD465DF8047B7047CC3E0000D43E000080B483B000AF0346FB71FB79012B10D8FB790A4A52F82330FA79084951F8222044
:400640001178FA790648825CD243D2B20A40D2B21A700C37BD465DF8047B7047CC3E0000D43E000080B582B000AF72B6384A384B1B78DBB243F00403DBB213700023FB7138
:4006800013E0FA7913465B0013445B00314A13443B603B681A683B689B889BB210461946FFF74EFEFB790133FB71FB79072BE8D929482A49FFF774FE294B0A221A70294A6E
:4006C000284B1B78DBB243F00203DBB21370264A254B1B78DBB243F00203DBB21370234A224B1B78DBB243F04003DBB21370204A1F4B1B78DBB243F01003DBB213701D48A8
:400700001D490A22FFF738FE1C481D490822FFF733FE1C481C490822FFF72EFE1B4A1B4B1B78DBB243F00803DBB21370184B00221A70FFF76FFE164B80221A70FFF70EFF90
:4007400014480A490E22FFF709FE0837BD4680BDE8460040DC3E00000C3F0000643F0000835800400350014013500140A0430040C2430040F0510040CC3F000022510040AE
:40078000D83F000062510040E03F00002243004000480040B043004080B500AF282003F023FA032000F092F9052003F01DFA032000F08CF90F2003F017FA032000F086F94A
:4007C000012003F011FA022000F080F9052003F00BFA062000F068F80E2000F065F82C2000F062F8082000F05FF8012000F05CF80C2000F059F8032000F056F8052003F0F1
:40080000F3F980BD80B500AF0C2000F04DF8024B01221A7080BD00BF5C81FF1F80B500AF054B1B78002B04D1FFF7B6FF024B01221A70FFF7E7FF80BD5D81FF1F80B584B06F
:4008400000AF78600123FB737B681B78BB730BE0BB7B184600F00EF8FB7B7A6813441B78BB73FB7B0133FB73BB7B002BF0D11037BD4680BD80B584B000AF0346FB7100F058
:400880002DF8FB791B09FB73FB7B184600F0E2F8FB7903F00F03FB73FB7B184600F0DAF81037BD4680BD00BF80B584B000AF0346FB7100F013F8FB791B09FB73FB7B18460A
:4008C00000F004F9FB7903F00F03FB73FB7B184600F0FCF81037BD4680BD00BF80B582B000AF4FF4CA737B60554A554B1B78DBB223F07F03DBB21370524B1B78DBB223F0E1
:400900000F03FB704F4AFB7843F00F03DBB213704D4B1B78DBB223F00F03FB704A4AFB7813704A4B1B78DBB223F00F03FB70474AFB781370424A424B1B78DBB223F02003CC
:40094000DBB213703E4A3E4B1B78DBB243F04003DBB21370002003F069F9394A384B1B78DBB243F01003DBB21370012003F05EF9374B1B78FB70324A314B1B78DBB223F0A9
:400980001003DBB21370002003F050F9FB7803F00803FB702A4A2A4B1B78DBB243F01003DBB21370012003F041F9254A244B1B78DBB223F01003DBB21370FB78002B02D18A
:4009C0000A2003F033F97B68013B7B60FB78002B02D07B68002BBDD1194A194B1B78DBB223F04003DBB21370154A154B1B78DBB223F07F03DBB21370124A124B1B78DBB2FE
:400A000023F00F03DBB213700F4B1B78DBB223F00F03FB700C4AFB7843F00F03DBB213700A4B1B78DBB223F00F03FB70074AFB7843F00F03DBB213700837BD4680BD00BFFD
:400A4000205100402251004023510040245100402151004080B582B000AF0346FB711A4A194B1B78DBB243F02003DBB21370164A154B1B78DBB223F04003DBB21370002078
:400A800003F0D4F8104A104B1B78DBB223F00F03DBB213700C490C4B1B78DAB2FB791343DBB243F01003DBB20B70012003F0BEF8054A054B1B78DBB223F01003DBB213703E
:400AC0000837BD4680BD00BF2051004080B582B000AF0346FB71144A134B1B78DBB223F06003DBB21370104A0F4B1B78DBB223F00F03DBB213700C490B4B1B78DAB2FB7993
:400B00001343DBB243F01003DBB20B70012003F08DF8054A044B1B78DBB223F01003DBB213700837BD4680BD2051004080B500AF064B00221A70064B00221A70042000F0D5
:400B400057F8022000F034F880BD00BF2C5800402D58004080B400AF094A094B1B78DBB243F00803DBB21370064A064B1B78DBB243F00803DBB21370BD465DF8047B7047CE
:400B8000A8430040B843004080B500AF074B1B78002B04D1FFF7CAFF044B01221A70FFF7D9FFFF2000F044F880BD00BF5E81FF1F80B483B000AF0346FB710C4A0B4B1B782F
:400BC000DBB223F00203DBB213700849074B1B78DAB2FB7903F00203DBB21343DBB20B700C37BD465DF8047B704700BF2C58004080B582B000AF0346FB710C4A0B4B1B78C9
:400C0000DBB223F00C03DBB213700849074B1B78DAB2FB7903F00C03DBB21343DBB20B7000F016F80837BD4680BD00BF2C58004080B483B000AF0346FB71044AFB791370C2
:400C40000C37BD465DF8047B704700BF835B004080B483B000AF0B4B1B78DBB203F00C039B08DBB20633FB71074AFB7903F1924303F59C731B78DBB213700C37BD465DF890
:400C8000047B70472C5800400B46004080B582B000AF03460A46FB711346BB71084B1B78002B04D100F00EF8054B01221A70FA79BB791046194600F0D5F80837BD4680BD98
:400CC0005F81FF1F80B582B000AF02F074FF0346FB71534A524B1B78DBB243F00103DBB21370504A4F4B1B78DBB243F00103DBB213704D4B01221A704C4B02221A704C4A6A
:400D00004B4B1B78DBB203F07F03DBB21370002002F08CFF474A474B1B78DBB223F00603DBB21370444A444B1B78DBB223F02003DBB213703F4A3F4B1B78DBB243F001037F
:400D4000DBB21370012002F071FF282002F06EFF3A4A3A4B1B78DBB203F07F03DBB21370364A364B1B78DBB223F04003DBB21370304A304B1B78DBB243F00203DBB21370A7
:400D8000022002F053FF2B4A2A4B1B78DBB243F00403DBB213702A4B00221A70294B00221A70FB79184602F00AFF1720072102F077FF1720244902F04BFF1820072102F072
:400DC0006FFF1820214902F043FF1520072102F067FF15201E4902F03BFF0020072102F05FFF00201B4902F033FF0120072102F057FF0120184902F02BFF0220072102F087
:400E00004FFF0220154902F023FF0C20072102F047FF0C20124902F01BFF0837BD4680BDA5430040B54300409D60004009600040106000409443004012600040F8510040EA
:400E40008460004085600040011D0000D1150000F51C0000F11B0000451C0000991C00000D1D000080B582B000AF03460A46FB711346BB712E4AFB7913702E4B00221A7094
:400E80002D4B00221A702D4B00221A702C4B00221A702C4B00221A702B4B00221A702B4B00221A702A4B4FF400021A60284B4FF080721A60264B4FF400121A60244B01223C
:400EC0001A60234B02221A60214B04221A60BB79002B02D0012B09D011E01E4A1D4B1B78DBB223F00103DBB2137011E0194A194B1B78DBB243F00103DBB2137008E0154ABC
:400F0000144B1B78DBB243F00103DBB2137000BF114B03221A70114B80221A70012002F02BFE0F4B04221A700837BD4680BD00BF020200208C0200208E020020030200206E
:400F40008D020020F801002005020020FA01002000E100E00960004028600040086000401260004080B400AF0F4B00221A700F4B00221A700E4B00221A700E4B00221A70E2
:400F80000D4B00221A700D4B00221A700C4B00221A700C4B03221A700B4B80221A70BD465DF8047B704700BF8C0200208E020020030200208D020020F801002005020020DF
:400FC000FA010020286000400860004080B400AF034B1B78DBB21846BD465DF8047B70470302002080B483B000AF0346FB71FA79064913465B0013449B000B445B78DBB222
:4010000018460C37BD465DF8047B70470C02002080B485B000AF0346FB710023FB81FB79002B1BD0FB79082B18D8104AFB791B0113441B78DBB29BB203F00F03FB81FB8913
:401040001B029AB20949FB791B010B445B78DBB29BB21343FB81FB89023BFB81FB8918461437BD465DF8047B704700BFFC5F0040B0B485B000AF03463960FB711346BB80DB
:40108000FB79002B66D0FB79082B63D8B988FA79324813465B0013449B000344DB889BB2C3F5007399420BD9FA792C4913465B0013449B000B44DB889BB2C3F50073BB80D1
:4010C000274CF979BB881B0A9BB2D8B2FA79234D13465B0013449B002B44DB78DBB20343DAB20B0123441A701D4AFB79B988C9B21B0113440A465A703B68002B13D000232D
:40110000FB810CE01748FB79FA8939680A4412781B01034408331A70FB890133FB81FA89BB889A42EED3FA790C4913465B0013449B000B4400225A700948F979FA79074C87
:4011400013465B0013449B0023445B79DAB20B0103449A701437BD46B0BC70470C020020FC5F00407060004080B584B000AF03463960FB711346BB803B68002B30D0FB791F
:40118000002B2DD0FB79082B2AD8FB791846FFF73FFF03461A46BB88934205D9FB791846FFF736FF034600E0BB88BB800023FB810DE0FB893A6813440D49FA7912010A44E2
:4011C00008321278D2B21A70FB890133FB81FA89BB889A42EDD3FB79184600F00BF801E00023BB80BB8818461037BD4680BD00BF7060004090B482B000AF0346FB71FB793E
:40120000002B19D0FB79082B16D8FA790C4913465B0013449B000B4400225A700948F979FA79074C13465B0013449B0023445B79DAB20B0103449A700837BD4690BC7047C4
:401240000C020020FC5F004080B582B000AF0023FB71324B1B79DBB2184600F069F80346BB712E4B1B78DBB2DBB25BB2002B16DA2A4B5B78DBB2212B00D00FE0284B072274
:401280001A80BA791346DB009B1A264A1344244A536000F017FB0346FB7100BF38E01F4B5B78DBB2202B02D0222B1AD030E01C4B07221A80BA791346DB009B1A194A1344D4
:4012C000174A5360BB79BA7917498A5CD2B242F00102D1B2144AD15400F074FB0346FB7116E0BB790D4A9278D2B291B20F4A22F81310BB79BA790C498A5CD2B242F0020216
:40130000D1B2094AD15400F0F9FB0346FB7100BFFB7918460837BD4680BD00BF00600040780200200C81FF1FF0010020E001002080B485B000AF0346FB710023FB73FF23D3
:40134000BB7317E0FB7B104AD35C7B737A7B0F4913465B0013449B000B4408339B78DBB2FA799A4203D1FB7BBB730223FB73FB7B0133FB73FB7B012BE4D9BB7B184614378E
:40138000BD465DF8047B7047EC0100200C02002080B582B000AF0023BB71224B00221A70214B00221A70204B00225A700023FB7110E0FB791D4AD35C7B717B79002B06D00D
:4013C0007B79082B03D87B791846FFF713FFFB790133FB71FB79012BEBD9154B1B78DBB2002B18D0114B1B78DBB2002B13D0114B1B78DBB2002B0ED00D4B1B78DBB2082BCC
:4014000009D80A4B1B78DBB2082B04D8094B1B78DBB2082B01D90123BB71BB7918460837BD4680BD6081FF1FF0010020E4010020E8010020EC01002080B584B000AF78604A
:401440000B467B80144B1B781A46144B9B5CFB73FA7B134913465B0013449B000B4408331B889BB27A889A420CD9FA7B0C4913465B0013449B000B4408331B887B8000209E
:4014800002F0A6FBFA7B7B88104679681A46FFF7EFFD1037BD4680BD6081FF1FE80100200C02002080B500AF054B1B781A46054B9B5CDBB21846FFF795FD0346184680BD26
:4014C0006081FF1FE401002080B500AF054B1B781A46054B9B5CDBB21846FFF783FD0346184680BD6081FF1FE801002080B584B000AF78600E4B1B781A460E4B9B5CFB7333
:40150000FA7B0D4913465B0013449B000B4408331B889BB2FA7B104679681A46FFF724FE0346BB81BB8918461037BD4680BD00BF6081FF1FE40100200C02002080B485B094
:4015400000AF78600B46FB701346BB707B68DB7803F00303FB737B689B78DBB25BB2002B1ADAFB7B032B0AD0BB7803F001031549FA78CA54BB7843F00103BB701BE0BB78FF
:401580009B08DBB203F001030F49FA78CA54BB7843F00403BB700EE0FB7B032B0BD0BB785B08DBB203F001030849FA78CA54BB7843F00203BB70BB7818461437BD465DF852
:4015C000047B7047E8010020EC010020E401002080B582B000AF374B1B78BB71BB7903F01003002B63D00123FB71BB795BB2002B13DABB7903F00F03012B02D00023FB71FC
:401600001DE000F061F82C4B1B78DBB2DBB25BB2002B14DA0023FB7111E0BB7903F04003002B02D000F094F809E0BB7903F02003002B02D000F0B2F801E00023FB71FB7909
:40164000002B34D01B4B1B78BB71BB795BB2002B2DDB1A4B1B78DAB2194B1B78DBB21343BB71184ABB791370164B1B78DBB2BA799A421CD1104B1B78FB710E4B1B78DBB2AF
:4016800023F07F03BB71BB79002B0AD1094B0A4A1278D2B21A70074B1B78DBB203F00F03FB71054B1B78DBB2FA799A42E2D10837BD4680BD28600040F90100200402002013
:4016C000FE0100202960004080B582B000AF1D4B1B78FB711B4AFB7913701A4B1B78FB71FB795BB2002B03DA174AFB79137025E0022000F043FA154B1B78DBB203F06003BA
:40170000202B08D0402B0BD0002B0ED100F004FB0346FB710CE002F047FB0346FB7107E001F0C0FA0346FB7102E00023FB7100BFFB79002B02D1044B03221A700837BD4694
:4017400080BD00BF28600040F90100200060004080B500AF104B1B78DBB2062B19D801A252F823F09317000093170000811700009317000087170000931700008D170000E8
:4017800000F0FAF806E000F0A9F903E000F0D2F900E000BF80BD00BF8C02002080B500AF124B1B78DBB2062B1DD801A252F823F0E7170000E7170000CD170000E717000083
:4017C000D3170000E7170000D917000000F0DAF80AE000F029F907E0032000F0CFF9044B03221A7000E000BF80BD00BF8C020020F901002080B483B000AF0023FB71294B17
:401800001B78DBB29AB2284B1B889BB213449AB2254B1A8015E02549FB79254A52681278D2B2CA54224B5B680133214A5360FB790133FB711E4B1B889BB2013B9AB21C4B22
:401840001A801B4B1B889BB2002B02D0FB79072BE1D9144B1B78DBB2082B02D0FB79002B0FD0144B1B78DBB283F07F03DB43DAB2104B1A70104B0F221A70104B02221A70F7
:4018800005E00D4B02221A700C4B02221A700C4AFB791370034AFB7913700C37BD465DF8047B7047FA01002000020020006000407802002004020020F90100208C02002071
:4018C000FE01002080B582B000AF164B1B889BB2002B02D100F02EF81EE0134B02221A70124B00221A7000F069F9114BDB79DBB29BB21B029AB20E4B9B79DBB29BB2134359
:40190000FB80084B1B889BB2FA889A4202D2054AFB881380FFF76EFF012318460837BD4680BD00BF780200208C020020040200200060004080B400AF0A4B02221A700A4BE6
:4019400080221A70094B0F221A70094B00221A70084B00221A7001231846BD465DF8047B704700BF8C02002004020020F9010020FA010020FE01002080B500AFFFF73AFF23
:4019800080BD00BF80B500AF0A4B1B78DBB29AB2094B1B889BB213449AB2074B1A80074B00221A70012000F0E9F8054B03221A7080BD00BFFA010020000200208C020020DD
:4019C000F901002080B582B000AF124B04221A70114B80221A7000F0F1F8104BDB79DBB29BB21B029AB20D4B9B79DBB29BB21343FB800B4B1B889BB2FA889A4202D2084A76
:401A0000FB881380074B0B221A70012318460837BD4680BD8C020020040200200060004078020020F901002080B483B000AF0023BB71234B1B78DBB203F00F03DBB2023B9C
:401A4000FB71FB799AB21F4B1B889BB213449AB21C4B1A8018E01C4B5B681C49BA798A5CD2B21A70184B5B680133174A5360BB790133BB71FB79013BFB71134B1B889BB222
:401A8000013B9AB2104B1A800F4B1B889BB2002B02D0FB79002BDED10D4AFB7913700D4B1B78DBB283F07F03DB43DAB2094B1A70094B0B221A700C37BD465DF8047B7047F5
:401AC00029600040000200207802002000600040FE01002004020020F901002080B500AF044B00221A70012000F048F8024B03221A7080BD8C020020F901002080B400AF4E
:401B0000084B06221A70084B06221A70074B80221A70074B00221A7001231846BD465DF8047B70478C020020F901002004020020FE01002080B500AF0C4B1B78DBB2002B7C
:401B40000AD00B4A094B1B78DBB263F07F03DBB21370064B00221A70064B00221A70012000F00CF8044B03221A7080BDF8010020086000408C020020F901002080B483B0A3
:401B800000AF0346FB710B4B9B68002B0CD0094B9B68FA791A70074B9B68074A128892B25A80044B00229A600C37BD465DF8047B704700BF780200200002002080B400AF15
:401BC000094B00221A80094B9B68002B07D0074B9B6800221A70054B9B6800225A80BD465DF8047B704700BF000200207802002080B400AF104A104B1B78DBB223F0010354
:401C0000DBB213700D4B9B7C0D4B1B7BDBB203F00303012B08D00A4BDB7BDBB283F07F03DB43DAB2064BDA73054B01225A73BD465DF8047B704700BF0B600040FC5F004065
:401C40000C02002080B400AF104A104B1B78DBB223F00203DBB213700D4B93F822300D4B1B7EDBB203F00303012B08D0094BDB7EDBB283F07F03DB43DAB2064BDA76054BDC
:401C800001225A76BD465DF8047B70470B600040FC5F00400C02002080B400AF124A124B1B78DBB223F00403DBB213700F4B93F832300F4B93F82430DBB203F00303012B17
:401CC0000AD00B4B93F82730DBB283F07F03DB43DAB2074B83F82720054B012283F82520BD465DF8047B70470B600040FC5F00400C02002080B400AFBD465DF8047B7047EC
:401D000080B500AFFFF72EF980BD00BF80B500AF01F028FD80BD00BF80B586B000AF0023FB75AF4B1B78FB7100233B61AD4B00221A80FB795BB2002B80F2FD80A84B5B7836
:401D4000DBB20A2B00F2F58001A252F823F000BF8B1E0000331F0000331F0000331F0000331F0000331F00007D1D0000331F0000FD1E0000331F0000131F0000984BDB7877
:401D8000DBB2012B0ED100F017FEB860BB685B68944A5360934B12221A80FFF793FD0346FB7571E08E4BDB78DBB2022B24D18C4B9B78DBB2184600F0D5FDB860BB68002BE3
:401DC00062D0BB685B68874A5360864B5B6803331B78DBB29BB21B029AB2824B5B6802331B78DBB29BB213439AB27E4B1A80FFF769FD0346FB759DE0794BDB78DBB2032B0C
:401E00003DD10023FB73784B3B6109E03B691B78BB71BB793A6913443B61FB7B0133FB736F4B9B78DBB2FA7B9A4204D23B691B78DBB2002BEAD16A4B9B78DBB2002B0BD0F0
:401E4000674B9B78DAB2694B1B7C9A4204D1684800F0A0F9664B3B613B691B78DBB2002B12D03B691B78DBB29AB25E4B1A805D4A3B695360FFF726FD0346FB755AE001F070
:401E800093FF0346FB7555E054E0FB7903F00303002B1FD0022B00D02FE0524B02221A804F4B1B79DBB203F07F02524913465B0013449B000B449B78DAB24F4B1A704E4B65
:401EC00000225A70474B4C4A5A60FFF7FBFC0346FB7512E0434B02221A80484B1B78DAB2454B1A70444B00225A703E4B424A5A60FFF7E8FC0346FB7500BF1BE0394B012226
:401F00001A80384B3E4A5A60FFF7DCFC0346FB7510E0344B01221A80314B1B79DBB21A46384B13442F4A5360FFF7CCFC0346FB7500E000BF1AE12A4B5B78DBB2013B0A2B35
:401F400000F2138101A252F823F000BF572000006B210000E12000006B210000791F00006B2100006B2100006B2100008D1F00006B21000013200000194B9B78DAB2224B75
:401F80001A70FFF7BBFD0346FB75EFE0144B9B787B717B79002B06D07B79013BDBB2184600F0E0FCB8607B79002B02D0BB68002B02D17B79002B2BD1114B1B78DBB27A7973
:401FC0009A4208D00E4A7B791370104B01221A70012000F0D7F9FFF791FD0346FB75C5E0006000407802002054400000FC3F0000980200200C0200206481FF1F0502002078
:402000000302002084020020F80100208E020020ACE000F00FFE0346002B1BD0564B1B793B71554B1B79DAB2544B1A703B79544AD35CDAB23B795349CB5CDBB29A4204D099
:40204000514B01221A7000F06FFBFFF757FD0346FB758BE08AE0FB7903F00303012B22D0012B0DD3022B00D039E0434B9B78DBB2002B04D100F046FD0346FB752FE02EE001
:402080003D4B9B78DBB2012B0CD1404B1B78DBB223F00203DAB23D4B1A70FFF72FFD0346FB751CE01BE0344B1B79DBB2012B15D8314B9B78DBB2DB43DBB22F4A1279D2B2B4
:4020C00011461046324A125CD2B21340DAB2304B5A54FFF713FD0346FB75FFE700BF45E0FB7903F00303012B22D0012B0DD3022B00D039E0204B9B78DBB2002B04D100F08C
:4021000093FC0346FB752FE02EE01B4B9B78DBB2012B0CD11D4B1B78DBB243F00203DAB21A4B1A70FFF7EAFC0346FB751CE01BE0114B1B79DBB2012B15D80F4B9B78DBB2D4
:40214000DB43DBB20C4A1279D2B211461046104A125CD2B21340DAB20D4B5A54FFF7CEFC0346FB75FFE700BF00E000BFFB7D18461837BD4680BD00BF006000408D02002041
:40218000FC010020840200208E0200200502002008020020B0B58AB000AF7860314B07F114041D460FCD0FC42B682370002387F826307B68002B52D07B6822221A707B68B5
:4021C000013303221A7007F10C03184601F08AFD022387F827303EE097F827307A68134497F8262007F128010A4412F81C2C1209D2B207F128010A4412F8142C1A7097F8E0
:40220000273001337A68134400221A7097F8273002337A68134497F8262007F128010A4412F81C2C02F00F0207F128010A4412F8142C1A7097F8273003337A681344002287
:402240001A7097F82630013387F8263097F82730043387F8273097F82730212BBCD92837BD46B0BDE83F000090B482B000AF0123FB7174E03F4AFB791B0113440C221A7005
:40228000FA793D4913465B0013449B000B445B79DBB2002B1AD0FA79374913465B0013449B000B441B79DBB2DBB25BB2002B06DA324AFB791B0113440C229A700CE02F4A0C
:4022C000FB791B01134408229A7005E02B4AFB791B01134480229A702648F979FA79264C13465B0013449B002344DB889BB2DAB20B0103449A711F48F979FA791E4C13465B
:402300005B0013449B002344DB889BB21B0A9BB2DAB20B010344DA711648F979FA79164C13465B0013449B002344DB889BB2DAB20B0103441A710F48F979FA790E4C1346E2
:402340005B0013449B002344DB889BB21B0A9BB2DAB20B0103445A71FB790133FB71FB79082B87D9064BFF221A700837BD4690BC704700BF706000400C020020FC5F0040E9
:402380000A60004080B58AB000AF0346FB7100237B84002387F827304CE097F82720C44913465B0013449B000B4400221A7097F82720BF4913465B0013449B000B440022E0
:4023C0009A7097F82720BA4913465B0013449B000B440022DA7097F82720B54913465B0013449B000B44083300221A8097F82720AF4913465B0013449B000B4408330022B9
:402400009A7097F82720AA4913465B0013449B000B4400225A7097F82720A54913465B0013449B000B4400225A7197F82730013387F8273097F82730082BAED9FB79002B13
:4024400016D0002387F825300EE097F82530994A0021D15497F82530974A0021D15497F82530013387F8253097F82530012BECD9924B1B78DBB2002B00F050810023FB763B
:402480008E4B1B78DBB2013BDBB2184600F06AFA78617B695B683B613B6907331B7803F04003002B08D0864B1B78DBB243F00103DAB2834B1A7007E0814B1B78DBB223F0F0
:4024C0000103DAB27E4B1A707B6908337B617B691B7887F82730012387F82530B3E07B695B68FB61002387F82630A0E097F82520FB699B7803F07F039A4240F0908097F840
:4025000025206B4913465B0013449B000B4408331B889AB2FB699B889A420CD297F82520FB699888624913465B0013449B000B44083302461A80FB691B781A465D4B9B5C37
:40254000DAB2FB695B789A4269D197F82520FB699878574913465B0013449B000B4402461A7197F82520FB69D878514913465B0013449B000B4402461A70FB69DB7803F03F
:402580000303FB73FB699B78DBB25BB2002B1ADA97F82520FB7B012B01D1072000E00D20434913465B0013449B000B4402465A7197F825203E4913465B0013449B000B4417
:4025C00001225A7019E097F82520FB7B012B01D1052000E00920364913465B0013449B000B4402465A7197F82520314913465B0013449B000B4400225A70FB699B790A2B1C
:4026000003D0FB699B79022B09D197F82520FB7EF86911461A46FEF791FF0346FB76FB690833FB6197F82630013387F8263097F8262097F827309A42FFF458AF97F8253046
:40264000013387F8253097F82530082B7FF647AF7B695B68FB61002387F8253016E0FB699B7803F07F02FB691878114913465B0013449B000B44083302469A70FB69083386
:40268000FB6197F82530013387F8253097F8252097F827309A42E2D300F0A0F90246094B1A6000237B84012387F8273030E000BF0C02002084020020FC01002003020020E7
:4026C000050200208802002097F82720154913465B0013449B000B447A8CDA8097F82720104913465B0013449B000B4408331B889AB27B8C13447B847B8C03F001039AB28B
:402700007B8C13447B8497F82730013387F8273097F82730082BD7D9FFF7A6FD2837BD4680BD00BF0C02002090B585B000AF874B1B78DBB2002B00F00681844B1B78DBB2B2
:40274000013BDBB2184600F00DF978607B6808337B607B681B78FB707B685B68BB607C4B1B78BB700023FB73E8E0BB681B78BA789A4240F0DD80BB78764AD35CDAB2BB68C9
:402780005B789A4240F0D480BB689B7803F07F037B70BB68DB7803F003033B707A786E4913465B0013449B000B440022DA707A78BB689878684913465B0013449B000B4461
:4027C00002461A717A78BB68D878634913465B0013449B000B4402461A707A78BB6898885D4913465B0013449B000B44083302461A80BB689B78DBB25BB2002B18DA7A7862
:402800003B78012B01D1072000E00D20524913465B0013449B000B4402465A717A784E4913465B0013449B000B4401225A7017E07A783B78012B01D1052000E0092046494E
:4028400013465B0013449B000B4402465A717A78414913465B0013449B000B4400225A703E4A7B781B01134401229A703B4879787A78394C13465B0013449B0023440833A5
:402880001B889BB21B0A9BB2DAB20B0103441A70324879787A78304C13465B0013449B00234408331B889BB2DAB20B0103445A702B4879787A78284C13465B0013449B0023
:4028C0002344DB889BB2DAB20B0103449A71244879787A78204C13465B0013449B002344DB889BB21B0A9BB2DAB20B010344DA711B4879787A78184C13465B0013449B0073
:402900002344DB889BB2DAB20B0103441A71144879787A78104C13465B0013449B002344DB889BB21B0A9BB2DAB20B0103445A71BB680833BB60FB7B0133FB73FA7BFB7829
:402940009A42FFF412AF1437BD4690BD030200208D020020840200200C020020FC5F00407060004080B485B000AF0346FB71104B1B78DBB20F4ADB0013445B68FB60FB6885
:402980001033FB60FB681B78FA799A4202D30023FB6005E0FB79DB00FA6813445B68FB60FB6818461437BD465DF8047B704700BF020200205441000080B400AF054B1B78FE
:4029C000DBB2054ADB0013445B681846BD465DF8047B7047020200205441000080B584B000AF104B1B78DBB2013BDBB21846FFF7B9FFB860BB68002B0DD0BB685B681B793C
:402A0000FB71FB790233DB00BA681344BB60BB685B68FB6001E00023FB60FB6818461037BD4680BD0302002080B582B000AF0023FB71314B1B79DBB203F07F03BB71BB79EE
:402A4000002B53D0BB79082B50D8BA79B9792B480B465B000B449B0003449B78DBB243F00103D8B2254913465B0013449B000B4402469A70BA79214913465B0013449B006B
:402A80000B440022DA70BA79B9791C480B465B000B449B0003445B78DBB243F00203D8B2164913465B0013449B000B4402465A70BA79124913465B0013449B000B441B7916
:402AC000DBB2DBB25BB2002B06DA0D4ABB791B0113448D229A7005E0094ABB791B01134489229A70FFF70AF80346FB71FB7918460837BD4680BD00BF006000400C020020CE
:402B0000FC5F004080B582B000AF0023FB71464B1B79DBB203F07F03BB71BB79002B7DD0BB79082B7AD8BA79B97940480B465B000B449B0003449B78DBB223F00103D8B292
:402B40003A4913465B0013449B000B4402469A70BA79364913465B0013449B000B440022DA70334ABB791B0113447F221A70BA79B9792E480B465B000B449B0003445B789E
:402B8000DBB223F00203D8B2284913465B0013449B000B4402465A70BA79244913465B0013449B000B441B79DBB2DBB25BB2002B18DABA791D4913465B0013449B000B4473
:402BC0005B78DBB2012B06D1194ABB791B0113440C229A701EE0164ABB791B0113440D229A7017E0BA79114913465B0013449B000B445B78DBB2012B06D10D4ABB791B016F
:402C0000134408229A7005E0094ABB791B01134409229A70FEF772FF0346FB71FB7918460837BD4680BD00BF006000400C020020FC5F004080B584B000AF0023FB73154B58
:402C40001B79BB73144B1B78DBB2013BDBB21846FFF788FEB860BB685B681B79FB71BA7BFB799A4202D9BB7B022B0ED8BB7BBA7B0A498A5CD1B20A4AD154BB7B054A92789A
:402C8000D1B2064AD1540123FB73FB7B18461037BD4680BD006000400302002084020020FC01002080B483B000AF0023FB710A4B1B78DBB2DBB25BB2002B06DA064B5B78C4
:402CC000DBB2012B00D000E000BFFB7918460C37BD465DF8047B70470060004080B582B002AF414B01221A70404B00221A70102000F030FE102000F013FF1D20072100F00C
:402D0000CFFF3B4B04221A703A4B00221A703A4B00221A70394A394B1B78DBB243F01803DBB21370364B00221A70364B00221A70354B00221A70354B0A221A70344B00224B
:402D40001A70344B00221A70334B12221A70334B13221A70324B00221A70324B14221A700123009303204FF400414FF40042082300F094FB02230093002049F2DA014FF401
:402D80000042102300F08AFB03230093002049F2DA014FF40042102300F080FB04230093002049F2DA014FF40042102300F076FB1D4A0D4B1B78DBB2013B1C499B000B44A4
:402DC0009B7813701A4A084B1B78DBB2013B174931F823301380044B1B78DBB2184600F059F9BD4680BD00BF2881FF1F6881FF1F96580040975800409E580040075B0040AA
:402E000093580040885B0040895B004080580040815800408358004088580040895800408D580040014E00400E4E00406C81FF1F0C4E004080B582B000AF00F0BCFE034695
:402E4000FB71444B1B78BB71434A434B1B78DBB243F00103DBB213703F4A3F4B1B78DBB243F01003DBB213703C4A3C4B1B78DBB243F00103DBB21370384A384B1B78DBB2F4
:402E800043F01003DBB21370354A354B1B78DBB243F00203DBB21370324A324B1B78DBB243F00203DBB213702F4A2F4B1B78DBB243F00303DBB21370032000F0B7FE284A5E
:402EC000274B1B78DBB223F00203DBB21370254A244B1B78DBB223F00203DBB21370234A224B1B78DBB243F00603DBB21370204B7A221A701F4A1F4B1B78DBB243F00103F1
:402F0000DBB213701C4A1C4B1B78DBB243F00103DBB21370194A194B1B78DBB243F00103DBB21370164A164B1B78DBB243F00103DBB21370134B4FF000521A60124B4FF0F2
:402F400000521A60FB79184600F039FE0837BD4680BD00BF2881FF1FAA430040BA430040F8460040F9460040915800407758004082580040A1430040B1430040A243004051
:402F8000B243004080E200E000E100E080B500AF084B1B78002B09D1074B1B78DBB2002B01D1FFF79BFE034B01221A70FFF742FF80BD00BF6A81FF1F6B81FF1F80B400AFE8
:402FC000054A054B1B78DBB243F00103DBB21370BD465DF8047B7047004E004080B485B000AF0346FB710E4B1B78DBB2002B03D00C4B1B78FB7305E00B4B1B78DBB203F0C5
:403000000103FB73FB7B012B02D0FB79002BEAD0FB7B18461437BD465DF8047B704700BF6981FF1F6881FF1F014E004080B483B000AF124B1B78DBB203F00303FB71104BF4
:403040001B78DBB2BB71FB79022B02D10D4B1B7804E0FB79032B01D10B4B1B780B4B1B78DBB2002B02D00A4B00221A70BB795BB218460C37BD465DF8047B7047144E0040DE
:40308000104E0040114E0040124E00406981FF1F6881FF1F80B582B000AF0346FB71C24B00221A70FB79012B65D1C04B38221A70BF4B04221A70BF4B06221A70BE4B00223A
:4030C0001A70BE4B00221A70BD4B0F221A70BD4B00221A70BC4B00221A70BC4B00221A70BB4B01221A70BB4B14221A70BA4B04221A70BA4B18221A70B94B00221A70B94B09
:4031000011221A70B84B12221A70B84B00221A70B74B01221A70B74B11221A70B64B19221A70B64B97221A70442000F06DFAB44B58221A70B34B00221A70B34B05221A70D3
:40314000B24B02221A70B24B00221A70B14B00221A70002000F02EFBAF4B2A221A602D20012100F03BFBBA20012100F01DFC1D20AA4900F06DFDFB79022B66D18B4B38222E
:403180001A708B4B04221A708A4B06221A708A4B00221A70894B00221A70894B3F221A70884B00221A70884B00221A70874B00221A70874B01221A70864B50221A70864B1F
:4031C00027221A70854B2C221A70854B00221A70844B55221A70844B5A221A70834B05221A70834B01221A70824B11221A70824B19221A70814B97221A70442000F004FABC
:403200007F4B58221A707F4B00221A707E4B05221A707E4B02221A707D4B00221A707D4B00221A70002000F0C5FA7B4B4FF47A421A600820012100F0D1FA2520012100F007
:40324000B3FB1D20764900F003FDFB79032B66D1564B38221A70564B04221A70554B06221A70554B00221A70544B00221A70544B3F221A70534B00221A70534B00221A70FE
:40328000524B00221A70524B01221A70514B50221A70514B27221A70504B2C221A70504B00221A704F4B55221A704F4B5A221A704E4B05221A704E4B01221A704D4B112224
:4032C0001A704D4B19221A704C4B97221A70442000F09AF94A4B58221A704A4B00221A70494B05221A70494B02221A70484B00221A70484B00221A70002000F05BFA464B51
:403300004FF47A421A600820012100F067FA2520012100F049FB1D20424900F099FCFB79042B40F0A880214B38221A70204B04221A70204B06221A701F4B00221A701F4B8E
:4033400000221A701E4B3F221A701E4B00221A701D4B00221A701D4B00221A701C4B01221A701C4B50221A701B4B27221A701B4B2C221A701A4B00221A701A4B55221A70AB
:40338000194B5A221A70194B05221A70184B01221A70184B11221A70174B19221A70174B97221A7044203FE06981FF1F004E0040024E0040034E0040044E0040054E004033
:4033C000064E0040084E0040094E00400A4E0040144E0040845800408558004086580040875800408A5800408B5800408C5800408E5800408F580040905800409158004055
:4034000094580040955800409A5800409B5800409C5800409D58004090020020813600008D3600009936000000F0EEF8134B58221A70134B00221A70124B05221A70124BBD
:4034400002221A70114B00221A70114B00221A70002000F0AFF90F4B4FF47A421A600820012100F0BBF92520012100F09DFA1D20094900F0EDFB0837BD4680BD9458004015
:40348000955800409A5800409B5800409C5800409D58004090020020A536000090B587B000AF0446084611461A462346FB710346BB800B467B801346BB7197F82830002BCE
:4034C00000F08A8097F82830042B00F28580FB79013B092B4AD801A252F823F0053500006D3500006D350000053500006D3500006D3500001F350000393500006D3500005F
:4035000053350000BB790F2B04D9364B1B78DBB2FB752EE0344B1B78DBB2FB7529E0BB790F2B04D9314B1B78DBB2FB7521E0304B1B78DBB2FB751CE0BB790F2B04D92D4B5F
:403540001B78DBB2FB7514E02B4B1B78DBB2FB750FE0BB790F2B04D9284B1B78DBB2FB7507E0274B1B78DBB2FB7502E00023FB7500BFBA8897F917305B0113443B617B88FC
:403580003A6902FB03F3FB60FB68DB0BBB82BB790D2B11D8BB8ABA79C2F10E021341BB8297F82830013BBA790132D1B2154A9B0013440A469A7007E097F82830013B114A57
:4035C0009B0013440F229A7097F82830013B0D49BA8A21F8232002E0002000F0F9FA1C37BD4690BD180100491C010049190100491D0100491A0100491E0100491B0100493A
:403600001F0100496C81FF1F80B584B000AF0346FB7100F0D0FA0346FB73164A154B1B78DBB243F00303DBB21370134A124B1B78DBB243F00303DBB21370104AFB7913703B
:40364000032000F0F3FA0B4A0A4B1B78DBB223F00303DBB21370084A074B1B78DBB223F00303DBB21370FB7B184600F0A8FA1037BD4680BDF8460040F94600409258004056
:4036800080B400AFBD465DF8047B704780B400AFBD465DF8047B704780B400AFBD465DF8047B704780B400AFBD465DF8047B704780B500AF032000F035F880BD80B400AF02
:4036C0000D4A0D4B1B78DBB243F06003DBB213700A4A0A4B1B78DBB243F00803DBB21370074A074B1B78DBB243F00803DBB21370BD465DF8047B704777580040A443004069
:40370000B443004080B500AF054B1B78002B04D1034B01221A70FFF7CBFFFFF7CFFF80BD7C81FF1F80B483B000AF0346FB710C4A0B4B1B78DBB223F00303DBB213700849A3
:40374000074B1B78DAB2FB7903F00303DBB21343DBB20B700C37BD465DF8047B704700BF5E58004080B400AF054B1B78DBB203F040039B09DBB21846BD465DF8047B704754
:403780008F45004080B582B000AF0023FB7106E0FB791846FCF744FFFB790133FB71FB79012BF5D9024BFF221A700837BD4680BD2981FF1F80B582B000AF0346FB71FFF7E0
:4037C000E1FFFB791846FCF70BFF034AFB7913700837BD4680BD00BF2981FF1F80B584B000AF03460A46FB8013467B7100F0CCF80346FB7300F0A2F80346BB81FA88BB891F
:403800009A4200F08780454B1B78DBB203F00103FB72FB7B002B20D1BB89002B02D0FB88002B1AD1BB89002B0BD13D4AFB8813803C4A3C4B1B78DBB223F04003DBB21370BA
:4038400068E0384A374B1B78DBB243F04003DBB21370334AFB8813805CE0FB7A002B33D0314B00221A70314B01221A70304B00221A70304A2F4B1B78DBB203F07F03DBB256
:403880001370284B1B78DBB203F00803002B02D0FB88002B18D1284ABB891380224B07221A7000BF204B1B78DBB203F00103002BF8D11A4A194B1B78DBB223F00103DBB236
:4038C0001370194B00221A70144B1B78DBB203F00103002B13D0184AFB881380124A7B79002B01D0032300E00123137000BF0E4B1B78DBB203F00103002BF8D10AE0084AE1
:40390000FB8813800549054B1B78DAB2FB7A1343DBB20B701037BD4680BD00BFA24300408040004082400040014000401040004014400040084000400240004080B400AFE2
:40394000034B1B889BB21846BD465DF8047B70478040004080B483B000AF0346FB71094B084A1278D2B2D1B2FA7922F00702D2B20A43D2B2D2B21A700C37BD465DF8047B10
:40398000704700BF8240004080B400AF054B1B78DBB203F00703DBB21846BD465DF8047B704700BF8240004080B584B000AF03460A46FB8013467B7100F0CCF80346FB7329
:4039C00000F0A2F80346BB81FA88BB899A4200F08780454B1B78DBB203F00103FB72FB7B002B20D1BB89002B02D0FB88002B1AD1BB89002B0BD13D4AFB8813803C4A3C4BAA
:403A00001B78DBB223F04003DBB2137068E0384A374B1B78DBB243F04003DBB21370334AFB8813805CE0FB7A002B33D0314B00221A70314B01221A70304B00221A70304AAA
:403A40002F4B1B78DBB203F07F03DBB21370284B1B78DBB203F00803002B02D0FB88002B18D1284ABB891380224B07221A7000BF204B1B78DBB203F00103002BF8D11A4A00
:403A8000194B1B78DBB223F00103DBB21370194B00221A70144B1B78DBB203F00103002B13D0184AFB881380124A7B79002B01D0032300E00123137000BF0E4B1B78DBB21E
:403AC00003F00103002BF8D10AE0084AFB8813800549054B1B78DAB2FB7A1343DBB20B701037BD4680BD00BFA14300400041004002410040014000401440004010400040E6
:403B0000084000400240004080B400AF034B1B889BB21846BD465DF8047B70470041004080B483B000AF0346FB71094B084A1278D2B2D1B2FA7922F00702D2B20A43D2B208
:403B4000D2B21A700C37BD465DF8047B704700BF0241004080B400AF054B1B78DBB203F00703DBB21846BD465DF8047B704700BF0241004000000000142816D902B4012116
:403B800014381049097811F0C001890904B40E4A515C04BC00BF00BF00BF8841FDD500BF00BF02BC704700BF00BF70F10400FCD570470B050709EFF3108072B6704780F3F4
:403BC0001088704700480040B23B0000AFF3008080B483B000AF0346FB7101BE0C37BD465DF8047B704700BF80B582B000AF786008E00C4B1B681846FFF7BEFF7B68A3F589
:403C000000437B607B68B3F5004FF2D8064B1B687A6802FB03F31846FFF7AEFF0837BD4680BD00BF3881FF1F3081FF1F80B582B000AF0346FB80FB88044A127802FB03F30C
:403C40001846FFF799FF0837BD4680BD3481FF1F80B584B000AF03463960FB710F4B1B68FB60FB791F2B02D90020FFF7B1FFFB7903F01F0310339B00FA6813441B68BB604B
:403C8000FB7903F01F0310339B00FA6813443A681A60BB6818461037BD4680BD08ED00E080B582B000AF03460A46FB711346BB71BB79072B02D90020FFF78AFFFB791F2BAD
:403CC00002D90020FFF784FFFB7903F01F0303F1604303F56443BA795201D2B21A700837BD4680BD80B483B000AF7860264B1B78DBB21A467B681A60244B1B78DBB21B0296
:403D00007A6812681A437B681A60214B1B78DBB21B047A6812681A437B681A601D4B1B78DBB21B067A6812681A437B681A607B680433194A1278D2B21A60184B1B78DBB265
:403D40001A027B6804337968043109680A431A60134B1B78DBB21A047B6804337968043109680A431A600F4B1B78DBB21A067B6804337968043109680A431A600C37BD4673
:403D80005DF8047B704700BF0301004904010049EC460040020100490101004900010049050100490601004980B582B000AF1A4B1B78DBB203F00303012B02D0022B04D099
:403DC00012E0154B1B79BB7111E0134B1B79DBB203F07F02114913465B0013449B000B4408339B78BB7102E00023BB7100BF0C4B1A68BB7913441B78022B04D1FDF724FA09
:403E00000346FB7102E00023FB7100BFFB7918460837BD4680BD00BF006000400C020020880200200E4B70B51E460E4C0025E41AA410A54204D056F8253098470135F8E7B0
:403E400000F08CF9084B094C1E46E41AA4100025A54204D056F8253098470135F8E770BD6841000068410000684100007041000010B5431E0A44914204D011F8014B03F854
:403E8000014FF8E710BD03460244934202D003F8011BFAE770470000000000005265636F7264696E670000005265636F72646564000000005265706C6179696E67000000B1
:403EC000526561647900000000000000035B00402443004040000000BB001801005100402000405100402000C0510040100000000140001000140140000800400140000A38
:403F0000004C01400002005001402000014500400152004001090140040A0140010B0140011501400217014002190140011B014003400140034101400342014003430140C1
:403F4000024401400145014003460140074701400648014001490140034C0140024D0140015101407E027C40B502B802BE01D804DF011D02EC10EA02EE0AEA02EE0AEC1046
:403F800033813640CC709F01A640A7809F01A640A7809F01A640A7807C01DE01940145089401D00108080B040F40A508B401C20EEC082510AE40AF81C820EA40EE50B510F4
:403FC000A508AC08AF44B508EC08002A4000000000000000C0000000007F7F000000000000000000000041003031323334353637383941424344454600000000120100029C
:4040000002000008B40432F20100010280010000090243000201018032090400000102020103052400100104240202052406000105240100010705810308000A090401008A
:40404000020A000004070582024000000705030240000000040309042C0343007900700072006500730073002000530065006D00690063006F006E00640075006300740045
:404080006F007200100355005300420055004100520054003803430044004300200043006F006D006D0075006E00690063006100740069006F006E00200049006E00740020
:4040C000650072006600610063006500260343004400430020004400610074006100200049006E007400650072006600610063006500000002030000000081030800020089
:404100000100820240000A000100030240000A00020A0000010000001040000003000000F84000000000000000000000000000000000000000000000104100000100000076
:40414000FC3F000000000000000000000100000014410000010000003C410000F8B500BFF8BC08BC9E4670474D000000B5020000F8B500BFF8BC08BC9E4670472900000005
:40418000904100000881FF1F38000000808100000000000000C2010000000800C201000000080000A1200000000002000000000001FF000000366E01C05D0000180000001B
:4041C0000000E02E000000000000000000000000000000000000000000000000000000000000000000000000000000000000000000000000000000000000000000000000B1
:40420000000000000000000000000000000000000000000000000000000000000000000000000000000000000000000000000000000000000000000000000000000000007E
:40424000000000000000000000000000000000000000000000000000000000000000000000000000000000000000000000000000000000000000000000000000000000003E
:4042800000000000000000000000000000000000000000000000000000000000000000000000000000000000000000000000000000000000000000000000000000000000FE
:4042C00000000000000000000000000000000000000000000000000000000000000000000000000000000000000000000000000000000000000000000000000000000000BE
:0200000480007A
:0200000490006A
:0400000000004005B7
:0200000490105A
:04000000BC90ACAF55
:0200000490303A
:0200000083B2C9
:0200000490402A
:4000000000000000000000000000000000000000000000000000000000000000000000000000000000000000000000000000000000000000000000000000000000000000C0
:400040000000000000000000000000000000000000000000000000000000000000000000000000000000000000000000000000000000000000000000000000000000000080
:400080000000000000000000000000000000000000000000000000000000000000000000000000000000000000000000000000000000000000000000000000000000000040
:4000C0000000000000000000000000000000000000000000000000000000000000000000000000000000000000000000000000000000000000000000000000000000000000
:0200000490501A
:0C00000000012E12306900012E29B41BF3
:00000001FF