:400000000080002011000000310900003109000080B500AF024A034B1B68136000F0B6FCBC760040FA46004008000223000008760800032300001076080004230000287667
:4000400008000523000030760500062300002070050007230000307005000823000060700500FE230000707010000A220000305120000B220000505110000C220000C0511D
:400080001000FE220000F05180010E220000000080010F22000000028001102200000008800111220000000A800312220000000C8001132200000018800114220000001A8F
:4000C0008000152200000042800016220000004380001722000000458000FE220000004D070019230000085207001A230000205208001B230000205B08001C230000285B43
:4001000020001D23000070642000FE230000706508001F230000005180002023000000048000212300008004800022230000000680002323000080068000242300000014D9
:400140008000252300008014800026230000001680002723000080161000282300001050100029230000005080002A230000804D80002B230000004C80002C230000804C2E
:4001800080002D230000004780002E230000804780002F23000000468000302300008046800031230000804580003223000000448000332300008044800034230000801B21
:4001C0008000352300000015800036230000801580003723000080198000382300000017800039230000801780003A230000800980003B230000000780003C23000080071B
:4002000080003D230000800B80003E230000000580003F23000080058000402300008003800041230000800F800042230000800180004323000000498000442300008049E8
:400240008000452300000048800046230000804880004723000080438000482300008042800049230000004180004A230000804180004B23000000408000FE2300008040D9
:400280000100000001000000010000000048014001000000004800400100000000200140010000000020004010B5054C237833B9044B13B10448AFF300800123237010BDC4
:4002C000D881FF1F00000000C8550000084B10B51BB108480849AFF300800848036803B910BD074B002BFBD0BDE81040184700BF00000000C8550000DC81FF1F0881FF1FE5
:400300000000000080B400AF024B1B78BD465DF8047B70476565004080B400AF064B1B889BB29AB2054B1A80054B01221A70BD465DF8047B704700BFA25B00408C82FF1F55
:400340002082FF1F80B400AF064B1B889BB29AB2054B1A80054B01221A70BD465DF8047B704700BFA05B00408E82FF1FF481FF1FB0B588B000AF00F0EBFF0020002100F0C6
:40038000F7FF874801F02AF80120002100F0F0FF844801F023F800F02DFE834801F0E8FE00F0FCFE01F0E4F9804801F049FF01F0B3FA7F4801F0E2FB01F07AFB62B601F054
:4003C0002BFC01F00DFD01F0EFFD002000F020FA012000F053FA022000F050FA642002F003F8744B1B78002B67D04FF00003FB61714B1B881BB2184600F020FF7861786904
:4004000002F0D4F904460D463B4618466B4922462B4603F06DFC0023FB761AE0FB7EFA7E0132674931F81210654A22F81310FB7E0133634A32F81330184602F027FD03467B
:40044000F869194602F06EFC0346FB61FB7E0133FB76FB7E122BE1D9574B1B889AB2584BDA84554B1B881BB2184602F00FFD03461846F96902F056FC03461846514902F0AF
:400480000DFE0346FB61F86902F040FF03463B820020052100F06CFF4B4800F09FFF0020052100F065FF3B8A184601F00FF9414B00221A70012001F097FF444B1B78002B4F
:4004C00067D04FF00003FB61414B1B881BB2184601F072FA7861786902F068F904460D463B461846354922462B4603F001FC0023FB761AE0FB7EFA7E0132364931F8121024
:40050000344A22F81310FB7E0133324A32F81330184602F0BBFC0346F869194602F002FC0346FB61FB7E0133FB76FB7E122BE1D9274B1B889AB2274BDA84254B1B881BB226
:40054000184602F0A3FC03461846F96902F0EAFB034618461B4902F0A1FD0346FB61F86902F0D4FE03467B820120052100F000FF154800F033FF0120052100F0F9FE7B8A19
:40058000184601F0A3F8114B00221A70012001F02BFF00F021F8052001F026FF21E700BFD0550000E0550000450300001903000005030000F481FF1F8E82FF1FF055000036
:4005C000F881FF1F0000A041F85500002082FF1F8C82FF1F2482FF1FB0B500AF784B1B881AB2784B1B881BB2D21A774B1B8819B2764B1B881BB2CB1A1344184602F046FCF2
:400600000246734B1A60724B1A68724B1B681046194602F085FB03461C466F4B1A686C4B1B681046194602F085FC03462046194602F078FB03461D46654B1C68654B1B68C5
:400640001846194602F06EFB03462046194602F067FB03461A46614B1B681046194602F061FB03461A465E4B1B681046194602F061FC03462846194602F054FB03461A464C
:40068000584B1B681046194602F054FC0346184602F08CF804460D46534B1B68184602F085F802460B461046194643A3D3E9002302F0D0F802460B462046294601F018FF32
:4006C00002460B461046194602F0D6FA0246474B1A60464B1B68444A13603E4B1B683F4A13603B4B1B683B4A1360414B1B6883F000423E4B1B681046194602F0C3FD0346F8
:40070000002B16D0384B1A68394B1B681046194602F0B8FD0346002B0BD0364B00221A80344B1A88344B1A80344B4FF400721A8041E02E4B1B681846314902F0B7FD0346C8
:40074000002B02D0294B2E4A1A60284B1B6818462C4902F08DFD0346002B02D0234B294A1A60224B1B68184602F0AAFD03469AB2214B1A801D4B1B6883F00043184602F0BD
:400780009FFD03469AB21B4B1A80184B1A681E4B1B681046194602F081FC034618464FF0884102F0BFFA0346184602F0AFFD03469AB2124B1A80B0BD666666666666EE3FEA
:4007C0008E82FF1F8C82FF1F1E81FF1F1C81FF1F4C82FF1F5082FF1F1081FF1F5482FF1F1481FF1F0C81FF1F5C82FF1F5882FF1F2081FF1F6282FF1F6082FF1F6482FF1F91
:4008000000C07F4400C07FC41881FF1FAFF3008080B584B000AF0346FB711023FB73FB7BDB43FB73FB79002B21D1FF2001F044FAFF2001F041FAFE2001F03EFA072001F060
:400840003BFA032001F038FA062001F035FA002001F032FA002001F02FFAFF2001F02CFA032001F029FAFB7B184601F025FA022001F0BAFD1037BD4680BD00BF80B584B076
:4008800000AF0346FB710E23FB73FB7BDB43FB73FB79012B21D1FF2001F0F2FAFF2001F0EFFAFE2001F0ECFA072001F0E9FA032001F0E6FA062001F0E3FA002001F0E0FAE9
:4008C000002001F0DDFA002001F0DAFA002001F0D7FAFB7B184601F0D3FAFB79022B21D1FF2001F0B1FBFF2001F0AEFBFE2001F0ABFB072001F0A8FB032001F0A5FB062065
:4009000001F0A2FB002001F09FFB002001F09CFB002001F099FB002001F096FBFB7B184601F092FB022001F05FFD1037BD4680BD80B400AFFEE700BF80B584B000AF7860D0
:40094000104B1A687B6813441A460F4BD31AB3F5007F09DC0B4B1B68FB600A4B1A687B681344084A136007E002F0F0FC02460C2313604FF0FF33FB60FB6818461037BD461D
:4009800080BD00BF2481FF1F0083FF1F80B586B000AF224B7B61224B3B61204B7B6135E03B691B68FB603B695B68BB603B699B683B6000237B600CE0FB681A68BB681A605D
:4009C000BB680433BB60FB680433FB607B6804337B607A683B689A42EED13B69DB683B6000237B6008E0BB6800221A60BB680433BB607B6804337B607A683B689A42F2D1C3
:400A00003B6910333B617B69013B7B617B69002BC6D102F0A1FCFFF7ABFCFEE701000000AC58000080B582B000AF174B174A1A60174A174B1B6843F40073136000237B60C7
:400A40000FE07B68032B04D8124A7B6852F8233000E0114B11497A6841F822307B6801337B607B682F2BECD90D4B1B78DAB20D4B1A700D4B094A1A6000F040FA0B4B0022A7
:400A80001A600837BD4680BD0CED00E00004FA0514ED00E000000000310900000080FF1FBC7600400481FF1F08ED00E00081FF1F80B584B000AFF860B9607A60F868B9683B
:400AC0007A6802F06FFC1037BD4680BD80B483B000AF0346FB71FEE780B483B000AF434B00221A60424B10221A70424B01221A70414B00221A70414B4FF416721A80404B09
:400B000001221A703F4B03221A703F4B3F4A92B21A803F4B47F608021A803E4B00221A803D4B4FF480421A803C4B09221A703C4B0D221A703B4B18221A703B4B1E221A70F1
:400B4000BFF35F8F394B01221A70BFF35F8F00BF2A4B1B889BB2002BFAD100237B600DE07B68DA00324B13441946324A7B6852F823309BB20B807B6801337B607B684A2BF1
:400B8000EED9BFF35F8F294B01221A70BFF35F8F00BF294B1B78DBB203F00103002BF8D100BF264B1B78DBB203F00103002BF8D100BF234B1B78DBB203F00103002BF8D15C
:400BC00000BF204B1B78DBB203F00103002BF8D100BF1D4B1B78DBB203F00103002BF8D10C37BD465DF8047B704700BF6882FF1F00760040107000401970004000780040FF
:400C00000278004003780040047800402800000006780040047600400676004029700040397000406970004079700040147000400C780040005600001870004028700040A5
:400C400038700040687000407870004080B582B000AF514B00221A80504B50221A70504B29221A804F4B18221A704F4B2E221A804E4B18221A704E4B39221A804D4B182228
:400C80001A704D4B39221A804C4B18221A704C4B39221A804B4B18221A704B4B40F22B121A804A4B19221A70494B43F697221A80484B19221A70484848490422FFF7F8FE38
:400CC000474B02221A704FF0402308221A70454B03221A70444B454A1278D2B21A70444B40F235221A80434B41F251221A800023FB7019237B6014E0FB785B00DAB23E4B6D
:400D00001B78DBB203F00103DBB21343DBB203F00303FB704FF4F07001F04AFB7B68013B7B607B68002B02D0FB78032BE4D17B68002B02D10320FFF7C9FE304B4FF480724E
:400D40001A802E4B07221A702D4B00221A702D4B48221A70294B00221A702B4B02221A702A4B04221A702A4B1B78294BFF221A70284A284B1B78DBB243F00103DBB2137041
:400D8000254A254B1B78DBB263F07F03DBB213700837BD4680BD00BF80400040824000408440004086400040884000408A4000408C4000408E4000409040004092400040B7
:400DC0009440004096400040984000409A4000409C4000409E400040004100402C1600480043004000420040A1460040080100492242004020420040254200400440004063
:400E00000640004008400040014000400B400040A2430040A1430040A043004080B483B000AF264B1B78FB71254B1B78BB71254B1B787B71244AFB7903F00703DBB2137099
:400E4000224AFB791B09DBB213701D4ABB7943F00303DBB213701B4A7B7943F00303DBB213701B4B03221A701A4B40221A701A4B40221A70194B40221A70194B40221A7081
:400E8000184B20221A70184B20221A70174B10221A70174B20221A70164B10221A70094A7B791370064ABB791370134B44221A700C37BD465DF8047B704700BFCF010049A3
:400EC000F8460040F94600406E5800406F5800404D5100400159004003590040095900400B590040205B0040235B0040285B00402B5B0040585B00407658004080B500AFA7
:400F000072B62B4B01221A70FFF7A0FE294A294B1B78DBB243F00403DBB21370FFF7DCFD254B0A221A70254A244B1B78DBB243F00203DBB21370224A214B1B78DBB243F01B
:400F40000203DBB213701F4A1E4B1B78DBB243F04003DBB213701C4A1B4B1B78DBB243F01003DBB21370194819490822FFF7A0FD184819490822FFF79BFD184818490822BD
:400F8000FFF796FD174818490A22FFF791FD174A164B1B78DBB243F00803DBB21370FFF73DFF134807490E22FFF782FD80BD00BF00480040E84600408358004003500140E5
:400FC00013500140A0430040C2430040025100400816004812510040101600482251004018160048405100402016004822430040B043004080B500AF054B1B78002B04D1C4
:4010000000F008F8024B01221A7000F025F880BD7082FF1F80B500AF102001F0F7F80120072101F03DFA0120084901F011FA084A074B1B78DBB243F00603DBB213700C205D
:4010400000F084F8034B00221A8080BDC1120000015900409482FF1F80B582B000AF01F0AFF90346FB712E4A2D4B1B78DBB243F00103DBB213702B4A2A4B1B78DBB243F024
:401080000103DBB21370284A274B1B78DBB243F00203DBB21370254A244B1B78DBB243F00203DBB21370224B1B78BB71BB7943F00203BB71BB7943F00103BB711C4ABB7995
:4010C00013701C4B04221A701B4A1B4B1B78DBB243F04003DBB21370174A174B1B78DBB223F00303DBB21370144BC8221A70144B02221A70134A134B1B78DBB243F00803E0
:40110000DBB213700A2001F091F90F4B02221A60FB79184601F058F90837BD4680BD00BFAB430040BB430040A2430040B24300400359004006590040055900400059004078
:4011400014460040275B004080E200E080B584B000AF0346FB71FB790A2B07D00C2B02D0082B06D008E0C423FB730BE08423FB7308E04423FB7305E0C423FB73002001F02D
:4011800027F900BF044AFB7B1370FB79184600F015F81037BD4680BD0259004080B400AF054A054B1B78DBB243F00103DBB21370BD465DF8047B70470059004080B584B09F
:4011C00000AF0346FB71FB790A2B08D00C2B02D0082B08D00BE04FF48053FB600DE04FF48063FB6009E04FF48073FB6005E00023FB60002001F0ECF800BF0C4B00221A8088
:40120000FB6842F2107202FB03F303F6C413084A82FB0312D212DB17D31A064A1360064B00221A801037BD4680BD00BF9682FF1FAD8BDB689082FF1F9882FF1F90B585B082
:4012400000AF0346FB801A4B1B889BB2002B09D0174B1B889BB21AB213469B0013445B00FB6002E0134B1B68FB60134B1B889BB2FA889BB2D31A9BB2FB80B7F9063018464F
:4012800001F004FE034618460C4901F053FE03461C46F86801F0FAFD03462046194601F0FDFE0346BB60BB6818461437BD4690BD9682FF1F9082FF1F9482FF1F0000204195
:4012C00080B400AFBD465DF8047B704780B500AF282001F089F8032000F0C8F9052001F083F8032000F0C2F90F2001F07DF8032000F0BCF9012001F077F8022000F0B6F90D
:40130000052001F071F8062000F09EF80E2000F09BF82C2000F098F8082000F095F8012000F092F80C2000F08FF8032000F08CF8052001F059F880BD80B500AF0C2000F0E7
:4013400083F8024B01221A7080BD00BF7182FF1F80B500AF054B1B78002B04D1FFF7B6FF024B01221A70FFF7E7FF80BD7282FF1F80B582B000AF03460A46FB711346BB71B4
:40138000FB79032B26D801A252F823F09D130000AB130000B9130000C7130000BB79803BDBB2184600F050F815E0BB79403BDBB2184600F049F80EE0BB796C3BDBB21846F3
:4013C00000F042F807E0BB792C3BDBB2184600F03BF800E000BF0837BD4680BD80B584B000AF78600123FB737B681B78BB730BE0BB7B184600F00EF8FB7B7A6813441B7838
:40140000BB73FB7B0133FB73BB7B002BF0D11037BD4680BD80B584B000AF0346FB7100F02DF8FB791B09FB73FB7B184600F0E2F8FB7903F00F03FB73FB7B184600F0DAF8BA
:401440001037BD4680BD00BF80B584B000AF0346FB7100F013F8FB791B09FB73FB7B184600F004F9FB7903F00F03FB73FB7B184600F0FCF81037BD4680BD00BF80B582B04B
:4014800000AF4FF4CA737B60554A554B1B78DBB223F07F03DBB21370524B1B78DBB223F00F03FB704F4AFB7843F00F03DBB213704D4B1B78DBB223F00F03FB704A4AFB7821
:4014C00013704A4B1B78DBB223F00F03FB70474AFB781370424A424B1B78DBB223F02003DBB213703E4A3E4B1B78DBB243F04003DBB21370002000F099FF394A384B1B7826
:40150000DBB243F01003DBB21370012000F08EFF374B1B78FB70324A314B1B78DBB223F01003DBB21370002000F080FFFB7803F00803FB702A4A2A4B1B78DBB243F01003A2
:40154000DBB21370012000F071FF254A244B1B78DBB223F01003DBB21370FB78002B02D10A2000F063FF7B68013B7B60FB78002B02D07B68002BBDD1194A194B1B78DBB2CC
:4015800023F04003DBB21370154A154B1B78DBB223F07F03DBB21370124A124B1B78DBB223F00F03DBB213700F4B1B78DBB223F00F03FB700C4AFB7843F00F03DBB213700B
:4015C0000A4B1B78DBB223F00F03FB70074AFB7843F00F03DBB213700837BD4680BD00BF205100402251004023510040245100402151004080B582B000AF0346FB711A4AE1
:40160000194B1B78DBB243F02003DBB21370164A154B1B78DBB223F04003DBB21370002000F004FF104A104B1B78DBB223F00F03DBB213700C490C4B1B78DAB2FB791343C8
:40164000DBB243F01003DBB20B70012000F0EEFE054A054B1B78DBB223F01003DBB213700837BD4680BD00BF2051004080B582B000AF0346FB71144A134B1B78DBB223F0F4
:401680006003DBB21370104A0F4B1B78DBB223F00F03DBB213700C490B4B1B78DAB2FB791343DBB243F01003DBB20B70012000F0BDFE054A044B1B78DBB223F01003DBB202
:4016C00013700837BD4680BD2051004080B586B000AF78600A23FB75FB7D07F118021344002203F8102CFB7D013BFB751CE079681E4BA3FB0123DA0813469B0013445B00BA
:40170000CA1AD3B23033BB75FB7D07F118021344BA7D03F8102C7B68144AA2FB0323DB087B60FB7D013BFB757B68092BDFD879680E4BA3FB0123DA0813469B0013445B0026
:40174000CA1AD3B23033BB75FB7D07F118021344BA7D03F8102CFB7D07F1080213441846FFF73CFE1837BD4680BD00BFCDCCCCCC80B500AF054B1B78002B04D100F008F889
:40178000024B01221A7000F025F880BD7382FF1F80B500AF102000F0A1FD0220072100F07FFE0220084900F053FE084A074B1B78DBB243F00603DBB213700C2000F084F81D
:4017C000034B00221A8080BD3D1A0000095900409E82FF1F80B582B000AF00F0F1FD0346FB712E4A2D4B1B78DBB243F00203DBB213702B4A2A4B1B78DBB243F00203DBB29B
:401800001370284A274B1B78DBB243F00403DBB21370254A244B1B78DBB243F00403DBB21370224B1B78BB71BB7943F00203BB71BB7943F00103BB711C4ABB7913701C4BB0
:4018400018221A701B4A1B4B1B78DBB243F04003DBB21370174A174B1B78DBB223F00303DBB21370144BC8221A70144B02221A70134A134B1B78DBB243F00803DBB213701E
:401880000A2000F0D3FD0F4B04221A60FB79184600F09AFD0837BD4680BD00BFAB430040BB430040A2430040B24300400B5900400E5900400D5900400859004016460040B9
:4018C0002F5B004080E200E080B584B000AF0346FB71FB790A2B07D00C2B02D0082B06D008E0C223FB730BE08223FB7308E04223FB7305E0C223FB73002000F069FD00BF1C
:40190000044AFB7B1370FB79184600F015F81037BD4680BD0A59004080B400AF054A054B1B78DBB243F00103DBB21370BD465DF8047B70470859004080B584B000AF0346EE
:40194000FB71FB790A2B08D00C2B02D0082B08D00BE04FF48053FB600DE04FF48063FB6009E04FF48073FB6005E00023FB60002000F02EFD00BF0C4B00221A80FB6842F21B
:40198000107202FB03F303F6C413084A82FB0312D212DB17D31A064A1360064B00221A801037BD4680BD00BF9C82FF1FAD8BDB68A082FF1FA482FF1F90B585B000AF034678
:4019C000FB801A4B1B889BB2002B09D0174B1B889BB21AB213469B0013445B00FB6002E0134B1B68FB60134B1B889BB2FA889BB2D31A9BB2FB80B7F90630184601F046FA8F
:401A0000034618460C4901F095FA03461C46F86801F03CFA03462046194601F03FFB0346BB60BB6818461437BD4690BD9C82FF1FA082FF1F9E82FF1F0000204180B400AF41
:401A4000BD465DF8047B704780B582B000AF632000F05AF8632000F073F800F0B1FC0346FB710A4A094B1B78DBB243F01003DBB21370FB79184600F0A7FC00F071F80120D0
:401A800000F026F80837BD4680BD00BF9565004080B400AF054A054B1B78DBB263F07F03DBB21370BD465DF8047B70477465004080B500AF054B1B78002B04D1FFF7C4FFF2
:401AC000024B01221A70FFF7E3FF80BD7482FF1F80B483B000AF0346FB71044AFB7913700C37BD465DF8047B704700BF8565004080B400AF034B1B78DBB21846BD465DF8F2
:401B0000047B70476565004080B483B000AF0346FB80044AFB8813800C37BD465DF8047B704700BF486A004080B400AF034B1B889BB21846BD465DF8047B7047886A004066
:401B400080B483B000AF0346FB80044AFB8813800C37BD465DF8047B704700BF086A004080B500AF01E0FFF7DFFFFFF7C1FF034603F00803002BF6D180BD00BF80B582B0FA
:401B800000AF786000F03CF8786800F009F8072000F018F800F028F80837BD4680BD00BF80B485B000AF7860054B1B68FB60FB6840337A681A601437BD465DF8047B70470B
:401BC00008ED00E080B483B000AF0346FB71054AFB795B01DBB213700C37BD465DF8047B704700BF00E400E080B400AF034B01221A60BD465DF8047B704700BF00E100E0E6
:401C000080B400AF034B01221A60BD465DF8047B704700BF80E100E080B500AF054B1B78002B04D100F008F8024B01221A7000F01FF880BD7582FF1F80B500AF03200849E6
:401C400000F006FC0320072100F02AFC054B06221A70054B47221A70044B02221A7080BD711D000026650040366500408765004080B582B000AF00F0A3FB0346FB710B4A84
:401C80000A4B1B78DBB243F01003DBB21370084B08221A60074B08221A6000F039FBFB79184600F091FB0837BD4680BD9765004080E200E000E100E080B485B000AF0346DB
:401CC000FB71254B1B78FB73244B1B78BB73FA7BBB7B9A4208D2FA7BBB7B013B9A420CBF01230023DBB207E0FA7BBB7BD31A1A2B0CBF01230023DBB2002BE2D1BA7BFB7B28
:401D00009A420AD1164B1B78DBB203F00403002B03D1144AFB79137018E0FB7B1A2B01D90023FB73FB7B1049FA79CA54FB7B0133FB73094AFB7B1370094B1B78DBB203F0D4
:401D40000203002B02D0094B08221A601437BD465DF8047B704700BF7782FF1F7682FF1F6765004047640040A882FF1F00E200E080B400AF17E0154B1B78DBB21A2B02D929
:401D8000124B00221A70124B104A1278D2B21146104A525CD2B21A700C4B1B78DBB20133DAB20A4B1A70094B1B78DAB20A4B1B789A4206D0094B1B78DBB203F00403002B2C
:401DC000D9D0BD465DF8047B704700BF7682FF1F47640040A882FF1F7782FF1F6765004080B500AF054B1B78002B04D100F008F8024B01221A7000F01FF880BD7982FF1F73
:401E000080B500AF0420084900F022FB0420072100F046FB054B06221A70054B47221A70044B02221A7080BD391F000027650040376500408764004080B582B000AF00F00F
:401E4000BFFA0346FB710B4A0A4B1B78DBB243F01003DBB21370084B10221A60074B10221A6000F06FFAFB79184600F0ADFA0837BD4680BD9764004080E200E000E100E058
:401E800080B485B000AF0346FB71254B1B78FB73244B1B78BB73FA7BBB7B9A4208D2FA7BBB7B013B9A420CBF01230023DBB207E0FA7BBB7BD31A1A2B0CBF01230023DBB28E
:401EC000002BE2D1BA7BFB7B9A420AD1164B1B78DBB203F00403002B03D1144AFB79137018E0FB7B1A2B01D90023FB73FB7B1049FA79CA54FB7B0133FB73094AFB7B1370F1
:401F0000094B1B78DBB203F00203002B02D0094B10221A601437BD465DF8047B704700BF7B82FF1F7A82FF1F6764004044640040C482FF1F00E200E080B400AF17E0154B18
:401F40001B78DBB21A2B02D9124B00221A70124B104A1278D2B21146104A525CD2B21A700C4B1B78DBB20133DAB20A4B1A70094B1B78DAB20A4B1B789A4206D0094B1B78DC
:401F8000DBB203F00403002BD9D0BD465DF8047B704700BF7A82FF1F44640040C482FF1F7B82FF1F6764004080B500AF054B1B78002B04D100F008F8024B01221A7000F04C
:401FC0001FF880BD7D82FF1F80B500AF0520084900F03EFA0520072100F062FA054B06221A70054B47221A70044B02221A7080BD01210000266400403664004086640040E6
:4020000080B582B000AF00F0DBF90346FB710B4A0A4B1B78DBB243F01003DBB21370084B20221A60074B20221A6000F0A5F9FB79184600F0C9F90837BD4680BD9664004009
:4020400080E200E000E100E080B485B000AF0346FB71254B1B78FB73244B1B78BB73FA7BBB7B9A4208D2FA7BBB7B013B9A420CBF01230023DBB207E0FA7BBB7BD31A1A2B68
:402080000CBF01230023DBB2002BE2D1BA7BFB7B9A420AD1164B1B78DBB203F00403002B03D1144AFB79137018E0FB7B1A2B01D90023FB73FB7B1049FA79CA54FB7B01334A
:4020C000FB73094AFB7B1370094B1B78DBB203F00203002B02D0094B20221A601437BD465DF8047B704700BF7F82FF1F7E82FF1F6664004045640040E082FF1F00E200E0A3
:4021000080B400AF17E0154B1B78DBB21A2B02D9124B00221A70124B104A1278D2B21146104A525CD2B21A700C4B1B78DBB20133DAB20A4B1A70094B1B78DAB20A4B1B7879
:402140009A4206D0094B1B78DBB203F00403002BD9D0BD465DF8047B704700BF7E82FF1F45640040E082FF1F7F82FF1F6664004080B582B000AF786000F03CF8786800F08C
:4021800009F8072000F018F800F028F80837BD4680BD00BF80B485B000AF7860054B1B68FB60FB6844337A681A601437BD465DF8047B704708ED00E080B483B000AF034648
:4021C000FB71054AFB795B01DBB213700C37BD465DF8047B704700BF01E400E080B400AF034B02221A60BD465DF8047B704700BF00E100E080B400AF034B02221A60BD4640
:402200005DF8047B704700BF80E100E080B483B000AF0346FB71094B084A1278D2B2D1B2FA7922F00702D2B20A43D2B2D2B21A700C37BD465DF8047B704700BF864000408A
:4022400080B582B000AF786000F03CF8786800F009F8072000F018F800F028F80837BD4680BD00BF80B485B000AF7860054B1B68FB60FB6848337A681A601437BD465DF80B
:40228000047B704708ED00E080B483B000AF0346FB71054AFB795B01DBB213700C37BD465DF8047B704700BF02E400E080B400AF034B04221A60BD465DF8047B704700BFA5
:4022C00000E100E080B400AF034B04221A60BD465DF8047B704700BF80E100E080B483B000AF0346FB71094B084A1278D2B2D1B2FA7922F00702D2B20A43D2B2D2B21A70CB
:402300000C37BD465DF8047B704700BF8A40004080B400AF094A094B1B78DBB243F02003DBB21370064A064B1B78DBB243F02003DBB21370BD465DF8047B7047A243004019
:40234000B243004080B400AF094A094B1B78DBB243F00803DBB21370064A064B1B78DBB243F00803DBB21370BD465DF8047B7047A2430040B243004080B400AF094A094BAF
:402380001B78DBB243F01003DBB21370064A064B1B78DBB243F01003DBB21370BD465DF8047B7047A2430040B2430040000000000230800803D000BF01380046FCD1704759
:4023C000EFF3108072B6704780F31088704700BF80B483B000AF0346FB7101BE0C37BD465DF8047B704700BF80B582B000AF786008E00C4B1B681846FFF7DAFF7B68A3F599
:4024000000437B607B68B3F5004FF2D8064B1B687A6802FB03F31846FFF7CAFF0837BD4680BD00BF3481FF1F2C81FF1F80B582B000AF0346FB80FB88044A127802FB03F310
:402440001846FFF7B5FF0837BD4680BD3081FF1F80B584B000AF03463960FB710F4B1B68FB60FB791F2B02D90020FFF7B1FFFB7903F01F0310339B00FA6813441B68BB604B
:40248000FB7903F01F0310339B00FA6813443A681A60BB6818461037BD4680BD08ED00E080B582B000AF03460A46FB711346BB71BB79072B02D90020FFF78AFFFB791F2BC5
:4024C00002D90020FFF784FFFB7903F01F0303F1604303F56443BA795201D2B21A700837BD4680BD81F0004102E000BF83F0004330B54FEA41044FEA430594EA050F08BF50
:4025000090EA020F1FBF54EA000C55EA020C7FEA645C7FEA655C00F0E2804FEA5454D4EB5555B8BF6D420CDD2C4480EA020281EA030382EA000083EA010180EA020281EA9A
:402540000303362D88BF30BD11F0004F4FEA01314FF4801C4CEA113102D0404261EB410113F0004F4FEA03334CEA133302D0524263EB430394EA050F00F0A780A4F1010450
:40258000D5F1200E0DDB02FA0EFC22FA05F2801841F1000103FA0EF2801843FA05F359410EE0A5F120050EF1200E012A03FA0EFC28BF4CF0020C43FA05F3C01851EBE37121
:4025C00001F0004507D54FF0000EDCF1000C7EEB00006EEB0101B1F5801F1BD3B1F5001F0CD349085FEA30004FEA3C0C04F101044FEA445212F5800F80F09A80BCF1004FD8
:4026000008BF5FEA500C50F1000041EB045141EA050130BD5FEA4C0C404141EB010111F4801FA4F10104E9D191F0000F04BF01460020B1FA81F308BF2033A3F10B03B3F1CD
:4026400020020CDA0C3208DD02F1140CC2F10C0201FA0CF021FA02F10CE002F11402D8BFC2F1200C01FA02F120FA0CFCDCBF41EA0C019040E41AA2BF01EB0451294330BD3F
:402680006FEA04041F3C1CDA0C340EDC04F11404C4F1200220FA04F001FA02F340EA030021FA04F345EA030130BDC4F10C04C4F1200220FA02F001FA04F340EA03002946C7
:4026C00030BD21FA04F0294630BD94F0000F83F4801306BF81F480110134013D4EE77FEA645C18BF7FEA655C29D094EA050F08BF90EA020F05D054EA000C04BF19461046D4
:4027000030BD91EA030F1EBF0021002030BD5FEA545C05D14000494128BF41F0004130BD14F580043CBF01F5801130BD01F0004545F0FE4141F470014FF0000030BD7FEA54
:40274000645C1ABF194610467FEA655C1CBF0B46024650EA013406BF52EA033591EA030F41F4002130BD00BF90F0000F04BF0021704730B54FF4806404F132044FF0000591
:402780004FF0000150E700BF90F0000F04BF0021704730B54FF4806404F1320410F0004548BF40424FF000013EE700BF42004FEAE2014FEA31014FEA02701FBF12F07F437A
:4027C00093F07F4F81F06051704792F0000F14BF93F07F4F704730B54FF4607401F0004521F0004120E700BF50EA010208BF704730B54FF000050AE050EA010208BF704770
:4028000030B511F0004502D5404261EB41014FF4806404F132045FEA915C3FF4DCAE4FF003025FEADC0C18BF03325FEADC0C18BF033202EBDC02C2F1200300FA03FC20FACF
:4028400002F001FA03FE40EA0E0021FA02F11444C1E600BF70B54FF0FF0C4CF4E06C1CEA11541DBF1CEA135594EA0C0F95EA0C0F00F0DEF82C4481EA030621EA4C5123EA24
:402880004C5350EA013518BF52EA033541F4801143F4801338D0A0FB02CE4FF00005E1FB02E506F00042E0FB03E54FF00006E1FB03569CF0000F18BF4EF0010EA4F1FF04E8
:4028C000B6F5007F64F5407404D25FEA4E0E6D4146EB060642EAC62141EA55514FEAC52040EA5E504FEACE2EB4F1FD0C88BFBCF5E06F1ED8BEF1004F08BF5FEA500E50F194
:40290000000041EB045170BD06F0004646EA010140EA020081EA0301B4EB5C04C2BFD4EB0C0541EA045170BD41F480114FF0000E013C00F3AB8014F1360FDEBF002001F07D
:40294000004170BDC4F10004203C35DA0C341BDC04F11404C4F1200500FA05F320FA04F001FA05F240EA020001F0004221F0004110EBD37021FA04F642EB06015EEA430EE4
:4029800008BF20EAD37070BDC4F10C04C4F1200500FA04F320FA05F001FA04F240EA020001F0004110EBD37041F100015EEA430E08BF20EAD37070BDC4F1200500FA05F2D2
:4029C0004EEA020E20FA04F301FA05F243EA020321FA04F001F0004121FA04F220EA020000EBD3705EEA430E08BF20EAD37070BD94F0000F0FD101F00046400041EB0101DC
:402A000011F4801F08BF013CF7D041EA060195F0000F18BF704703F00046520043EB030313F4801F08BF013DF7D043EA0603704794EA0C0F0CEA135518BF95EA0C0F0CD071
:402A400050EA410618BF52EA4306D1D181EA030101F000414FF0000070BD50EA410606BF1046194652EA430619D094EA0C0F02D150EA013613D195EA0C0F05D152EA0336BB
:402A80001CBF104619460AD181EA030101F0004141F0FE4141F470014FF0000070BD41F0FE4141F4780170BD70B54FF0FF0C4CF4E06C1CEA11541DBF1CEA135594EA0C0FF4
:402AC00095EA0C0F00F0A7F8A4EB050481EA030E52EA03354FEA013100F088804FEA03334FF0805545EA131343EA12634FEA022245EA111545EA10654FEA00260EF0004154
:402B00009D4208BF964244F1FD0404F5407402D25B084FEA3202B61A65EB03055B084FEA32024FF480104FF4002CB6EB020E75EB030E22BFB61A754640EA0C005B084FEAF6
:402B40003202B6EB020E75EB030E22BFB61A754640EA5C005B084FEA3202B6EB020E75EB030E22BFB61A754640EA9C005B084FEA3202B6EB020E75EB030E22BFB61A75468B
:402B800040EADC0055EA060E18D04FEA051545EA16754FEA06164FEAC30343EA52734FEAC2025FEA1C1CC0D111F4801F0BD141EA00014FF000004FF0004CB6E711F4801FBB
:402BC00004BF01430020B4F1FD0C88BFBCF5E06F3FF6AFAEB5EB030C04BFB6EB020C5FEA500C50F1000041EB045170BD0EF0004E4EEA113114EB5C04C2BFD4EB0C0541EAD1
:402C0000045170BD41F480114FF0000E013C90E645EA060E8DE60CEA135594EA0C0F08BF95EA0C0F3FF43BAF94EA0C0F0AD150EA01347FF434AF95EA0C0F7FF425AF1046B1
:402C400019462CE795EA0C0F06D152EA03353FF4FDAE1046194622E750EA410618BF52EA43067FF4C5AE50EA41047FF40DAF52EA43057FF4EBAE12E74FEA4102B2F1E04325
:402C800024BFB3F5001CDCF1FE5C0DD901F0004C4FEAC0024CEA5070B2F1004F40EB830008BF20F00100704711F0804F21D113F13872BCBF01F00040704741F480114FEA31
:402CC0005252C2F11802C2F1200C10FA0CF320FA02F018BF40F001004FEAC1234FEAD32303FA0CFC40EA0C0023FA02F34FEA4303CCE77FEA625307D150EA01331EBF4FF01C
:402D0000FE4040F44000704701F0004040F0FE4040F40000704700BF80F0004002E000BF81F0004142001FBF5FEA410392EA030F7FEA226C7FEA236C6AD04FEA1262D2EB10
:402D40001363C1BFD218414048404140B8BF5B42192B88BF704710F0004F40F4000020F07F4018BF404211F0004F41F4000121F07F4118BF494292EA030F3FD0A2F10102FC
:402D800041FA03FC10EB0C00C3F1200301FA03F100F0004302D5494260EB4000B0F5000F13D3B0F1807F06D340084FEA310102F10102FE2A51D2B1F1004F40EBC25008BFF0
:402DC00020F0010040EA03007047490040EB000010F4000FA2F10102EDD1B0FA80FCACF1080CB2EB0C0200FA0CF0AABF00EBC25052421843BCBFD0401843704792F0000F08
:402E000081F4000106BF80F400000132013BB5E74FEA41037FEA226C18BF7FEA236C21D092EA030F04D092F0000F08BF0846704790EA010F1CBF0020704712F07F4F04D104
:402E4000400028BF40F00040704712F100723CBF00F50000704700F0004343F0FE4040F4000070477FEA226216BF08467FEA23630146420206BF5FEA412390EA010F40F49F
:402E8000800070474FF0000304E000BF10F0004348BF40425FEA000C08BF704743F0964301464FF000001CE050EA010208BF70474FF000030AE000BF50EA010208BF704768
:402EC00011F0004302D5404261EB41015FEA010C02BF84460146002043F0B64308BFA3F18053A3F50003BCFA8CF2083AA3EBC25310DB01FA02FC634400FA02FCC2F12002F9
:402F0000BCF1004F20FA02F243EB020008BF20F00100704702F1200201FA02FCC2F1200250EA4C0021FA02F243EB020008BF20EADC7070474FF0FF0C1CEAD0521EBF1CEAF7
:402F4000D15392EA0C0F93EA0C0F6FD01A4480EA010C400218BF5FEA41211ED04FF0006343EA501043EA5111A0FB01310CF00040B1F5000F3EBF490041EAD3715B0040EA82
:402F8000010062F17F02FD2A1DD8B3F1004F40EBC25008BF20F00100704790F0000F0CF0004C08BF49024CEA502040EA51207F3AC2BFD2F1FF0340EAC250704740F4000011
:402FC0004FF00003013A5DDC12F1190FDCBF00F000407047C2F10002410021FA02F1C2F1200200FA02FC5FEA310040F1000053EA4C0308BF20EADC70704792F0000F00F011
:40300000004C02BF400010F4000F013AF9D040EA0C0093F0000F01F0004C02BF490011F4000F013BF9D041EA0C018FE70CEAD15392EA0C0F18BF93EA0C0F0AD030F0004CF0
:4030400018BF31F0004CD8D180EA010000F00040704790F0000F17BF90F0004F084691F0000F91F0004F14D092EA0C0F01D142020FD193EA0C0F03D14B0218BF084608D107
:4030800080EA010000F0004040F0FE4040F40000704740F0FE4040F4400070474FF0FF0C1CEAD0521EBF1CEAD15392EA0C0F93EA0C0F69D0A2EB030280EA010C49024FEA15
:4030C000402037D04FF0805343EA111143EA10130CF000408B4238BF5B0042F17D024FF4000C8B4224BF5B1A40EA0C00B3EB510F24BFA3EB510340EA5C00B3EB910F24BF97
:40310000A3EB910340EA9C00B3EBD10F24BFA3EBD10340EADC001B0118BF5FEA1C1CE0D1FD2A3FF650AF8B4240EBC25008BF20F0010070470CF0004C4CEA50207F32C2BFA5
:40314000D2F1FF0340EAC250704740F400004FF00003013A37E792F0000F00F0004C02BF400010F4000F013AF9D040EA0C0093F0000F01F0004C02BF490011F4000F013B84
:40318000F9D041EA0C0195E70CEAD15392EA0C0F08D142027FF47DAF93EA0C0F7FF470AF084676E793EA0C0F04D14B023FF44CAF08466EE730F0004C18BF31F0004CCAD17A
:4031C00030F000427FF45CAF31F000437FF43CAF5FE700BF4FF0FF3C06E000BF4FF0010C02E000BF4FF0010C4DF804CD4FEA40024FEA41037FEA226C18BF7FEA236C11D01B
:4032000001B052EA530C18BF90EA010F58BFB2EB030088BFC81738BF6FEAE17018BF40F0010070477FEA226C02D15FEA402C05D17FEA236CE4D15FEA412CE1D05DF8040BD7
:40324000704700BF844608466146FFE70FB5FFF7C9FF002848BF10F1000F0FBD4DF808EDFFF7F4FF0CBF012000205DF808FB00BF4DF808EDFFF7EAFF34BF012000205DF8BE
:4032800008FB00BF4DF808EDFFF7E0FF94BF012000205DF808FB00BF4DF808EDFFF7D2FF94BF012000205DF808FB00BF4DF808EDFFF7C8FF34BF012000205DF808FB00BFA4
:4032C0004FEA4002B2F1FE4F0FD34FF09E03B3EB12620DD94FEA002343F0004310F0004F23FA02F018BF404270474FF00000704712F1610F01D1420205D110F0004008BF0D
:403300006FF0004070474FF00000704742000ED2B2F1FE4F0BD34FF09E03B3EB126209D44FEA002343F0004323FA02F070474FF00000704712F1610F01D1420202D14FF059
:40334000FF3070474FF00000704700BF014B1868704700BF9881FF1F0E4B70B51E460E4C0025E41AA410A54204D056F8253098470135F8E702F088FA084B094C1E46E41A56
:40338000A4100025A54204D056F8253098470135F8E770BD9458000094580000945800009C58000010B5431E0A44914204D011F8014B03F8014FF8E710BD03460244934232
:4033C00002D003F8011BFAE770472DE9F0471E4688B0149F002BB8BF06F10043129927F02007B6BF1E4600232D23462F1446109DDDF84CA00B7003D0452F03D1013501E0B5
:40340000032300E002238DE8280406AB039307AB04932246334600F023FD472F804602D1119BDB0726D5462F08EB050911D198F80030302B0AD1204631460022002302F045
:4034400069F818B9C5F10105CAF80050DAF800309944204631460022002302F05BF808B1CDF81C90079B4B4504D25A1C079230221A70F7E74046079B159AC8EB0303136008
:4034800008B0BDE8F087034673B50029B8BF494203F8022BB4BF2D222B22092942701ADD0DF1070426460A2291FBF2F502FB1511092D01F1300104F8011D2946F3DC303141
:4034C000651E04F8011CB5421A460AD215F8012B03F8012BF7E71A463024214402F8024B5970101A02B070BD2DE9F04F91B08B4615461E461A9F044601F06EFAD0F800A0A3
:40350000504600F019FC00230E933B680990073323F0070303F108029BF818803A60D3E90023CBE91223DBE9120100F0B9FB0128DBE9120119D10022002301F0F5FF10B1BE
:403540002D238BF84330A04BA04FB8F1470F88BF1F460323CBF81030DBF8003023F00403CBF800304FF00009A1E000F099FBDBF8003048B9964A974FB8F1470F88BF17468D
:403580000322CBF81020E9E7DBF80420DBE91201571CCDE90A0101D1062209E0B8F1670F02D0B8F1470F05D1002A40F0C7810122CBF80420DBF8042043F480638DE80C003A
:4035C000CBF800300DF1330302930DAB03930EAB059300230693CDF81080DDE90A232046FFF7F3FE08F0DF03472B07460AD10D9BD81C03DBDBF80420934237DDA8F10208AE
:403600005FFA88F8B8F1650F0D9915D8013942460BF150000D91FFF736FF0E9A81468318012ACBF8103003DCDBF80020D10738D50133CBF8103034E0B8F1660F18D10029C0
:40364000DBF8043009DDCBF810101BB9DBF80020D20721D501330B441CE01BB9DBF80020D00701D5023315E0012313E04FF067080D9B0E9A934207DBDBF80020CBF8103005
:40368000D10709D5013305E0002BD4BFC3F1020301231344CBF810300D9B4FF00009CBF858309DF8333013B12D238BF843300096204659460FAA2B4600F05CF9013002D1FB
:4036C0004FF0FF3052E1DBF800305A0505D4204629463A46DBF8103008E1B8F1650F40F2D080DBE912010022002301F013FF50B320462946384A0123B0470130E0D00E9BE0
:403700000D9A9A4209DBDBF80030D80705D4DBF800309F0700F1108107E1204629465246099BB0470130CBD000270E9B013B9F42EDDA204629460BF11A020123B047013093
:40374000BED00137F1E70D9B002B29DC20462946214A0123B0470130B2D00D9B2BB90E9B1BB9DBF80030D907D1D5204629465246099BB0470130A3D04FF000080D9B204632
:403780005B429845294608DA0BF11A020123B047013095D008F10108F0E73A460E9BA5E0DBF858200E9B9A42A8BF1A46002A914602DC4FF000081CE0204629463A464B464F
:4037C000B0470130F5D17BE7325700002E5700003A570000365700003E570000204629460BF11A020123B04701303FF469AF08F10108DBF85830B9F1000FB4BF1A46C9EB97
:4038000003029045EADB07EB03080D9A0E9B9A4210DBDBF80030DA070CD40E9A1744C8EB07030D9FD21B9342A8BF1346002B1F4608DC0EE0204629465246099BB047013088
:40384000EBD13DE7204629464246B04701303FF437AF4FF000080AE0204629460BF11A020123B04701303FF42BAF08F101080D9A0E9B002FA3EB0203A8BFDB1B9845EBDB3F
:4038800045E70E9A012A01DCDB0736D5204629463A460123B04701303FF412AF204629465246099BB04701303FF40AAFDBE912010022002301F02EFEE8B90E9B204629462D
:4038C0007A1C013B1DE0204629460BF11A020123B04701303FF4F4AE01370E9B013B9F42F1DB204629464B460BF15002B04701307FF40DAFE4E60027EFE7204629463A46FA
:403900000123B0470130ECD1DAE6204629460BF119020123B04701303FF4D2AE0137DBF80C300F9A9B1A9F42EFDBDBF80C000F9B9842B8BF184619E00027F0E743F480633A
:403940008DE80C00CBF800300DF1330302930DAB03930EAB059300230693CDF810802046DDE90A23FFF731FD074640E611B0BDE8F08F00BF2DE9F84391461F468A680B69D3
:4039800006469342B8BF1346C9F8003091F843200C46DDF8208012B10133C9F800302368990642BFD9F800300233C9F80030256815F006051CD094F843302268003318BF1C
:4039C000012392061FD5E118302081F843005A1C94F845102244023382F8431013E03046394604F119020123C047013007D00135E368D9F800209B1A9D42F0DBDBE74FF056
:403A0000FF30BDE8F8833046394604F14302C0470130F4D02268D9F80050E36802F00602042A08BF5D1B2269A3680CBF25EAE57500259342C4BF9B1AED184FF00009A94578
:403A40000ADA3046394604F11A020123C0470130D5D009F10109F2E70020BDE8F88300002DE9FF410C461746227E98466E2A06460A9B01F1430100F0B08012D8632A23D072
:403A80000AD8002A00F0BD80582A40F0CC8084F84520DFF804E257E0642A1ED0692A1CD0C1E0732A00F0B18009D86F2A2ED0702A40F0B980226842F0200222603FE0752A07
:403AC00024D0782A3BD0AEE01A6804F14205111D1960136884F84230A9E020681A6810F0800F02D0101D186008E010F0400F02F10400186002D0B2F9003000E01368002B57
:403B00003EDA2D225B4284F8432039E020681A6810F0800F02D0101D186007E010F0400F02F10400186001D0138800E01368227EDFF864E16F2A0CBF08220A221CE0782201
:403B4000DFF858E184F845202268186812F0800F00F104051D6003D1550601D5038800E00368D00744BF42F0200222601BB9226822F0200222601022002084F8430002E0B0
:403B8000DFF814E10A226568002DA8BF2068A560A4BF20F00400206003B965B10D46B3FBF2F002FB10331EF8033005F8013D03460028F4D100E00D46082A0BD12368DA07CC
:403BC00008D5236962689A42DEBF302305F8013C05F1FF35491B21612EE025681A6815F0800F606903D0151D1D60136808E015F0400F02F104051D60136801D0188000E08C
:403C00001860002323610D4616E01A68111D1960156800212846626800F0EAFE08B1401B6060636804E004F1420584F8422001232361002384F84330CDF8008030462146CC
:403C400003AA3B46FFF796FE013002D14FF0FF301FE0304639462A462369C0470130F5D023689B0705D4E068039B9842B8BF18460FE00025E368039A9B1A9D42F3DA3046BF
:403C8000394604F119020123C0470130DED00135F0E704B0BDE8F081405700005157000031F0004310B51BD00F4AA1F58014944210D901F1FF410C4A01F5E001914209D9EB
:403CC000B3F5801F08D3094A934207D1B0FA80F0400910BD042010BD032010BD002010BD0028E6D1022010BDFFFFDF7F0000F07F0EB400B54FF402719CB0ADF814106FF06A
:403D00000041049107914FF6FF711DABADF81610084953F8042B02900690086802A9019301F054FA029B00221A701CB05DF804EB03B070479881FF1F034613F8012B002A48
:403D4000FBD1181A013870472DE9F74F03690C698046A3427EDB013C01F114074FEA840E00F1140606EB0E0357F82450019356F824300135B3FBF5F507EB0E09BDB34FF073
:403D8000000A3846B446D34650F8043B9AB21B0C02FB05A26B4303EB124392B2C2EB0B0BBCF800204FEA134A5A441FFA83FBDCF800304845CBEB134303EB224392B242EAD3
:403DC00003424FEA234B4CF8042BDDD956F80E306BB9019B043BB3421A4602D8C8F8104005E01268043B002AF8D1013CF3E7404601F01DF800282BDB304601354FF0000E89
:403E000057F8042B036891B2C1EB0E0E120C99B27144C2EB134303EB214389B24FEA234E4F4541EA034340F8043BE9D956F8242006EB840362B9043BB3421A4602D8C8F8A5
:403E4000104005E01268043B002AF8D1013CF3E7284600E0002003B0BDE8F08F000000002DE9F04F456A95B08246219CCDE9022345B9102000F0B4FDCAF82400456085601D
:403E80000560C560DAF82430196859B15A68012393404A608B60504600F0EDFDDAF8243000221A60039BA24A002BBDBF01232360039B0023BCBF23F000430393039FA8BF3E
:403EC000236027F000431B0D1B0593421DD142F20F73209A1360029B43B9964A964BC7F31300002814BF1846104600E09248229B002B00F06985C37813B100F1080300E0C6
:403F0000C31C229A136000F05FBDDDE90245002220462946002301F0FDFA804658B1209A01231360229B002B00F03C8583481860013800F049BD13AB009312AB01935046F5
:403F400022462B4600F0EEFFC7F30A5607905EB1C5F3130343F07F51204641F44011A6F2FF36CDF844801DE0139B129E1E446FF482639E42A1BF029A06F2124322FA03F07B
:403F80006F4BB7BF6F4B9B1B029A9B1BAABF9F4002FA03F03843FEF7E7FB0123A1F1F871013E11930022684BFEF7A0FA5AA3D3E90023FEF74FFC5AA3D3E90023FEF798FAA1
:403FC000044630460D46FEF7DFFB57A3D3E90023FEF740FC02460B4620462946FEF788FA04460D4601F0C8FA2946834600222046002301F099FA58B15846FEF7C5FB024695
:404000000B462046294601F085FA08B90BF1FF3BBBF1160F0DD84D4B03EBCB03D3E90001DDE9022301F09EFA30B10BF1FF3B002300E00123109300E01090129B9E1B731E60
:404040000A9345BF5B420993002300234CBF0A930993BBF1000F07DB0A9BCDF834B05B440A9300230B9308E0099BCBEB03030993CBF100030B9300230D931E9B092B29D802
:40408000052BC4BF043B1E931E9BC8BF0025A3F10203D8BF0125032B21D8DFE803F0020E0410002300E001230C931F9B002B20DC0123069305931A4619E0002300E0012321
:4040C0000C931F9B5B4406930133012B0593B8BF012311E0012500231E930C9501E001230C934FF0FF3306930593002212231F9202E01F9B06930593DAF8244000226260DB
:40410000042101F114029A4222D86268490001326260F6E7AFF3008061436F63A787D23FB3C8608B288AC63FFB799F501344D33F0000F07F625700006B5700003F57000057
:404140000EFCFFFFEEFBFFFF0000F83F785700005046616800F05AFCDAF8243020601B680893059B0E2B00F24781002D00F04481DDE90223BBF1000FCDE90E2331DDB14AD6
:404180000BF00F034FEA2B1602EBC303F006D3E900450CD5DDE90E01AB4B06F00F06D3E90823FEF781FC0327CDE9020100E00227DFF8948276B1F10708D5D8E9002320469F
:4041C0002946FEF747FB04460D460137761008F10808EFE7DDE9020122462B46FEF764FC1BE0CBF10004DCB1DDE90E01954B04F00F0203EBC203D3E90023FEF72BFB924D5A
:40420000241102274CB1E20704D5D5E900230137FEF720FB64100835F4E7CDE9020100E00227109BDBB1DDE90245002220462946864B01F079F990B1059B83B1069B002B9A
:4042400040F3D680294620460022814BFEF702FB0BF1FF36CDE902010137069D01E05E46059D3846DDE90289FEF78EFA42464B46FEF7F0FA774B0022FEF73AF9CDE902010B
:40428000039BA3F150740394CDB9404649460022714BFEF72BF9029A23468046894601F061F9002840F0408240464946029A04F1004301F039F9002840F0308298E0614BA6
:4042C0000C996A1E03EBC203002947D0D3E9002300206249FEF7E8FBDDE90223FEF706F9CDE90201089C4946404601F045F90746FEF74AFA02460B4640464946FEF7F6F885
:40430000DDE90223303704F8017B8046894601F00BF9002840F0378342464B4600204B49FEF7E4F8DDE9022301F0FEF8002840F0D080089BE31AAB425ADADDE90201002253
:40434000434BFEF787FA0022CDE90201404B40464946FEF77FFA80468946C4E7D3E90001DDE90223FEF776FA089BCDE902015C191D464946404601F0FFF80746FEF704FA92
:4043800002460B4640464946FEF7B0F8303705F8017BA5428046894623D100222F4BDDE90201FEF7A5F802460B464046494601F0D9F8002840F08D80DDE90223002027491B
:4043C000FEF794F802460B464046494601F0ACF870B114F8013C621E302B40F0D4821446F7E700221A4BFEF735FA80468946C0E7DDE90E23CDE90223139B002BC0F28A80A8
:40440000BBF10E0F00F386800E4B03EBCB03D3E900671F9B002B23DA059B002B20DC40F07C81304600220C4B3946FEF713FADDE9022301F08DF8059D2E46002840F06F817D
:4044400074E100BF78570000405800000000F03F0000244000001C40000014400000E03F089CDDE9028932463B4640464946FEF71BFB01F081F80546FEF786F932463B462F
:40448000FEF7E8F90B46024649464046FEF72EF805F1300E089B04F801EBC3EB040E059B9E452AD102460B46FEF722F832463B468046894601F056F870B940464946324635
:4044C0003B4601F027F8002800F05E82EB0703D45AE2B34600E01C4614F8012C631E392A07D1089A9342F6D13023137013460BF1010B1A7801321A7046E20022A34BFEF70D
:40450000A9F9002200238046894601F003F80028A9D039E20C9A002A32D01E9A012A0ADC119A12B103F2334302E0129BC3F136030B9D099C18E0059B5D1E0B9BAB42B7BFFE
:404540000B9B5D1BEA1A0D9BBEBF0B959B180D93059BB8BF0025002BB9BF099B059A099C059BBCBF9C1A0023099A50461A4409920A9A01211A440A9200F01FFB064602E01C
:404580000B9D099C0C9E64B10A9B002B09DDA342A8BF2346099AE41AD21A09920A9AD31A0A930B9B002B20DD0C9BC3B1002D10DD31462A46504600F099FB0646079A3146C6
:4045C000504600F003FB07460799504600F053FA07970B9B5A1B08D05046079902E0504607990B9A00F082FB07905046012100F0E4FA0D9B0546002B0ADD29461A465046FF
:4046000000F074FB1E9B0546012B04DD00271BE01E9B012B13DC029B8BB9039BC3F313037BB9039B23F000473F0D3F0557B1099B0127013309930A9B01330A9302E00027EA
:4046400000E0029F0D9B43B12B6905EB8303186900F066FAC0F1200000E001200A9B184410F01F0008D0C0F12003042B02DDC0F11C0002E008D018461C30099B0444034432
:4046800009930A9B03440A93099B002B05DD504607991A4600F078FB07900A9B002B05DD294650461A4600F06FFB0546109BEBB10798294600F0BBFB002817DA002350460B
:4046C00007990A2200F0EEF90C9B0BF1FF3B0790002B00F06B813146002350460A2200F0E1F9069B0646002B33DC68E1059B002B26DC1E9B022B23DD059B0693069B73B94D
:4047000029460522504600F0CDF905460798294600F08DFB002809DC01E000252E461F9B089C6FEA030B08E0B3462E46089B089A5C1C312313700BF1010BB14600260FE17C
:404740000C9B23B9059B0693089F079CC9E0059B0693002C05DD31465046224600F014FB0646AFB17168504600F050F90446326906F10C01023292000C30FEF713FE5046F4
:404780002146012200F000FB814602E000002440B146089F079C29462046FFF7D5FA3146099000F13008204600F041FB4A4605902946504600F057FBC26803463AB91946A0
:4047C0002046079300F033FB079B024600E0012250461946079200F04EF9079A92B91E9B83B9029B03F0010363B9B8F1390F3B4607943ED0059B7C1C002BC4BF099B03F1BF
:4048000031083DE0059B002B04DA002AC446079408DC21E024D11E9B13BB029B03F00103F3B9F2E72146012250460597CDF8088000F0AAFA2946079000F0F9FA0028DDF8AD
:4048400008C0059B03DC07D118F0010F04D0B8F1390F0ED008F1010C7C1C87F800C07FE0002A07F101020EDDB8F1390F3B46079403D1392201371A7057E0144608F1010881
:4048800087F800806CE0089B1746D31A02F8018C069A93423AD021460A220023504600F001F94E450446314650464FF00A024FF0000304D100F0F6F8064681466BE700F005
:4048C000F1F8494606460A225046002300F0EAF8814660E7214650460A22002300F0E2F8044620462946FFF72FFA089B00F1300807F8018B069AFB1A9342EBDB089BB1469A
:40490000012AACBF9B1801331F46002621460122504600F039FA2946079000F088FA002803DC15D118F0010F12D03C4614F8013C621E392B09D1089B9A4204D10BF1010BE8
:404940003123089A02E01446F0E70133137007E03C4614F8013C621E302B01D11446F8E75046294600F087F8B9F1000F0CD02EB14E4503D05046314600F07DF850464946FA
:4049800000F079F800E0B3465046079900F073F80023209A23700BF101031360229B1BB11C6001E00A480FE008980DE0069B002B3FF7CAAE1E9B022B3FF7A0AEC4E61E9B4E
:4049C000022B3FF79BAEC4E615B0BDE8F08F00BF3E570000AFF30080004870479C81FF1F024B0146186800F041BB00BF9881FF1F10B5C9B202449042034605D01C78013097
:404A00008C42F8D1184610BD002010BD70B5456A04460E463DB91020FFF7E2FF6062456085600560C560656AEB6843B1636ADB6853F8260078B1026843F8262017E020467A
:404A40000421212200F0C0FA636AE860DB68002BECD1002070BD012101FA06F56A1D2046920000F0B1FA0028F3D04660856000230361C36070BD70B5446A06460D463CB9B1
:404A80001020FFF7ADFF7062446084600460C4603DB1736A6A68DB6853F82210296043F8225070BD2DE9F04106460C460F69984601F1140E0023DEF80000013385B2010CC2
:404AC00002FB0585514301EB1541ADB24FEA1148BB4205EB01414EF8041BECDBB8F1000F1BD0A3689F4212DB616830460131FFF78DFF0546226904F10C01023292000C30C4
:404B0000FEF750FC21463046FFF7B5FF2C4604EB87030137C3F8148027612046BDE8F081030C1B0413B90004102300E0002310F07F4F04BF0002083310F0704F04BF0001B2
:404B4000043310F0404F04BF80000233002803DB420003D5581C70471846704720207047036813F007020BD0D90722D49A074BBF5B089B08036003604CBF012002207047FC
:404B800099B209B91B0C102213F0FF0F04BF1B0A0832190704BF1B090432990704BF9B080232D90702D45B0805D00132036010467047002070472020704710B50C4601214D
:404BC000FFF724FF01224461026110BD2DE9F74F14460A69236988469A42BEBF0B46A0461C46D8F81070D4F81090D8F80830D8F8041007EB09069E42C8BF0131FFF706FFF2
:404C000000F114052B4605EB860C634503D2002243F8042BF9E704F1140208F1140102EB890301EB87070093009B01929A4257D2B2F800B0BBF1000F23D08946AE464FF0B2
:404C4000000859F8044BBEF800A0A3B20BFB03A34FEA144ADEF8004043444FEA14480BFB0A84F24604EB13449BB243EA04434F454FEA14484AF8043B01D9D646E1E7CEF86B
:404C80000480019B0432B3F802A0BAF1000F21D02C4689462B684FF00008B9F800E0B4F802B09BB20AFB0EBEA346F04443EA08434BF8043B59F8043BB4F804E01B0C0AFB1B
:404CC00003E3B94503EB18434FEA134801D25C46E3E763600435A7E75CF8043D13B9013E002EF9DC066103B0BDE8F08F12F003032DE9F04106460F46154607D0214A013B80
:404D000052F823200023FFF7CDFE0746AD1035D0746A3CB91020FFF763FE7062446084600460C460D6F82480D8F808407CB9304640F27121FFF741FF0023C8F80800044653
:404D4000036004E06D1019D0206870B10446EB07F8D5394622463046FFF738FF804639463046FFF788FE4746ECE7304621462246FFF72CFF002320600360E7E73846BDE856
:404D8000F08100BF685800002DE9F0470C460746164623694FEA621A0AEB03094968A36809F101059D4202DD01315B00FAE73846FFF72CFE804600F114010023534504DA8E
:404DC000002241F823200133F8E72AEAEA73206901EB830316F01F0204F1140101EB800E14D0C2F1200C00200E689A469640304343F8040B51F8040B714520FA0CF0F3D335
:404E0000CAF8040048B109F1020506E0043B51F8042B714543F8042FF9D3013D3846C8F810502146FFF727FE4046BDE8F08703690A6910B59B1A11D1920014301431831834
:404E40000A4453F8044D52F8041D8C4202D007D3012010BD8342F4D8002010BD184610BD4FF0FF3010BD2DE9F84307460C46084611461546FFF7DBFF061E08D138463146DF
:404E8000FFF7C4FD012303614661BDE8F883BCBF23462C4638466168BABF1D4601260026FFF7B4FD2B69C660266905F1140904F1140101EB860709EB830800F114054FF0D8
:404EC000000C51F8042B59F8044B93B29C44A3B2240CC3EB0C03C4EB124202EB23429BB24FEA224CC84543EA02428E4645F8042BE7D8BE450ED25EF8043B9AB262441B0CD0
:404F000003EB224392B242EA03424FEA234C45F8042BEEE755F8043D0BB9013EFAE70661BDE8F8832DE9F3411C4601211546089F099EFFF76BFDC4F31302C4F30A5480460B
:404F40000CB142F480120192EDB102A840F8085DFFF706FE009B50B1019AC0F1200102FA01F10B43C240C8F81430019201E0C8F81430019B002B14BF02250125C8F8183088
:404F8000C8F8105009E001A8FFF7EAFD019B0125C8F81430C8F81050203034B1A4F2334404443C60C0F1350009E0A0F2324008EB850338601869FFF7B3FDC0EB45103060B9
:404FC000404602B0BDE8F08138B502FB01F4214600F04CF8054618B100212246FEF7EDF9284638BD30B500293CD051F8042C0B1F1D49002AB8BF9B180A680C4612B95A604E
:405000000B6030BD93420DD219685818904201BF5A5852181A60426823605A6030BD994203D80A4651680029F9D1146815199D420AD11B682344D0188842136012D10868FF
:40504000034413604B680CE002D90C23036030BD1C681819884201BF08684968001918605960536030BD00BF8882FF1F70B5CC1C24F0030408340C2C38BF0C24002C064611
:4050800003DA0C233360002070BD8C42F9D3204A136810461946A1B10A68121B0ED40B2A03D90A608B188C501FE08B420BBF5A684A6802605A6018BF0B4616E00B464968BD
:4050C000E9E7144D2B681BB9304600F071F928603046214600F06CF9421C0346D1D0C51C25F0030585420AD11C6003F10B001A1D20F00700821A0AD05142995070BD304648
:40510000E91A00F055F90130BBD02B46ECE770BD8882FF1F8482FF1F2DE9F0478E688246B3420C469046994640D38A8912F4906F3AD02568096902236F1A656905EB4505C4
:4051400095FBF3F57B1C4B449D4238BF1D4653050FD52946FFF78AFF064698B121693A46FEF720F9A38923F4906343F08003A38113E02A4600F047F9064670B95046216949
:40518000FFF730FF0C23CAF80030A3894FF0FF3043F04003A381BDE8F08726613E4426604E466561ED1BA560B14500D24E4632462068414600F00CF9A36800209B1BA360A7
:4051C00023681E442660BDE8F08700002DE9F0439DB003938B8906461C060D4690460CD50B6953B94021FFF741FF2860286110B90C233360CCE040236B61002309932023D8
:405200008DF8293030238DF82A3043461C4613F8012B1AB9B4EB08090FD002E0252AF5D1F8E73046294642464B46FFF775FF013000F0A980099B4B4409932378002B00F0CD
:40524000A28000234FF0FF3204930793059206938DF853301A9304F101084446DFF84891217848460522FFF7C3FB08F10108049B30B1C9EB00000122824013430493ECE74E
:40528000D80644BF20228DF85320190744BF2B228DF8532022782A2A02D0079923460EE0039A0134111D12680391002ABBBF524243F0020307920792B8BF04930AE01C46AA
:4052C00022780133303A092A03D80A2000FB0121F5E7079123782E2B1AD163782A2B0AD1039B02341A1D1B680392002BB8BF4FF0FF3305930CE0611C00220C46237801314B
:40530000303B092B03D80A2000FB0232F5E70592DFF89880217840460322FFF769FB38B1049AC8EB00004023834013430493013421781A48062204F101088DF82810FFF744
:4053400057FB88B1164B33B9039B073323F007030833039313E003AB0093304604A92A46104BFEF7C1F807E003AB0093304604A92A460C4BFEF774FB421C074603D0099B27
:405380003B44099341E7AB895B0601D4099801E04FF0FF301DB0BDE8F08300BF7E580000E934000019510000745800007A58000038B5064C0023054608462360FBF7BCFA8B
:4053C000431C02D1236803B12B6038BDFC82FF1F814210B501EB020301D3421E0BE09842FBD28118D21AD34204D013F8014D01F8014DF8E710BD994204D011F8014B02F829
:40540000014FF8E710BDF8B5074615460E4621B91146BDE8F840FFF729BE1AB9FFF7E2FD2846F8BD00F015F8A8420ED238462946FFF71CFE044650B131462A46FDF7B2FF76
:4054400038463146FFF7CEFD01E03046F8BD2046F8BD51F8040C0028BEBF091851F8043CC0180438704700004FF0FF3C06E000BF4FF0010C02E000BF4FF0010C4DF804CD6E
:405480004FEA410C7FEA6C5C4FEA430C18BF7FEA6C5C1BD001B050EA410C0CBF52EA430C91EA030F02BF90EA020F0020704710F1000F91EA030F58BF994208BF90422CBF69
:4054C000D8176FEAE37040F0010070474FEA410C7FEA6C5C02D150EA013C07D14FEA430C7FEA6C5CD6D152EA033CD3D05DF8040B704700BF8446104662468C461946634656
:4055000000E000BF01B5FFF7B7FF002848BF10F1000F01BD4DF808EDFFF7F4FF0CBF012000205DF808FB00BF4DF808EDFFF7EAFF34BF012000205DF808FB00BF4DF808ED89
:40554000FFF7E0FF94BF012000205DF808FB00BF4DF808EDFFF7CEFF94BF012000205DF808FB00BF4DF808EDFFF7C4FF34BF012000205DF808FB00BF4FEA410212F5001230
:4055800015D211D56FF47873B3EB625212D94FEAC12343F0004343EA505311F0004F23FA02F018BF404270474FF00000704750EA013005D111F0004008BF6FF0004070472C
:4055C0004FF00000704700BF0000000000000000414443313D2020202020205600000000414443323D2020202020205600000000252B312E32660000202020202000000076
:40560000A0020000980200009002000088020000800200008002000080020000800200006882FF1F6882FF1F6882FF1F6882FF1F6882FF1F6882FF1F6882FF1F6882FF1FCA
:405640006882FF1F6882FF1F6882FF1F6882FF1F6882FF1F6882FF1F6882FF1F0000004808000048180000482000004828040048480400481000004828000048A8000048D2
:4056800028010048A801004828020048A802004828030048A80300486804004878040048880400480805004888050048080600488806004808070048880700480808004896
:4056C000880800480809004888090048080A0048880A0048080B0048880B0048080C0048880C0048080D0048880D0048080E0048880E0048080F0048880F004808100048EA
:4057000088100048081100488811004808120048881200480813004888130048081400488814004808150048881500484300494E4600696E66004E414E006E616E00300084
:4057400030313233343536373839414243444546003031323334353637383961626364656600496E66696E697479004E614E00504F534958002E0000000000000000F03FEE
:40578000000000000000244000000000000059400000000000408F40000000000088C34000000000006AF8400000000080842E4100000000D01263410000000084D7974184
:4057C0000000000065CDCD41000000205FA00242000000E876483742000000A2941A6D42000040E59C30A2420000901EC4BCD64200003426F56B0C430080E03779C341436D
:4058000000A0D8855734764300C84E676DC1AB43003D9160E458E143408CB5781DAF154450EFE2D6E41A4B4492D54D06CFF08044F64AE1C7022DB544B49DD9794378EA4485
:405840000080E03779C34143176E05B5B5B89346F5F93FE9034F384D321D30F94877825A3CBF737FDD4F157505000000190000007D000000232D302B2000686C4C00656658
:405880006745464700000000F8B500BFF8BC08BC9E467047CD020000250A0000F8B500BFF8BC08BC9E467047A9020000C05800000881FF1FD0000000280100000000000050
:4058C00000000000000000410AD7233CCDCCCC3D00008040FD02FD020000C8420083FF1F40B7280308CF000035000000000084670000000000000000000000000000000003
:40590000000000000000000000000000000000002C5700000000000000000000000000000000000000000000000000000000000000000000000000000000000000000000E4
:40594000000000000000000000000000000000003881FF1F75570000795800007958000079580000795800007958000079580000795800007958000079580000FFFFFFFF2F
:40598000FFFFFFFFFFFFFFFFFFFF000000000000000000000000000000000000000000000000000000000000000000000000000000000000000000000000000000000000F1
:4059C00000000000000000000000000000000000000000000000000000000000000000000000000000000000000000000000000000000000000000000000000000000000A7
:405A00000000000000000000000000000000000000000000000000000000000000000000000000000000000000000000000000000000000000000000000000000000000066
:405A40000000000000000000000000000000000000000000000000000000000000000000000000000000000000000000000000000000000000000000000000000000000026
:405A800000000000000000000000000000000000000000000000000000000000000000000000000000000000000000000000000000000000000000000000000000000000E6
:020000040003F7
:0200000480007A
:40000000004000000000000028A0000000000000FF0F000000000000000000000000008400000000000000840000000000000000020000000000000100000200000000009D
:400040000000000000000000000003000001000000000000040000010400010002010000000000000000011043060000000BE00C19FFFFFF0000F0440C00000000000800C0
:400080000404040406630001000000000000C0000000400200000000000000000000000000000000000000000000002000000020011C0E22100000030030000C0C2C03119C
:4000C0000009031000000000011006000000000000140C0000000800001F0F00100000200000080000001040420600000000E0CB38FFFFFF0000F0440C0000000000000087
:400100000404040044040001000000000000C0000000400200000000000000000000000000000000000000000000000800000005001A000400000000000300140103000C16
:400140000000001800000000000000000000000000000000000000000000001C010300000020000800001010030000000000004000FF07FF4020F005080000000100040055
:40018000040404044044000140A8402000000000000000000000000000000000000000000000000000000000000000003800040220000000000000011800220201000002C4
:4001C0001202200000000600000200002000180028000001000000000002000001013E0000080000000010052304000000ECC00B1BFFFFFF0000F0440C00000001000400C8
:400200000404040465350001000000000000C000000040020000000000000000000000000000000000000000090010000C03110C0000000510030C0400000000000000089C
:40024000000A03041C00020010000000141000000003000400000000000000101F0F00000000002000000004460002000000000000FFFFFF000000011800800000000000D4
:4002800004040404536600014000400040408000800080008000800000000000000000000000000000000000000000001A110406002018030000000003000C000000080C61
:4002C000000C0013000000000000000000000500030014080011000E1C00000F0030030080200208000040004300020000EC000213FFFFFF0083030118000000030004006B
:40030000040404045566000140004000404080008000800080008000000000000000000000000000000000000003000400200005000A0014000000000013000C00130004F1
:40034000000000080000000000000100000000000000010000000000010000000030000F0020008000000100010000000000000400FF07FF4020F00508000000000000002B
:40038000040404004005000140A8402000000000000000000000000000000000000000000000000000000000004088001380C4000000008013804C00002C000300000013E3
:4003C000030004808A0054080000800C000000802031450E003100060F0F0040C83030808020220200000054020000000040000000FF07FF4020F0050800000001000400E2
:40040000040404043353000140A8402000000000000000000000000000000000000000000000000000000000000000000000000000000000000000000000000000000F0FBF
:4004400000000000000000000000000000000000000000000000000000000000000F000F0000000000000000780000000000000000007800000000007800000000000000F6
:4004800000007800000000000000000000000000000000000000000000000000000000000000000000000000000000000000000000000008000000000000000000080000B4
:4004C00000000000000000000000000000000000000000000000000000000000000000000000000000000000000000000000000000000000080000000000000000000000F4
:4005000000000000000000000000000000000000000000000000000000000000000000000000000000000010000000000000000000000000000000000000000000000008A3
:400540000000000000000000000000000000000000000000000000000000000000000000000000000000000004000000000000000000000000000000000000000000000077
:400580000000000000000000000000800000000000000000000000000400000000000020000000000000008000000000000800000000000008000000000000000000000007
:4005C00000000000000000000000000000000100000000000100000000000000000000000200000000000000000000000000000000000000000000000000000000000000F7
:4006000000000000000000000000000000000000000000000000000000000000000000000000000000000000000000000000000000000000000000000000000000000000BA
:4006400000000000000000000000000000000080000000000000000000000000000000000000000000000000000000000000000000000000000000000000000000000000FA
:400680000000000000000000000000000000000000000000000000000400000000000020000000000800000000000000000800000000000000000000000000000400000002
:4006C00000000000000000000000000000000000000000000000000004000000000000000000000000000000000000000000000000000000020000000000000000000000F4
:4007000000000000000000000000000000000000000000000000000000000000000000000000100000000000000000000000000000000000000000000000000000000000A9
:400740000000000000000000000000000008000000000000000000000000000000000000000000000000000000000000000000000000000000000000000000000000000071
:4007800000000000000000000000000000000000000000000000000000000000000010200000000008000000000000000000000000001000000000000000000000000000F1
:4007C00000000000000000000000000000000800000000000000000001000000000000000000000000000000000000000000000000000000000000000000000000000000F0
:400800000000000000000000000000000000000000000000000000000000000000000020000000000800000000000000000000000000000000000000000000000000000090
:400840000000000000000000000000000000000000000000000000000000000000000000000000000000000000000000000000000000000000000000000000000000000078
:400880000000000000000000000000000000000000000000000000000000000000000000000000000000000000000000000000000000000000000000000000000000000038
:4008C00000000000000000000000000000000000000000000000000000000000000000000000000000000000000000000000000000000000000000000000000000000000F8
:40090000000000000800000000000000000000000000001000000000000000000000000000000000000000000000000000000000000000000000000000000000000000009F
:400940000000000000000000000000000000000000000000000000000000000000000000000000000000010000000400000000000000000000000000000000000000000072
:400980000000000000000000000000000000000000000000000000000000000000000000000000000000000000000000000000000000000000000000000000000000000037
:4009C00000000000000000000000000000000000000000000000000000000000000000000000000000000000000000000000000004000000100000000000000000000000E3
:400A00000000000000000000000000A2000000180000060000009000A000000000202000000004104080C000041008000010001C0000101000005008000000140000001806
:400A4000440020000400200000208000002480200400000000010004000000000404080000000000004100240000000040000000000000000000000000008000000000004C
:400A800000000000000000000000000000800000400008000000000000400200440040000000300000808810A02000AA009000000000000000000000000000000000000066
:400AC00000000000000000006D0033006C0000000000360066006E00E50004000000F000800000000000000000008000000080000400000010000000000000000000000073
:400B000000000000000000000000000000000000000000000000000000000000000000000000000000000000000000000000000000000000000000000000000000000000B5
:400B4000000000000000000000000000000000000000000000000000000000000000000000000000000000000100000000000000000000000800000000000000000000006C
:400B80000000000000000000000000A20000000000000208000000008800000004008800001200A20000800000104500000020011014008200000000880001100000280163
:400BC00044042002000010060010000000800000800000000000000008080000000024081100880000408000000002000100000200000000000000000000000000000000CB
:400C00000000000000000000000000000000000000000000000000000000100E04044200000410000492A41120200801001822020000000000010410000000120000000041
:400C400000000000000000000D0003005A00000000000F00EF00EF001400000000000F000100000000000000010000000000000000000000080000000000000000000000F0
:400C80000000000000000000000000000000000000000000000000000000000000000000000000000000000000000000000000000000000000000000000000000000000034
:400CC00000000000000000000000000000000000000000000000000000000000000000000000000000000000000000000000000000000000400000000000000000000000B4
:400D00000000000000000000000004100000000000504120000000300804000010080000000005000000080000100480200008080402000000000000001801000000280181
:400D40000008800000001204040060000000000800040002000000040800100000000A0010000482001188008000000000000080000000000000000000000000000000000E
:400D800000000000000000000000000080000000001000010000000000081028202000840000000000908A012020401100482A020000000000000000000002000400000078
:400DC000000000000000000006002F000600000000000500E700EA00470000000000FF008100000000000000000000000000000000000000000020000000000000000000FB
:400E000000000000000000000000000000000000000000000000000000000000000000000000000000000000000000000000000000000000000000000000000000000000B2
:400E40000000000000000000000000000000000000000000000000000000000000000000000000000000000000000000000000000000010000000000000000000000000071
:400E80000000000000000000100000006000000001000000000010040080400000000211140900000800100000200000400040000108800000000208000000000000281139
:400EC0000000400040001006000800020000080120100000000008000004001400000019008000000000000000004000000000000000000000000000000000000000000020
:400F000000000000000000000000000000000000000000000000000000000000002000800000000000010000000000000400000000000000000000000010000000000000FC
:400F40000000000000000000C2006800D90000000000AA00E000F800A3002400000008000800000000000000000000000000000000000100000020000000000000000000F4
:400F800000000000000000000000000004000040000000000000000000000000000000000000000000010000000000000000000000000000000000000000000000010000EB
:400FC00000000000000000000000000000000000000000000000000000000000000000000000000000000000000000000000000000000000000040000000000000000000B1
:4010000000000000000000000000000000000000000000000000000000000000000000000000000000000000000000000000000000000000000000000000000000000000B0
:401040000000000000000000000000000000000000000000000000000000000000000000000000000000000000002000000000000000000000000000000000000000000050
:401080000000000000000000000000000000000000000000000000000000000000000000000000000000000000000000000000000000000000000000000000000000000030
:4010C00000000000000000000000000000000000000000000000000000000000000000000000000000000000000020000000000000000000000000000000000000000000D0
:40110000000000000000000000000000000000000000000000000000000000000000000000000000000000000000001000000000000000000000000000000000000000009F
:40114000000000000000000000000000000000000000000000000000000000000000000000000000000000000000000000000000000000000000000000000000000000006F
:4011800000000000000000000000000000000010004000400000000000000000000000800000000000400000000000000000000000000010000000000000000000100000BF
:4011C000000000000000000000000000000000004000000000000000000000000000000000000000000000001000000000000000200000000000000000000000000000007F
:40120000000000000000000000000000000000000000000000000000000000000000000000000000000000000000002000100010000000000000000000000000000000006E
:40124000000000000000000000000000000000000000000000000000000000000000000000000000000000000000000000000000000000000000000000000000000000006E
:40128000000000000000000000000020000000000000000000000000000000000000008000000000004000000000000000000000000000000000000000000000000000004E
:4012C00000000000000000000000000000000000E000000000000000000000000000000000000000000000008000000000000000000000000000000000000000000000008E
:4013000000000000000000000000000000000040000000000000000000000000000000C000000000004000000000000000000000000000000000000000000001000000006C
:40134000000000000000000000000000000000000000000000000000000000000000000000000000000000000000000000004000000000000000000000000000000000002D
:4013800000000000000000000000000000000000000000000000000000000000000000C00000000000400001000000000000000000000020000000002000000000000000EC
:4013C000000000000000000000000000000000000000000000000000000000000000000000000000000000000000000000000000000080000000000000000000000000006D
:40140000000000000000000000000000000000000000000000000000000000000000000000000000000000000000000000000000000000000000000000200000000000008C
:40144000000000000000000000000000000000000000000000000000200000000000000000000000000000000000000000000000000000000000000000000000000000004C
:4014800000000000000000000000000000202000000000000000000000000000000000C000000000004000210000000000002000000000000000000000000000000020008B
:4014C000000000000000000000000000000000000000000010000000000000002000000000000000000000000000100000004000000000000000000000000000000000006C
:401500000000000000000000000000000000000000000000000000000000000000000000000000000000000000000000000000000000000000000000004001000000002149
:40154000000000400000000000000000000000000000000000000000000000000000200000000000000000000000200000000080000000000000000000000000000000006B
:40158000000000000000000000000000000000000000010000000000000000000000000000000000000000000000000000000000000000000000000000000000000000002A
:4015C0000000000000000000000000000000000000000000F00010000000000040000000C000000000000000000000000000000000000000000000000000000000000000EB
:40160000000000000000000000010100010010000040400040000000007F7F0000000000A80000A8A800A800030000005200180100000000000000000000000000000000CB
:40164000000000000000000000000000000000000000000000000000000000000000000000000000000000000000000000000000000000000000000000000000000000006A
:40168000000000000000000000000000000000000000000000000000000000000000000000000000000000000000000000000000000000000000000000000000000000002A
:4016C00000000000000000000000000000000000000000000000000000000000000000000000000000000000000000000000000000000000000000000000000000000000EA
:4017000000000000000000000000000000000000000000000000000000000000000000000000000000000000000000000000000000000000000000000000000000000000A9
:0200000490006A
:0400000000004005B7
:0200000490105A
:04000000BC90ACAF55
:0200000490303A
:02000000DEEC34
:0200000490402A
