:400000000080002011000000D5020000D502000080B500AF024A034B1B68136000F05EF9BC760040FA46004010B5054C237833B9044B13B10448AFF300800123237010BD12
:400040005881FF1F0000000028480000084B10B51BB108480849AFF300800848036803B910BD074B002BFBD0BDE81040184700BF00000000284800005C81FF1F0881FF1FC1
:400080000000000080B584B000AF854A3B4692E8030018600433197000237B7200233B72FF23FB80FF23FB813223BB8100237B8162B603F087FD01F011FA0020002101F09B
:4000C0001DFA784801F050FA0120002101F016FA754801F049FA00F09BFC00F0C3FE0020002101F01FFC00BF01F0DAFD0346002BFAD00020002101F001FA6C4801F034FA70
:400100000120002101F0FAF9684801F02DFA0020002101F0F3F9664801F026FA002003F0B9FD01F013FFC82003F0A2FF7B8901337B81BB89184604F075F9034618465D4927
:4001400004F07CFA034618465B4904F0C3F90346184604F00FFB0346DBB2184603F09AFDBB89564AA2FB03235B099AB2544BA3FB0213D9080B469B000B445B00D31A9BB25D
:40018000DBB23033DBB23B70BB894D4AA2FB0323DB089AB24A4BA3FB0213D9080B469B000B445B00D31A9BB2DBB23033DBB27B70BA89434BA3FB0213D9080B469B000B4449
:4001C0005B00D31A9BB2DBB23033DBB2BB707B8903F001039BB2002B04D13B461846052101F008FF00F0FAFE00F08AFC52E0012000F0ACFF03467B72022000F0A7FF0346FA
:400200003B72002001F0B0F80346DBB2FB800120002101F073F97B7A012B03D1294801F0A3F902E0284801F09FF90120052101F065F93B7A012B03D1224801F095F902E084
:40024000214801F091F901200A2101F057F9FB88FF2B05D11D4801F087F9FF23FB8119E0FA88FB899A4215D001200A2101F046F9174801F079F901200A2101F03FF9FB8820
:40028000184601F0E3FA252001F08AF9FB88FB81FB88BB8100F05EFC0346002BA7D142E7884800002C4800003C480000484800005C4800000000C84200007F431F85EB5194
:4002C000CDCCCCCC7048000074480000784800008048000080B400AFFEE700BF80B586B000AF224B7B61224B3B61204B7B6135E03B691B68FB603B695B68BB603B699B68D7
:400300003B6000237B600CE0FB681A68BB681A60BB680433BB60FB680433FB607B6804337B607A683B689A42EED13B69DB683B6000237B6008E0BB6800221A60BB680433B6
:40034000BB607B6804337B607A683B689A42F2D13B6910333B617B69013B7B617B69002BC6D104F027FAFFF78DFEFEE7010000009C50000080B582B000AF174B174A1A6069
:40038000174A174B1B6843F40073136000237B600FE07B68032B04D8124A7B6852F8233000E0114B11497A6841F822307B6801337B607B682F2BECD90D4B1B78DAB20D4B5E
:4003C0001A700D4B094A1A6000F088F90B4B00221A600837BD4680BD0CED00E00004FA0514ED00E000000000D50200000080FF1FBC7600400481FF1F08ED00E00081FF1FB1
:4004000080B582B000AF78603960786800213A6804F001FA0837BD4680BD00BF80B584B000AFF860B9607A60F868B9687A6804F0E7F91037BD4680BD80B584B000AFF860D4
:40044000B9607A60F868B9687A6804F0D9F91037BD4680BD80B483B000AF0346FB71FEE780B487B000AF7860396000233B6100237B6127E07B699B007A6813441B68BB6083
:40048000BB68FB73BB6823F0FF03BB6014E03B695B003A6813441B781A46BB68134419463B695B003A6813445B780B703B6901333B61FB7B013BFB73FB7B002BE7D17B6989
:4004C00001337B617B69212BD4D91C37BD465DF8047B704780B582B000AF334B01221A80324B19221A70324B40F65F121A80314B19221A70304B06221A70304B52221A70F6
:400500002F4B304A1278D2B21A702F4B40F618021A802E4B41F251221A800023FB7019237B6014E0FB785B00DAB2294B1B78DBB203F00103DBB21343DBB203F00303FB70C0
:400540004FF4F07003F05CFD7B68013B7B607B68002B02D0FB78032BE4D17B68002B02D10320FFF777FF1B4B4FF480721A80194B07221A70184B00221A70184B48221A703A
:40058000144B00221A70164B00221A70154B02221A70154A144B1B78DBB243F00303DBB213700837BD4680BD8040004082400040844000408640004000430040004200405E
:4005C000A14600400F0100492242004020420040254200400440004006400040084000400940004001400040A243004080B483B000AF114B1B78FB71104AFB7903F0070391
:40060000DBB213700E4AFB791B09DBB213700D4B10221A700C4B00221A700C4B20221A700B4B01221A700B4B66221A700C37BD465DF8047B704700BFCF0100496E58004056
:400640006F5800406D51004070580040CB5A00405B5B00407658004080B483B000AF0346FB71FB79092B0ED8FB79094A52F82330FA79074951F822201178FA790548825CD2
:400680000A43D2B21A700C37BD465DF8047B704790480000B848000080B483B000AF0346FB71FB79092B10D8FB790A4A52F82330FA79084951F822201178FA790648825CFF
:4006C000D243D2B20A40D2B21A700C37BD465DF8047B704790480000B848000080B582B000AF72B6404B00221A70FFF7F3FE3F4A3E4B1B78DBB243F00403DBB21370002365
:40070000FB7113E0FA7913465B0013445B00384A13443B603B681A683B689B889BB210461946FFF76DFEFB790133FB71FB79072BE8D930483049FFF793FE304B4FF440725C
:400740001A802F4B40F203121A802E4A2D4B1B78DBB243F00203DBB213702B4A2A4B1B78DBB243F00203DBB21370284A274B1B78DBB243F04003DBB21370254A244B1B78DF
:40078000DBB243F01003DBB21370224822490A22FFF752FE214822490822FFF74DFE214821490822FFF748FE204821490822FFF743FE204820490822FFF73EFE1F4B842227
:4007C0001A701F4A1E4B1B78DBB243F00803DBB21370FFF70BFF1B480C490E22FFF71EFE0837BD4680BD00BF00480040E8460040C4480000F44800007C49000072580040EA
:400800004A5800400350014013500140A0430040C2430040F0510040044E000012510040104E000022510040184E000052510040204E000062510040284E00005B180140DB
:4008400022430040B043004080B582B000AF00F091F9022000F09AFA03F0F1FB0346FB71364A364B1B78DBB243F00303DBB21370FB79184603F0E7FB314BB8221A70314B69
:40088000FF221A70304B01221A7003F0D8FB0346FB712E4A2D4B1B78DBB243F00303DBB213702B4A2A4B1B78DBB243F00303DBB21370FB79184603F0C6FB264BFF221A709C
:4008C000254BFF221A70254BFF221A70244BFF221A70244BFF221A70234BFF221A70234B01221A600020224903F0F6FB0020072103F01AFC03F040FB0720FFF7ADFE08208C
:40090000FFF7AAFE0920FFF7A7FE1A4A194B1B78DBB243F00403DBB2137003F0CBF903F055FA002003F0AEFA042003F0CBFA002003F0E8FA0837BD4680BD00BF9B65004020
:400940002B6500404B65004088650040996400409864004029640040496400400964004028640040586400404864004080E100E0E11300007B65004080B582B000AF03F098
:400980005EFB0346FB711C4A1B4B1B78DBB243F02003DBB2137003F009FB03F0BDF903F037FA164A154B1B78DBB243F01003DBB21370134A124B1B78DBB243F01003DBB230
:4009C0001370104A0F4B1B78DBB243F00103DBB21370FB79184603F036FB0B4B01221A600A4A0A4B1B78DBB263F07F03DBB213700837BD4680BD00BF98650040BB43004009
:400A0000AB4300407058004000E100E07B65004080B500AF054B1B78002B04D1FFF714FF024B01221A70FFF7A7FF80BD7481FF1F80B485B000AF0346FB71FB790133FB7108
:400A4000FB79072B00D111E0FB79DB08FB73FB7903F00703012202FA03F3BB73FB7B074AD25CBB7B1340DBB2002BE6D0FB7918461437BD465DF8047B704700BF0C81FF1F94
:400A800080B584B000AF0346FB71FB790A4AD35CFB73FB79094AD35C184603F033FA084AFB7B0849CB5C1370074B1B78184600F057F91037BD4680BD7C4E00001081FF1F4A
:400AC000596400407881FF1F1781FF1F80B582B000AF0346FB71084B00221A70074AFB791370054B81221A70FB79184600F0C0F80837BD4680BD00BF9F81FF1F9E81FF1F6A
:400B000080B500AF114B00221A70114BFF221A700F4B1B78DBB21846FFF78AFF03461A460B4B1A700A4B1B78DBB2062B0DD8074B1B78DBB243F00103DAB2044B1A70044BFA
:400B40001B78DBB2184600F093F880BD9F81FF1F9E81FF1F80B400AF054B1B78DBB203F00103DBB21846BD465DF8047B704700BF9F81FF1F80B582B000AF0023FB7106E079
:400B8000FB79184600F03EF8FB790133FB71FB79062BF5D90837BD4680BD00BF80B584B000AF0346FB71FB79124AD35CFB73FB79114AD35CBB73FB79104A52F8233009227C
:400BC0001A70FB7B0F2B01D10723FB73FB7B0C4A52F82330FA7B0A4951F822201178BA7B0A43D2B21A70FB791846FFF735FD1037BD4680BD4C4E0000544E0000304E000041
:400C00005C4E000080B584B000AF0346FB71FB79134AD35CFB73FB79124AD35CBB73FB791846FFF739FDFB7B0F2B01D10723FB73FB7B0D4A52F82330FA7B0B4951F82220CC
:400C40001178BA7BD243D2B20A40D2B21A70FB79064A52F8233008221A701037BD4680BD4C4E0000544E00005C4E0000304E000080B582B000AF0346FB71FB791846FFF732
:400C8000FFFE0F4A0E4B1B78DBB243F00103DBB213700C4A0B4B1B78DBB223F00103DBB21370FB791846FFF779FF054A044B1B78DBB243F00203DBB213700837BD4680BD66
:400CC0007B6500407058004080B582B000AF0346FB711E4A1D4B1B78DBB223F00303DBB21370FB791A4A1278D2B292B2120291B2184A22F81310184B1B78DBB29AB2FB7985
:400D0000F979144830F811100A4391B2114A22F81310FB79FA790F4931F81220D24391B20C4A22F81310FB791846FFF76BFF002003F0E8F8094A094B1B78DBB243F00103CC
:400D4000DBB213700837BD4680BD00BF7B650040186400409081FF1F086400407058004080B483B000AF0346FB71064AFB791370054AFB795B08DBB213700C37BD465DF883
:400D8000047B70472A6500403A65004080B483B000AF0346FB71FB79012B08D10A4A0A4B1B78DBB223F01003DBB2137007E0064A054B1B78DBB243F01003DBB213700C37CC
:400DC000BD465DF8047B70477B65004080B485B000AF0346FB71FB79104AD35CFB73FB79FA790F4931F812100E4A22F81310FB790D4A0021D154FB790C4A0021D154FB7B57
:400E0000002B06D0FB7B013BFA7B0949895C094AD1541437BD465DF8047B70477C4E00009081FF1FB881FF1FA881FF1FB081FF1F2481FF1F7C81FF1F80B582B000AF0346DF
:400E4000FB71FB791846FFF741FE00BFFFF782FE0346002BFAD1FB791846FFF7B7FF0837BD4680BD80B582B000AF0023FB7106E0FB791846FFF7E0FFFB790133FB71FB79D4
:400E8000062BF5D90837BD4680BD00BF80B586B000AF0346FB71FB79494AD35C7B757B7D484AD35C3B75FB79474A32F813307B82FB79464A32F813307A8A9A4209D3FB7987
:400EC000424A32F813307A8AD31AFB8201237B7508E0FB793D4A32F813207B8AD31AFB8200237B757B7D002B18D1FB8A142B15D9FB79374AD35C042B08D9FB791846FFF7FB
:400F000065FFFB79324A0021D1543BE0FB79304AD25C0132D1B22E4AD15433E03B7D9BB2FA8A9A4205D9FB8A132B2BD87B7D002B28D1FB79254A32F813301B02FB60FB7919
:400F4000244AD35C1A46FB681343FB607B8AFA681344FB60FB791D4A32F813301A46FB689B1AFB60FB79FA68120A91B2174A22F81310FB79FA68D1B2164AD154FB79144AA9
:400F80000021D1543B7D9BB2FA8A9A4210D97B7D002B0DD0FB8AFF2B04D9FB790E4AFF21D15409E0FB79FA8AD1B20B4AD15403E0FB79094A0021D1541837BD4680BD00BFE4
:400FC0007C4E00001C81FF1F9081FF1FB881FF1FA081FF1FA881FF1FB081FF1F80B582B000AF0023FB7118E0FB79DB08BB71FB7903F00703012202FA03F37B71BB790A4AF7
:40100000D25C7B791340DBB2002B03D0FB791846FFF73CFFFB790133FB71FB79062BE3D90837BD4680BD00BF0C81FF1F80B485B000AF0346FB71FB79DB08BB73FB7903F096
:401040000703012202FA03F37B73FB79384AD35C3B733B7B374AD35CFB723B7B364AD35CBB723B7B354AD35C7B723B7B002B06D10223FB73FB7B324A0121D15402E03B7BBE
:40108000013BFB73BB7B2F4AD25C7B7B1340DBB2002B18D0FB792C4AD35C1946FA7ABB7AD31A994232DABB7BBA7B2649895C7A7BD243D2B20A40D1B2224AD154FB7B204941
:4010C0007A7ACA5422E0FB791F4AD35C1946FA7ABB7A1344994215DDFB7B194AD35C012B08D8BB7BBA7B1749895C7A7B0A43D1B2144AD154FB7B124AD25C013AD1B2104A80
:40110000D15403E0FB7B0E497A7ACA54BB7B0D4AD25C7B7B1340DBB2002B01D0012300E0002318461437BD465DF8047B704700BF7C4E00001881FF1F2081FF1F2481FF1F1B
:401140007C81FF1FC881FF1FB081FF1F80B584B000AF0346FB71FB790F4AD35CFB73FB790E4AD25CFB7B13447B730023BB73FB7B1846FFF75BFF0346002B01D00123BB73A6
:40118000FB7B0133FB73FA7B7B7B9A42EFD3BB7B18461037BD4680BD844E0000884E000080B485B000AF0346FB710B46BB7113467B71FF23BB7300237B73FB79144A134432
:4011C000BB600023FB7317E0FB7BBA6813441B787A799A420DD2FB7BBA6813441B787A7B9A4206D2FB7BBB73FB7BBA6813441B787B73FB7B0133FB73FA7BBB799A42E3D38A
:40120000BB7B18461437BD465DF8047B704700BFB081FF1F90B488B000AF0446084611461A462346FB710346BB710B467B7113467B800023FB770023BB77BB79484A1344D7
:40124000BB61FB79002B02D0FB79013BFB77FB790133BB77FB79BA6913441A78414B5A70FB79002B09D13F4B00221A70BB7FBA6913441A783B4B9A701AE0FA797B79013BED
:401280009A4209D1FB7FBA6913441A78354B1A70344B00229A700BE0FB7FBA6913441A78304B1A70BB7FBA6913441A782D4B9A702C4B1B7897F828209A4208D2294B1A7862
:4012C00097F82830D31ADAB2264B1A7002E0254B00221A70234B5A7897F82830D31ADAB2204B5A701F4B9B7897F828209A4208D21C4B9A7897F82830D31ADAB2194B9A706F
:4013000002E0184B00229A70164B9B781A46154B1B78D31A7B61134B1B781A46114B5B781344104A927813443B617B691B021A463B6992FBF3F3FA79120213443B617B8889
:401340001AB23B6902FB03F33B613B6903F5FE431B0CFB73FB7B18462037BD4690BC7047B081FF1F8081FF1F90B587B002AF0346FB71FB79164AD35C7B73FB79154AD35C88
:401380003B73FB79144AD35C797B3A7B084611461A46FFF705FF0346FB72FB7AFF2B0ED04FF4C854FB790D4AD35CF87A797B3A7B00932346FFF72EFF0346FB8102E04FF624
:4013C000FF73FB81FB8918461437BD4690BD00BF844E0000884E00001881FF1F1C81FF1F80B500AF1A4B1B78DBB21846FFF76CFC184B1B78DBB2DBB25BB2002B08DA154BFA
:401400001B78DBB223F00103DAB2124B1A701DE00F4B1B78DBB21846FFF70AFB03461A460B4B1A700A4B1B78DBB2062B06D8084B1B78DBB21846FFF71BFC07E0054B1B787D
:40144000DBB223F00103DAB2024B1A7080BD00BF9E81FF1F9F81FF1F80B500AF282002F007FE032000F0C2F9052002F001FE032000F0BCF90F2002F0FBFD032000F0B6F944
:40148000012002F0F5FD022000F0B0F9052002F0EFFD062000F0AAF80E2000F0A7F82C2000F0A4F8082000F0A1F8012000F09EF80C2000F09BF8032000F098F8052002F05B
:4014C000D7FD80BD80B500AF0C2000F08FF8024B01221A7080BD00BF8481FF1F80B500AF054B1B78002B04D1FFF7B6FF024B01221A70FFF7E7FF80BD8581FF1F80B582B02B
:4015000000AF03460A46FB711346BB71FB79032B26D801A252F823F029150000371500004515000053150000BB79803BDBB2184600F05CF815E0BB79403BDBB2184600F0E9
:4015400055F80EE0BB796C3BDBB2184600F04EF807E0BB792C3BDBB2184600F047F800E000BF0837BD4680BD80B584B000AF78600123FB737B681B78BB730BE0BB7B1846D5
:4015800000F01AF8FB7B7A6813441B78BB73FB7B0133FB73BB7B002BF0D11037BD4680BD80B582B000AF0346FB71FB79184600F003F80837BD4680BD80B584B000AF034690
:4015C000FB7100F02DF8FB791B09FB73FB7B184600F0D2F8FB7903F00F03FB73FB7B184600F0CAF81037BD4680BD00BF80B584B000AF0346FB7100F013F8FB791B09FB7355
:40160000FB7B184600F0F2F8FB7903F00F03FB73FB7B184600F0EAF81037BD4680BD00BF80B582B000AF4F4A4E4B1B78DBB223F07F03DBB213704C4B1B78DBB223F00F0340
:40164000FB71494AFB7943F00F03DBB21370474B1B78DBB223F00F03FB71444AFB791370434B1B78DBB223F00F03FB71404AFB7913703C4A3B4B1B78DBB223F02003DBB22B
:401680001370384A374B1B78DBB243F04003DBB21370002002F00EFD324A324B1B78DBB243F01003DBB21370012002F003FD314B1B78FB712B4A2B4B1B78DBB223F01003B2
:4016C000DBB21370002002F0F5FCFB7903F00803FB71244A234B1B78DBB243F01003DBB21370012002F0E6FC1E4A1E4B1B78DBB223F01003DBB21370FB79002BC9D1194AEF
:40170000184B1B78DBB223F04003DBB21370154A144B1B78DBB223F07F03DBB21370124A114B1B78DBB223F00F03DBB213700F4B1B78DBB223F00F03FB710C4AFB7943F028
:401740000F03DBB213700A4B1B78DBB223F00F03FB71074AFB7943F00F03DBB213700837BD4680BD205100402251004023510040245100402151004080B582B000AF0346CA
:40178000FB71FFF74DFF184A174B1B78DBB243F02003DBB21370144A134B1B78DBB223F04003DBB21370104A0F4B1B78DBB223F00F03DBB213700C490B4B1B78DAB2FB79A8
:4017C0001343DBB243F01003DBB20B70012002F071FC054A044B1B78DBB223F01003DBB213700837BD4680BD2051004080B582B000AF0346FB71144A134B1B78DBB223F05A
:401800006003DBB21370104A0F4B1B78DBB223F00F03DBB213700C490B4B1B78DAB2FB791343DBB243F01003DBB20B70012002F041FC054A044B1B78DBB223F01003DBB2FC
:4018400013700837BD4680BD2051004080B586B000AF0346FB800023FB751CE0F87DFA882F4BA3FB0213D9080B469B000B445B00D31A9BB2DBB23033DAB207F1180303449D
:4018800003F8102CFB88264AA2FB0323DB08FB80FB7D0133FB75FB88092BDFD8F87DFA881F4BA3FB0213D9080B469B000B445B00D31A9BB2DBB23033DAB207F118030344B8
:4018C00003F8102CFB7DBB7510E0BA7DFB7DD31AFA7D07F118010A4412F8102C07F118010B4403F8082CFB7D013BFB75FB7D002BEBD1BB7D3A7A07F118010B4403F8082CD4
:40190000BB7D013307F118021344002203F8082C07F110031846FFF727FE1837BD4680BDCDCCCCCC80B582B000AF03460A46FB711346BB71084B1B78002B04D100F00EF8C1
:40194000054B01221A70FA79BB791046194600F0D5F80837BD4680BD8681FF1F80B582B000AF02F06CFB0346FB71534A524B1B78DBB243F00103DBB21370504A4F4B1B7821
:40198000DBB243F00103DBB213704D4B01221A704C4B02221A704C4A4B4B1B78DBB203F07F03DBB21370002002F084FB474A474B1B78DBB223F00603DBB21370444A444BDB
:4019C0001B78DBB223F02003DBB213703F4A3F4B1B78DBB243F00103DBB21370012002F069FB282002F066FB3A4A3A4B1B78DBB203F07F03DBB21370364A364B1B78DBB226
:401A000023F04003DBB21370304A304B1B78DBB243F00203DBB21370022002F04BFB2B4A2A4B1B78DBB243F00403DBB213702A4B00221A70294B00221A70FB79184602F030
:401A400002FB1720072102F06FFB1720244902F043FB1820072102F067FB1820214902F03BFB1520072102F05FFB15201E4902F033FB0120072102F057FB01201B4902F0F3
:401A80002BFB0220072102F04FFB0220184902F023FB0320072102F047FB0320154902F01BFB0C20072102F03FFB0C20124902F013FB0837BD4680BDA5430040B5430040F9
:401AC0009D60004009600040106000409443004012600040F8510040846000408560004025280000F5200000192800001527000069270000BD270000D92B000080B584B0F5
:401B000000AF03460A46FB711346BB710023FB7306E0FB7B324A0121D154FB7B0133FB73FB7B012BF5D92F4AFB7913702E4B00221A702E4B00221A702D4B00221A702D4BDE
:401B400000221A702C4B00221A702C4B00221A702B4B00221A702B4B4FF400021A60294B4FF080721A60274B4FF400121A60254B02221A60234B04221A60224B08221A608F
:401B8000BB79002B02D0012B09D011E01E4A1E4B1B78DBB223F00103DBB2137011E01A4A194B1B78DBB243F00103DBB2137008E0154A154B1B78DBB223F00103DBB21370D8
:401BC00000BF124B03221A70114B80221A70012002F016FA0F4B04221A701037BD4680BD7C82FF1F7782FF1F7682FF1FE881FF1FE981FF1FEA81FF1F7A82FF1FEB81FF1F59
:401C0000E781FF1F00E100E00960004028600040086000401260004080B483B000AF0023FB7106E0FB79144A0121D154FB790133FB71FB79012BF5D9104B00221A70104B0A
:401C400000221A700F4B00221A700F4B00221A700E4B00221A700E4B00221A700D4B00221A700D4B03221A700C4B80221A700C37BD465DF8047B70477C82FF1F7682FF1F11
:401C8000E881FF1FE981FF1FEA81FF1F7A82FF1FEB81FF1FE781FF1F286000400860004080B400AF034B1B78DBB21846BD465DF8047B7047E981FF1FB0B485B000AF03469C
:401CC0003960FB711346BB80FB79002B66D0FB79082B63D8B988FA79324813465B0013449B000344DB889BB2C3F5007399420BD9FA792C4913465B0013449B000B44DB889F
:401D00009BB2C3F50073BB80274CF979BB881B0A9BB2D8B2FA79234D13465B0013449B002B44DB78DBB20343DAB20B0123441A701D4AFB79B988C9B21B0113440A465A7001
:401D40003B68002B13D00023FB810CE01748FB79FA8939680A4412781B01034408331A70FB890133FB81FA89BB889A42EED3FA790C4913465B0013449B000B4400225A70F0
:401D80000948F979FA79074C13465B0013449B0023445B79DAB20B0103449A701437BD46B0BC70470882FF1FFC5F00407060004090B482B000AF0346FB71FB79002B19D0AA
:401DC000FB79082B16D8FA790C4913465B0013449B000B4400225A700948F979FA79074C13465B0013449B0023445B79DAB20B0103449A700837BD4690BC70470882FF1F65
:401E0000FC5F004080B582B000AF0023FB71324B1B79DBB2184600F069F80346BB712E4B1B78DBB2DBB25BB2002B16DA2A4B5B78DBB2212B00D00FE0284B07221A80BA7909
:401E40001346DB009B1A264A1344244A536000F0CBFA0346FB7100BF38E01F4B5B78DBB2202B02D0222B1AD030E01C4B07221A80BA791346DB009B1A194A1344174A53600E
:401E8000BB79BA7917498A5CD2B242F00102D1B2144AD15400F028FB0346FB7116E0BB790D4A9278D2B291B20F4A22F81310BB79BA790C498A5CD2B242F00202D1B2094AD4
:401EC000D15400F0ADFB0346FB7100BFFB7918460837BD4680BD00BF00600040F881FF1F2881FF1FDC81FF1FE081FF1F80B485B000AF0346FB710023FB73FF23BB7317E004
:401F0000FB7B104AD35C7B737A7B0F4913465B0013449B000B4408339B78DBB2FA799A4203D1FB7BBB730223FB73FB7B0133FB73FB7B012BE4D9BB7B18461437BD465DF88F
:401F4000047B7047D481FF1F0882FF1F80B582B000AF0023BB71224B00221A70214B00221A70204B00225A700023FB7110E0FB791D4AD35C7B717B79002B06D07B79082B92
:401F800003D87B791846FFF713FFFB790133FB71FB79012BEBD9154B1B78DBB2002B18D0114B1B78DBB2002B13D0114B1B78DBB2002B0ED00D4B1B78DBB2082B09D80A4BF1
:401FC0001B78DBB2082B04D8094B1B78DBB2082B01D90123BB71BB7918460837BD4680BD8781FF1FDC81FF1FD081FF1FCC81FF1FD481FF1F80B584B000AF78600B467B80A6
:40200000144B1B781A46144B9B5CFB73FA7B134913465B0013449B000B4408331B889BB27A889A420CD9FA7B0C4913465B0013449B000B4408331B887B80002002F00CF828
:40204000FA7B7B88104679681A46FFF735FE1037BD4680BD8781FF1FCC81FF1F0882FF1F80B485B000AF78600B46FB701346BB707B68DB7803F00303FB737B689B78DBB218
:402080005BB2002B1ADAFB7B032B0AD0BB7803F001031549FA78CA54BB7843F00103BB701BE0BB789B08DBB203F001030F49FA78CA54BB7843F00403BB700EE0FB7B032B62
:4020C0000BD0BB785B08DBB203F001030849FA78CA54BB7843F00203BB70BB7818461437BD465DF8047B7047CC81FF1FD481FF1FD081FF1F80B582B000AF374B1B78BB7166
:40210000BB7903F01003002B63D00123FB71BB795BB2002B13DABB7903F00F03012B02D00023FB711DE000F061F82C4B1B78DBB2DBB25BB2002B14DA0023FB7111E0BB7914
:4021400003F04003002B02D000F094F809E0BB7903F02003002B02D000F0B2F801E00023FB71FB79002B34D01B4B1B78BB71BB795BB2002B2DDB1A4B1B78DAB2194B1B78BF
:40218000DBB21343BB71184ABB791370164B1B78DBB2BA799A421CD1104B1B78FB710E4B1B78DBB223F07F03BB71BB79002B0AD1094B0A4A1278D2B21A70074B1B78DBB2FA
:4021C00003F00F03FB71054B1B78DBB2FA799A42E2D10837BD4680BD28600040E681FF1FEC81FF1F0482FF1F2960004080B582B000AF1D4B1B78FB711B4AFB7913701A4BFA
:402200001B78FB71FB795BB2002B03DA174AFB79137025E0022000F043FA154B1B78DBB203F06003202B08D0402B0BD0002B0ED100F0D8FC0346FB710CE001F0F9FF03468A
:40224000FB7107E001F094FC0346FB7102E00023FB7100BFFB79002B02D1044B03221A700837BD4680BD00BF28600040E681FF1F0060004080B500AF104B1B78DBB2062B7A
:4022800019D801A252F823F0B7220000B7220000A5220000B7220000AB220000B7220000B122000000F0FAF806E000F0A9F903E000F0D2F900E000BF80BD00BF7682FF1FB9
:4022C00080B500AF124B1B78DBB2062B1DD801A252F823F00B2300000B230000F12200000B230000F72200000B230000FD22000000F0DAF80AE000F029F907E0032000F09C
:40230000CFF9044B03221A7000E000BF80BD00BF7682FF1FE681FF1F80B483B000AF0023FB71294B1B78DBB29AB2284B1B889BB213449AB2254B1A8015E02549FB79254AC6
:4023400052681278D2B2CA54224B5B680133214A5360FB790133FB711E4B1B889BB2013B9AB21C4B1A801B4B1B889BB2002B02D0FB79072BE1D9144B1B78DBB2082B02D0C8
:40238000FB79002B0FD0144B1B78DBB283F07F03DB43DAB2104B1A70104B0F221A70104B02221A7005E00D4B02221A700C4B02221A700C4AFB791370034AFB7913700C37B9
:4023C000BD465DF8047B7047E781FF1F7482FF1F00600040F881FF1FEC81FF1FE681FF1F7682FF1F0482FF1F80B582B000AF164B1B889BB2002B02D100F02EF81EE0134BDD
:4024000002221A70124B00221A7000F069F9114BDB79DBB29BB21B029AB20E4B9B79DBB29BB21343FB80084B1B889BB2FA889A4202D2054AFB881380FFF76EFF01231846C9
:402440000837BD4680BD00BFF881FF1F7682FF1FEC81FF1F0060004080B400AF0A4B02221A700A4B80221A70094B0F221A70094B00221A70084B00221A7001231846BD464C
:402480005DF8047B704700BF7682FF1FEC81FF1FE681FF1FE781FF1F0482FF1F80B500AFFFF73AFF80BD00BF80B500AF0A4B1B78DBB29AB2094B1B889BB213449AB2074B95
:4024C0001A80074B00221A70012000F0E9F8054B03221A7080BD00BFE781FF1F7482FF1F7682FF1FE681FF1F80B582B000AF124B04221A70114B80221A7000F0F1F8104B43
:40250000DB79DBB29BB21B029AB20D4B9B79DBB29BB21343FB800B4B1B889BB2FA889A4202D2084AFB881380074B0B221A70012318460837BD4680BD7682FF1FEC81FF1F62
:4025400000600040F881FF1FE681FF1F80B483B000AF0023BB71234B1B78DBB203F00F03DBB2023BFB71FB799AB21F4B1B889BB213449AB21C4B1A8018E01C4B5B681C492C
:40258000BA798A5CD2B21A70184B5B680133174A5360BB790133BB71FB79013BFB71134B1B889BB2013B9AB2104B1A800F4B1B889BB2002B02D0FB79002BDED10D4AFB79AB
:4025C00013700D4B1B78DBB283F07F03DB43DAB2094B1A70094B0B221A700C37BD465DF8047B7047296000407482FF1FF881FF1F006000400482FF1FEC81FF1FE681FF1FBF
:4026000080B500AF044B00221A70012000F048F8024B03221A7080BD7682FF1FE681FF1F80B400AF084B06221A70084B06221A70074B80221A70074B00221A7001231846AB
:40264000BD465DF8047B70477682FF1FE681FF1FEC81FF1F0482FF1F80B500AF0C4B1B78DBB2002B0AD00B4A094B1B78DBB263F07F03DBB21370064B00221A70064B002284
:402680001A70012000F00CF8044B03221A7080BD7A82FF1F086000407682FF1FE681FF1F80B483B000AF0346FB710B4B9B68002B0CD0094B9B68FA791A70074B9B68074ABE
:4026C000128892B25A80044B00229A600C37BD465DF8047B704700BFF881FF1F7482FF1F80B400AF094B00221A80094B9B68002B07D0074B9B6800221A70054B9B680022BA
:402700005A80BD465DF8047B704700BF7482FF1FF881FF1F80B400AF104A104B1B78DBB223F00103DBB213700D4B9B7C0D4B1B7BDBB203F00303012B08D00A4BDB7BDBB2C9
:4027400083F07F03DB43DAB2064BDA73054B01225A73BD465DF8047B704700BF0B600040FC5F00400882FF1F80B400AF104A104B1B78DBB223F00203DBB213700D4B93F8DE
:4027800022300D4B1B7EDBB203F00303012B08D0094BDB7EDBB283F07F03DB43DAB2064BDA76054B01225A76BD465DF8047B70470B600040FC5F00400882FF1F80B400AF30
:4027C000124A124B1B78DBB223F00403DBB213700F4B93F832300F4B93F82430DBB203F00303012B0AD00B4B93F82730DBB283F07F03DB43DAB2074B83F82720054B0122DF
:4028000083F82520BD465DF8047B70470B600040FC5F00400882FF1F80B400AFBD465DF8047B704780B500AFFFF7F6F980BD00BF80B582B000AF0023FB716C4B1B79BB710A
:402840006A4B1B78DBB2DBB25BB2002B6DDA674B5B78DBB2013B052B65D801A252F823F0BF280000D9280000052900002729000027290000792800005C4BDB78DBB2212B92
:402880000BD100F0BDF85A4B1B889BB2002B15D0FFF7AAFD0346FB7146E0544BDB78DBB2222B0BD100F0EAF8514B1B889BB2002B04D0FFF799FD0346FB7135E034E000F01B
:4028C00025F94B4B1B889BB2002B04D0FFF78CFD0346FB7128E027E0BB79012B11D8434B9B78DBB2002B0CD1414B01221A80BB79404A13443E4A5360FFF776FD0346FB71BC
:4029000012E011E0BB79012B0CD8394B01221A80BB79394A1344364A5360FFF765FD0346FB7101E000E000BF5AE0304B5B78DBB20A2B11D00B2B3FD0092B00D050E000F0CD
:40294000E5F82B4B1B889BB2002B04D0FFF7CCFD0346FB7144E043E0BB79012B2BD8234B9B78DBB2002B26D1BB79204AD278D1B2204AD154BB791F4AD35CDAB2BB791F49D9
:40298000CB5CDBB29A4204D2BB791C4A0021D1540CE0BB79194AD35CDBB2012B06D9BB79BA7914498A5CD1B2144AD154FFF738FE0346FB7114E013E0BB79012B0FD80B4B72
:4029C0009B78DBB2012B0AD8BB79084A9278D1B2094AD154FFF724FE0346FB71FFE700BFFB7918460837BD4680BD00BF00600040F881FF1F8482FF1F7C82FF1F8082FF1F85
:402A000080B584B000AF194B1B78DBB2013BDBB2184600F00DFFF860154B1B79FB72FB7A0233DB00FA681344FB60FB685B68FB60FB7A104AD35CDBB2DB00FA681344FB608A
:402A4000FB685B68FB60FB682033FB60FB685B687B607B681B78DBB29AB2074B1A80064A7B6853601037BD4680BD00BFE981FF1F00600040F481FF1FF881FF1F80B584B0A1
:402A800000AF1E4B1B78DBB2013BDBB2184600F0CFFEF8601A4B1B79FB72FB7A0233DB00FA681344FB60FB685B68FB60FB7A154AD35CDBB2DB00FA681344FB60FB685B687D
:402AC000FB60FB681833FB60FB685B687B607B6801331B78DBB29BB21B029AB27B681B78DBB29BB213439AB2074B1A807B680233054A53601037BD4680BD00BFE981FF1FBE
:402B000000600040F481FF1FF881FF1F80B584B000AF2D4B00221A802C4B1B78DBB2013BDBB2184600F084FEF860294BDB78FB72274B1B79BB72BB7A0233DB00FA68134492
:402B4000FB60FB685B68FB60BB7A012B38D8BB7A204AD35CDBB2DB00FA681344FB60FB685B68FB60FB7A002B2AD0FB7A032B27D8FB7A03F10053013BDB00FA681344FB601A
:402B8000134B9B78FB72FB681B78FA7A9A4217D8FB685B687B60FA7A13465B0013449B001A467B6813447B607B685B68064A53607B681A88044B1A807B689B68024A936036
:402BC0001037BD4680BD00BFF881FF1FE981FF1F00600040F481FF1F80B500AF01F000FA80BD00BF80B586B000AF0023FB759D4B1B78FB7100233B619B4B00221A80FB7909
:402C00005BB2002B80F20481964B5B78DBB20A2B00F2FC8001A252F823F000BF652D00000D2E00000D2E00000D2E00000D2E00000D2E0000492C00000D2E0000D72D000055
:402C40000D2E0000ED2D0000864BDB78DBB2012B0ED100F017FEB860BB685B68824A5360814B12221A80FFF7BFFB0346FB7578E07C4BDB78DBB2022B24D17A4B9B78DBB238
:402C8000184600F0D5FDB860BB68002B69D0BB685B68754A5360744B5B6803331B78DBB29BB21B029AB2704B5B6802331B78DBB29BB213439AB26C4B1A80FFF795FB03468D
:402CC000FB75A4E0674BDB78DBB2032B44D10023FB73664B3B6109E03B691B78BB71BB793A6913443B61FB7B0133FB735D4B9B78DBB2FA7B9A4204D23B691B78DBB2002BA1
:402D0000EAD1584B9B78DBB2EE2B01D1584B3B61544B9B78DBB2002B0BD0524B9B78DAB2544B1B7C9A4204D1534800F0A1F9524B3B613B691B78DBB2002B12D03B691B789D
:402D4000DBB29AB2484B1A80474A3B695360FFF74BFB0346FB755AE001F06AFA0346FB7555E054E0FB7903F00303002B1FD0022B00D02FE03C4B02221A803A4B1B79DBB241
:402D800003F07F023D4913465B0013449B000B449B78DAB23A4B1A70394B00225A70324B374A5A60FFF720FB0346FB7512E02E4B02221A80334B1B78DAB2314B1A70304B3D
:402DC00000225A70284B2E4A5A60FFF70DFB0346FB7500BF1BE0244B01221A80224B2A4A5A60FFF701FB0346FB7510E01E4B01221A801C4B1B79DBB21A46244B13441A4A37
:402E00005360FFF7F1FA0346FB7500E000BF19E1144B5B78DBB2013B0A2B00F2128101A252F823F02F2F000043300000B92F000043300000512E0000433000004330000066
:402E400043300000952E000043300000EB2E0000044B9B78DAB20E4B1A70FFF7E1FB0346FB75EFE000600040F881FF1FFC4E00003C500000A44E00008882FF1F0882FF1F96
:402E80008881FF1FEB81FF1FE981FF1FF481FF1F7A82FF1F6E4B9B787B717B79002B06D07B79013BDBB2184600F0C2FCB8607B79002B02D0BB68002B02D17B79002B13D189
:402EC000644B1B78DBB27A799A4208D0614A7B791370614B01221A70012000F0C1F9FFF79FFB0346FB75ADE0ACE000F009FE0346002B1BD0564B1B793B71554B1B79DAB2BD
:402F0000564B1A703B79564AD35CDAB23B795549CB5CDBB29A4204D04F4B01221A7000F069FBFFF77DFB0346FB758BE08AE0FB7903F00303012B22D0012B0DD3022B00D076
:402F400039E0434B9B78DBB2002B04D100F040FD0346FB752FE02EE03D4B9B78DBB2012B0CD1414B1B78DBB223F00203DAB23E4B1A70FFF755FB0346FB751CE01BE0344BFE
:402F80001B79DBB2012B15D8314B9B78DBB2DB43DBB22F4A1279D2B211461046334A125CD2B21340DAB2314B5A54FFF739FB0346FB75FFE700BF45E0FB7903F00303012B1D
:402FC00022D0012B0DD3022B00D039E0204B9B78DBB2002B04D100F08DFC0346FB752FE02EE01B4B9B78DBB2012B0CD11E4B1B78DBB243F00203DAB21B4B1A70FFF710FB16
:403000000346FB751CE01BE0114B1B79DBB2012B15D80F4B9B78DBB2DB43DBB20C4A1279D2B211461046114A125CD2B21340DAB20E4B5A54FFF7F4FA0346FB75FFE700BF1E
:4030400000E000BFFB7D18461837BD4680BD00BF00600040E981FF1FE881FF1FEA81FF1FE481FF1FF481FF1FEB81FF1F7882FF1FB0B58AB000AF7860314B07F114041D4688
:403080000FCD0FC42B682370002387F826307B68002B52D07B6822221A707B68013303221A7007F10C03184601F060F8022387F827303EE097F827307A68134497F82620E1
:4030C00007F128010A4412F81C2C1209D2B207F128010A4412F8142C1A7097F8273001337A68134400221A7097F8273002337A68134497F8262007F128010A4412F81C2C44
:4031000002F00F0207F128010A4412F8142C1A7097F8273003337A68134400221A7097F82630013387F8263097F82730043387F8273097F82730212BBCD92837BD46B0BDD1
:40314000904E000090B482B000AF0123FB7174E03F4AFB791B0113440C221A70FA793D4913465B0013449B000B445B79DBB2002B1AD0FA79374913465B0013449B000B44F4
:403180001B79DBB2DBB25BB2002B06DA324AFB791B0113440C229A700CE02F4AFB791B01134408229A7005E02B4AFB791B01134480229A702648F979FA79264C13465B00C8
:4031C00013449B002344DB889BB2DAB20B0103449A711F48F979FA791E4C13465B0013449B002344DB889BB21B0A9BB2DAB20B010344DA711648F979FA79164C13465B0074
:4032000013449B002344DB889BB2DAB20B0103441A710F48F979FA790E4C13465B0013449B002344DB889BB21B0A9BB2DAB20B0103445A71FB790133FB71FB79082B87D991
:40324000064BFF221A700837BD4690BC704700BF706000400882FF1FFC5F00400A60004080B58AB000AF0346FB7100237B84002387F827304CE097F82720C44913465B00A0
:4032800013449B000B4400221A7097F82720BF4913465B0013449B000B4400229A7097F82720BA4913465B0013449B000B440022DA7097F82720B54913465B0013449B006E
:4032C0000B44083300221A8097F82720AF4913465B0013449B000B44083300229A7097F82720AA4913465B0013449B000B4400225A7097F82720A54913465B0013449B004A
:403300000B4400225A7197F82730013387F8273097F82730082BAED9FB79002B16D0002387F825300EE097F82530994A0021D15497F82530974A0021D15497F82530013327
:4033400087F8253097F82530012BECD9924B1B78DBB2002B00F049810023FB768E4B1B78DBB2013BDBB2184600F062FA78617B695B683B613B6907331B7803F04003002BD4
:4033800008D0864B1B78DBB243F00103DAB2834B1A7007E0814B1B78DBB223F00103DAB27E4B1A707B6908337B617B691B7887F82730012387F82530B3E07B695B68FB618A
:4033C000002387F82630A0E097F82520FB699B7803F07F039A4240F0908097F825206B4913465B0013449B000B4408331B889AB2FB699B889A420CD297F82520FB69988839
:40340000624913465B0013449B000B44083302461A80FB691B781A465D4B9B5CDAB2FB695B789A4269D197F82520FB699878574913465B0013449B000B4402461A7197F8C1
:403440002520FB69D878514913465B0013449B000B4402461A70FB69DB7803F00303FB73FB699B78DBB25BB2002B1ADA97F82520FB7B012B01D1072000E00D204349134643
:403480005B0013449B000B4402465A7197F825203E4913465B0013449B000B4401225A7019E097F82520FB7B012B01D1052000E00920364913465B0013449B000B440246F5
:4034C0005A7197F82520314913465B0013449B000B4400225A70FB699B790A2B03D0FB699B79022B09D197F82520FB7EF86911461A46FEF7B5FD0346FB76FB690833FB6112
:4035000097F82630013387F8263097F8262097F827309A42FFF458AF97F82530013387F8253097F82530082B7FF647AF7B695B68FB61002387F8253016E0FB699B7803F044
:403540007F02FB691878114913465B0013449B000B44083302469A70FB690833FB6197F82530013387F8253097F8252097F827309A42E2D300F098F90246094B1A6000230E
:403580007B84012387F8273029E000BF0882FF1FF481FF1FE481FF1FE981FF1FEB81FF1FF081FF1F97F82720114913465B0013449B000B447A8CDA8097F827200C491346E2
:4035C0005B0013449B000B4408331B889AB27B8C13447B8497F82730013387F8273097F82730082BDED9FFF7ADFD2837BD4680BD0882FF1F90B585B000AF874B1B78DBB2E6
:40360000002B00F00681844B1B78DBB2013BDBB2184600F00DF978607B6808337B607B681B78FB707B685B68BB607C4B1B78BB700023FB73E8E0BB681B78BA789A4240F097
:40364000DD80BB78764AD35CDAB2BB685B789A4240F0D480BB689B7803F07F037B70BB68DB7803F003033B707A786E4913465B0013449B000B440022DA707A78BB6898780A
:40368000684913465B0013449B000B4402461A717A78BB68D878634913465B0013449B000B4402461A707A78BB6898885D4913465B0013449B000B44083302461A80BB68A9
:4036C0009B78DBB25BB2002B18DA7A783B78012B01D1072000E00D20524913465B0013449B000B4402465A717A784E4913465B0013449B000B4401225A7017E07A783B787F
:40370000012B01D1052000E00920464913465B0013449B000B4402465A717A78414913465B0013449B000B4400225A703E4A7B781B01134401229A703B4879787A78394C63
:4037400013465B0013449B00234408331B889BB21B0A9BB2DAB20B0103441A70324879787A78304C13465B0013449B00234408331B889BB2DAB20B0103445A702B48797818
:403780007A78284C13465B0013449B002344DB889BB2DAB20B0103449A71244879787A78204C13465B0013449B002344DB889BB21B0A9BB2DAB20B010344DA711B48797894
:4037C0007A78184C13465B0013449B002344DB889BB2DAB20B0103441A71144879787A78104C13465B0013449B002344DB889BB21B0A9BB2DAB20B0103445A71BB6808337A
:40380000BB60FB7B0133FB73FA7BFB789A42FFF412AF1437BD4690BDE981FF1FEA81FF1FF481FF1F0882FF1FFC5F00407060004080B485B000AF0346FB71104B1B78DBB203
:403840000F4ADB0013445B68FB60FB681033FB60FB681B78FA799A4202D30023FB6005E0FB79DB00FA6813445B68FB60FB6818461437BD465DF8047B704700BF7782FF1F8B
:403880003450000080B400AF054B1B78DBB2054ADB0013445B681846BD465DF8047B70477782FF1F3450000080B584B000AF104B1B78DBB2013BDBB21846FFF7B9FFB860E6
:4038C000BB68002B0DD0BB685B681B79FB71FB790233DB00BA681344BB60BB685B68FB6001E00023FB60FB6818461037BD4680BDE981FF1F80B582B000AF0023FB71314B0E
:403900001B79DBB203F07F03BB71BB79002B53D0BB79082B50D8BA79B9792B480B465B000B449B0003449B78DBB243F00103D8B2254913465B0013449B000B4402469A70E9
:40394000BA79214913465B0013449B000B440022DA70BA79B9791C480B465B000B449B0003445B78DBB243F00203D8B2164913465B0013449B000B4402465A70BA7912498D
:4039800013465B0013449B000B441B79DBB2DBB25BB2002B06DA0D4ABB791B0113448D229A7005E0094ABB791B01134489229A70FEF736FE0346FB71FB7918460837BD460F
:4039C00080BD00BF006000400882FF1FFC5F004080B582B000AF0023FB71464B1B79DBB203F07F03BB71BB79002B7DD0BB79082B7AD8BA79B97940480B465B000B449B0008
:403A000003449B78DBB223F00103D8B23A4913465B0013449B000B4402469A70BA79364913465B0013449B000B440022DA70334ABB791B0113447F221A70BA79B9792E48F7
:403A40000B465B000B449B0003445B78DBB223F00203D8B2284913465B0013449B000B4402465A70BA79244913465B0013449B000B441B79DBB2DBB25BB2002B18DABA794F
:403A80001D4913465B0013449B000B445B78DBB2012B06D1194ABB791B0113440C229A701EE0164ABB791B0113440D229A7017E0BA79114913465B0013449B000B445B787C
:403AC000DBB2012B06D10D4ABB791B01134408229A7005E0094ABB791B01134409229A70FEF79EFD0346FB71FB7918460837BD4680BD00BF006000400882FF1FFC5F0040B8
:403B000080B584B000AF0023FB73154B1B79BB73144B1B78DBB2013BDBB21846FFF788FEB860BB685B681B79FB71BA7BFB799A4202D9BB7B022B0ED8BB7BBA7B0A498A5C4D
:403B4000D1B20A4AD154BB7B054A9278D1B2064AD1540123FB73FB7B18461037BD4680BD00600040E981FF1FF481FF1FE481FF1F80B582B000AF0023FB710F4B1B78DBB278
:403B8000DBB25BB2002B12DA0B4B5B78DBB2012B00D00CE0094B0A4A5A60094B1B789AB2064B1A80FEF720FC0346FB7100BFFB7918460837BD4680BD00600040F881FF1F29
:403BC0005050000080B500AF054B1B78002B04D100F008F8024B01221A7000F02BF880BD8C81FF1F80B582B000AF104B1B78DBB223F03F03FB710D4AFB7943F00903DBB210
:403C000013700B4A0A4B1B78DBB243F00103DBB21370FF2000F01EF8FF2000F02BF87F2000F038F80837BD4680BD00BF7A6400409A64004080B400AF054A054B1B78DBB29E
:403C400063F07F03DBB21370BD465DF8047B70477A64004080B483B000AF0346FB71044AFB7913700C37BD465DF8047B704700BF0A64004080B483B000AF0346FB71044A4C
:403C8000FB7913700C37BD465DF8047B704700BF4A64004080B483B000AF0346FB71044AFB7913700C37BD465DF8047B704700BF2A64004080B500AF002000F047F8144A90
:403CC000134B1B78DBB243F02003DBB21370104A0F4B1B78DBB223F00403DBB213700C4A0B4B1B78DBB243F00803DBB21370094A084B1B78DBB223F01803DBB21370054A75
:403D0000044B1B78DBB243F01003DBB2137080BD41580040CF5A004080B400AF094A094B1B78DBB243F00203DBB21370064A064B1B78DBB243F00203DBB21370BD465DF8EC
:403D4000047B7047A7430040B743004080B483B000AF0346FB71164B154A1278D2B2D2B222F00302D1B2FA7902F00302D2B20A43D2B2D2B21A70FB79012B0AD10D4B0E4AFA
:403D80001278D2B21A700D4B0D4A1278D2B21A7009E0084B0B4A1278D2B21A70074B0A4A1278D2B21A700C37BD465DF8047B70474158004032460040110100493346004047
:403DC00015010049AF010049B701004980B500AF0D4B14221A700D4B00221A700B4A0B4B1B78DBB243F00403DBB21370074A074B1B78DBB243F00203DBB21370002000F03A
:403E000021F800F08FF880BD205800402158004080B400AF094A094B1B78DBB243F00103DBB21370064A064B1B78DBB243F00103DBB21370BD465DF8047B7047A843004092
:403E4000B843004080B483B000AF0346FB710C4A0B4B1B78DBB223F00203DBB213700849074B1B78DAB2FB7903F00203DBB21343DBB20B700C37BD465DF8047B704700BF9F
:403E80002058004080B582B000AF0346FB710C4A0B4B1B78DBB223F00403DBB213700849074B1B78DAB2FB7903F00403DBB21343DBB20B7000F036F80837BD4680BD00BF12
:403EC0002158004080B582B000AF0346FB710C4A0B4B1B78DBB223F00C03DBB213700849074B1B78DAB2FB7903F00C03DBB21343DBB20B7000F016F80837BD4680BD00BFE1
:403F00002058004080B483B000AF0346FB71044AFB7913700C37BD465DF8047B704700BF805B004080B483B000AF104B1B78DBB203F00C035B08FB710D4B1B78DBB203F041
:403F40000403DBB2002B02D0FB790133FB71094AFB7903F1924303F590731B78DBB213700C37BD465DF8047B704700BF20580040215800400846004080B500AF00F002F811
:403F800080BD00BF80B582B000AF0023FB7106E0FB791846FCF780FBFB790133FB71FB79092BF5D90837BD4680BD00BF80B400AF094A094B1B78DBB243F00103DBB2137081
:403FC000064A064B1B78DBB243F00103DBB21370BD465DF8047B7047A2430040B243004080B400AF054B1B78DBB203F040039B09DBB21846BD465DF8047B70478F45004017
:40400000142816D902B4012114381049097811F0C001890904B40E4A515C04BC00BF00BF00BF8841FDD500BF00BF02BC704700BF00BF70F10400FCD570470B050709EFF34E
:40404000108072B6704780F310887047004800403A400000AFF3008080B483B000AF0346FB7101BE0C37BD465DF8047B704700BF80B582B000AF786008E00C4B1B681846C3
:40408000FFF7BEFF7B68A3F500437B607B68B3F5004FF2D8064B1B687A6802FB03F31846FFF7AEFF0837BD4680BD00BF5081FF1F4881FF1F80B582B000AF0346FB80FB88F5
:4040C000044A127802FB03F31846FFF799FF0837BD4680BD4C81FF1F80B584B000AF03463960FB710F4B1B68FB60FB791F2B02D90020FFF7B1FFFB7903F01F0310339B003B
:40410000FA6813441B68BB60FB7903F01F0310339B00FA6813443A681A60BB6818461037BD4680BD08ED00E080B582B000AF03460A46FB711346BB71BB79072B02D900200E
:40414000FFF78AFFFB791F2B02D90020FFF784FFFB7903F01F0303F1604303F56443BA795201D2B21A700837BD4680BD80B483B000AF7860264B1B78DBB21A467B681A6080
:40418000244B1B78DBB21B027A6812681A437B681A60214B1B78DBB21B047A6812681A437B681A601D4B1B78DBB21B067A6812681A437B681A607B680433194A1278D2B232
:4041C0001A60184B1B78DBB21A027B6804337968043109680A431A60134B1B78DBB21A047B6804337968043109680A431A600F4B1B78DBB21A067B680433796804310968FF
:404200000A431A600C37BD465DF8047B704700BF0301004904010049EC460040020100490101004900010049050100490601004980B582B000AF1D4B1B78DBB203F0030303
:40424000012B02D0022B04D012E0184B1B79BB7111E0164B1B79DBB203F07F02144913465B0013449B000B4408339B78BB7102E00023BB7100BF0F4B1A68BB7913441B788D
:40428000022B06D0032B09D1FEF7D2FA0346FB7107E0FDF7B7FD0346FB7102E00023FB7100BFFB7918460837BD4680BD006000400882FF1FF081FF1F80F0004002E000BF90
:4042C00081F0004142001FBF5FEA410392EA030F7FEA226C7FEA236C6AD04FEA1262D2EB1363C1BFD218414048404140B8BF5B42192B88BF704710F0004F40F4000020F0EB
:404300007F4018BF404211F0004F41F4000121F07F4118BF494292EA030F3FD0A2F1010241FA03FC10EB0C00C3F1200301FA03F100F0004302D5494260EB4000B0F5000F9E
:4043400013D3B0F1807F06D340084FEA310102F10102FE2A51D2B1F1004F40EBC25008BF20F0010040EA03007047490040EB000010F4000FA2F10102EDD1B0FA80FCACF162
:40438000080CB2EB0C0200FA0CF0AABF00EBC25052421843BCBFD0401843704792F0000F81F4000106BF80F400000132013BB5E74FEA41037FEA226C18BF7FEA236C21D0D7
:4043C00092EA030F04D092F0000F08BF0846704790EA010F1CBF0020704712F07F4F04D1400028BF40F00040704712F100723CBF00F50000704700F0004343F0FE4040F4DB
:40440000000070477FEA226216BF08467FEA23630146420206BF5FEA412390EA010F40F4800070474FF0000304E000BF10F0004348BF40425FEA000C08BF704743F0964344
:4044400001464FF000001CE050EA010208BF70474FF000030AE000BF50EA010208BF704711F0004302D5404261EB41015FEA010C02BF84460146002043F0B64308BFA3F15F
:404480008053A3F50003BCFA8CF2083AA3EBC25310DB01FA02FC634400FA02FCC2F12002BCF1004F20FA02F243EB020008BF20F00100704702F1200201FA02FCC2F1200271
:4044C00050EA4C0021FA02F243EB020008BF20EADC7070474FF0FF0C1CEAD0521EBF1CEAD15392EA0C0F93EA0C0F6FD01A4480EA010C400218BF5FEA41211ED04FF0006313
:4045000043EA501043EA5111A0FB01310CF00040B1F5000F3EBF490041EAD3715B0040EA010062F17F02FD2A1DD8B3F1004F40EBC25008BF20F00100704790F0000F0CF02C
:40454000004C08BF49024CEA502040EA51207F3AC2BFD2F1FF0340EAC250704740F400004FF00003013A5DDC12F1190FDCBF00F000407047C2F10002410021FA02F1C2F15C
:40458000200200FA02FC5FEA310040F1000053EA4C0308BF20EADC70704792F0000F00F0004C02BF400010F4000F013AF9D040EA0C0093F0000F01F0004C02BF490011F4DD
:4045C000000F013BF9D041EA0C018FE70CEAD15392EA0C0F18BF93EA0C0F0AD030F0004C18BF31F0004CD8D180EA010000F00040704790F0000F17BF90F0004F084691F051
:40460000000F91F0004F14D092EA0C0F01D142020FD193EA0C0F03D14B0218BF084608D180EA010000F0004040F0FE4040F40000704740F0FE4040F4400070474FF0FF0C9C
:404640001CEAD0521EBF1CEAD15392EA0C0F93EA0C0F69D0A2EB030280EA010C49024FEA402037D04FF0805343EA111143EA10130CF000408B4238BF5B0042F17D024FF4AE
:40468000000C8B4224BF5B1A40EA0C00B3EB510F24BFA3EB510340EA5C00B3EB910F24BFA3EB910340EA9C00B3EBD10F24BFA3EBD10340EADC001B0118BF5FEA1C1CE0D153
:4046C000FD2A3FF650AF8B4240EBC25008BF20F0010070470CF0004C4CEA50207F32C2BFD2F1FF0340EAC250704740F400004FF00003013A37E792F0000F00F0004C02BF91
:40470000400010F4000F013AF9D040EA0C0093F0000F01F0004C02BF490011F4000F013BF9D041EA0C0195E70CEAD15392EA0C0F08D142027FF47DAF93EA0C0F7FF470AFAF
:40474000084676E793EA0C0F04D14B023FF44CAF08466EE730F0004C18BF31F0004CCAD130F000427FF45CAF31F000437FF43CAF5FE700BF42000ED2B2F1FE4F0BD34FF0E2
:404780009E03B3EB126209D44FEA002343F0004323FA02F070474FF00000704712F1610F01D1420202D14FF0FF3070474FF00000704700BF0E4B70B51E460E4C0025E41A46
:4047C000A410A54204D056F8253098470135F8E700F052FC084B094C1E46E41AA4100025A54204D056F8253098470135F8E770BD8450000084500000845000008C500000BB
:4048000010B5431E0A44914204D011F8014B03F8014FF8E710BD03460244934202D003F8011BFAE7704700000000000057616974696E6720666F722000000000636F6E6E24
:40484000656374696F6E0000202020202020202020202020202020200000000042746E302042746E3120536C69646572000000004F6E20004F6666002D2D2D2D00000000BE
:4048800020202020000000007878780D0A0000005C5100405C5100405C5100405C5100405C5100405C5100405C5100406C510040CB5A0040835A0040204001020408101070
:4048C00001100000005100401000305100402000C0510040100000000140001000140140000800400140000A004C0140000200500140200001450040045200400664004085
:40490000026500400101014001030140030401400305014052080140260901404C0A0140310B0140020D0140010F014001150140011701403518014034190140531A01407D
:40494000351B0140074001400641014001420140014301400A44014007450140094601400A4701400248014004490140024C0140044D014004500140015101407E02280F36
:40498000290F2E7F7C4008FF09FF18FF19FF28FF29FF0AFF881FE204E6093E0158045F011B018701E4080001020A0402060107080B020E0114031A041B0B1C031D0B1F04AF
:4049C00020032C082E023108320433063403350136083E503F1540124103450246604809580459045A045F01610C62F0630C650C670C6840694C6A406B4C6C906D586F0CA4
:404A000080078208830187018D0292019E079F02AA04B001B202B40CB502B701BE15BF50C042C103C726C830D804D904DA04DC01DF01E10CE2F0E30CE50CE70CE840E94CDF
:404A4000EA40EB4CEC90ED58EF0C02800480050509820A200E2A10081580170118041B0A1DC41E08214022202768314036A0380A3A403F284004430A47684F08500D51022C
:404A800057108E40926099089D04C0B8C2EDC492CC38CE6BD07706080E020F01120813041A011F0222012A043008310132013302340435043602370439083E153F054010C2
:404AC000410545204701481249FF4AFF4BFF4DA04F0450185280580459045A045B045C115D115F01604062C06440654066C068C06AC06CC06EC0820487028E02910894209A
:404B0000961097049B019D019E099F02A001A202A810AA20B003B208B304B430B503B604B708BE15BF50D804D904DC11DF0103220501070109200B400D8810C012081440D0
:404B400017201A201B621D891E061F0820012124220127292F0830803140320134403601372839083B403E04400148804940520873408340850892409D04B640C095C2AAD1
:404B8000C45ACA20CCF9CE4AD008D208E004E4088104E608E204E208EE02001301010204041707040A080C060E110F081101141715011A201B021C041F0120152202270452
:404BC00029012C012D012E10302031043207330134103508360837023E143F0556025712580459045B045E085F0180018C02B002B601B902BE41BF01D608D804D904DB0C63
:404C0000DC10DF0101800240041005450D400E381540174119801A801C101D411E0B1F0221022484268027A12C202E102F023102350437A13C043D803E015A405D0862402B
:404C4000774079407E209180924094809680990C9D019E409F01A691C0F9C2E0C490CA70CCF1CED0D648D808DE48EE02050213012102220131023601370139023F014023E8
:404C8000455046204704481A49FF4AFF4BFF4C024D204F055110580459045A045F01604061406280648066808204830484388502870188288A108B028E088F019418962066
:404CC000971099039A029C019E029F08A201A820A901AB02AD08B030B110B204B308B403B504B608B703BE51BF44C005C103C50AC9FFCAFFCBFFCC02CEF0D217D804D9048D
:404D0000DA04DB04DF01E248E3A1E8F0EAF0ECF0EEF00404050107090C800E200F0812801440151019801D211E211F08210222802540262A270C29022D802F083102344022
:404D400036A838083C043E5141104304470849024E024F08500451106C206D106E506F01748085209004A420A540A630C0F0C2E0C458CA31CC71CEF2D046D2103002318094
:404D8000350236408002CCF0E220818085029D02A580A640E690A640A6403440370238104440470252088240CC05CE08D40411088420941096409C40A608C408820884405A
:404DC0008701941096409C60A608B504EE0208200B400E408C10941096409C20A301C20EE008AE40EE4079018501DE40E210A301AF4057016302A301D60600030C0310034E
:404E00001C0300AB4000000000000000C00000000004000000000000007F7F000000000000007F000000000000010100010010002D5000402E500040285000402950004028
:404E40002A5000402B5000402C50004005050505050505002040010204081000065200400E520040165200401E520040265200402E520040365200407E520040010200007C
:404E80000000000002000100050101000019000030313233343536373839414243444546000000001201000202000008B40432F2010001048001000009024300020101C099
:404EC00032090400000102020002052400100104240202052406000105240100010705810308000A09040100020A00000307058202400000070503024000000004030904B7
:404F00002C0343007900700072006500730073002000530065006D00690063006F006E0064007500630074006F0072003803430044004300200043006F006D006D007500B4
:404F40006E00690063006100740069006F006E00200049006E007400650072006600610063006500260343004400430020004400610074006100200049006E0074006500EE
:404F80007200660061006300650010035500530042005500410052005400000002030000320005010902A1010901A1000509190129031500250195037501810295017505F2
:404FC00081010501093009311581257F750895028106C0C00000000000008103080002000100820240000A000100030240000A00020A000001000000B84E0000030000009E
:40500000D84F00000000000000000000000000000000000000000000F04F000001000000A44E0000000000000000000001000000F44F0000010000001C50000012034D0004
:405040005300460054003100300030000100000028000000000104000100000000000000000143595553420000003030303031000000000000000000F8B500BFF8BC08BC27
:405080009E4670474D00000075030000F8B500BFF8BC08BC9E46704729000000B05000000881FF1F500000005801000000000000000000007F0000003737282828282802E1
:4050C000195050000A3C3C00000505000103030000C2010000000800C201000000080000A120000000000200000000000090D00300FA0000400000000000007D00000000F1
:40510000000000000000000000000000000000000000000000000000000000000000000000000000000000000000000000000000000000000000000000000000000000006F
:40514000000000000000000000000000000000000000000000000000000000000000000000000000000000000000000000000000000000000000000000000000000000002F
:4051800000000000000000000000000000000000000000000000000000000000000000000000000000000000000000000000000000000000000000000000000000000000EF
:4051C00000000000000000000000000000000000000000000000000000000000000000000000000000000000000000000000000000000000000000000000000000000000AF
:0200000480007A
:0200000490006A
:040000000800C0052F
:0200000490105A
:04000000BC90ACAF55
:0200000490303A
:02000000DC34EE
:0200000490402A
:4000000000000000000000000000000000000000000000000000000000000000000000000000000000000000000000000000000000000000000000000000000000000000C0
:400040000000000000000000000000000000000000000000000000000000000000000000000000000000000000000000000000000000000000000000000000000000000080
:400080000000000000000000000000000000000000000000000000000000000000000000000000000000000000000000000000000000000000000000000000000000000040
:4000C0000000000000000000000000000000000000000000000000000000000000000000000000000000000000000000000000000000000000000000000000000000000000
:0200000490501A
:0C00000000012E12306900012E310C9D11
:00000001FF