:400000000080002011000000B5030000B503000080B500AF024A034B1B68136000F0CEF9BC760040FA46004010B5054C237833B9044B13B10448AFF300800123237010BDE0
:400040002081FF1F00000000F80F0000084B10B51BB108480849AFF300800848036803B910BD074B002BFBD0BDE81040184700BF00000000F80F00002481FF1F0881FF1F03
:400080000000000080B582B000AF62B600F080FC00F07CFD00F05EFE012000F08DF8022000F08AF84FF4FA7000F006FC01204FF40071102200F0DAF84FF4FA7000F0FCFBCB
:4000C00002201049102200F0D1F84FF4FA7000F0F3FB0023FB7110E0FB799BB29B019BB20020194640F2FF3200F00EF84FF4FA7000F0E2FBFB790133FB71FB790E2BEBD90F
:40010000E7E700BF00FEFFFF80B584B000AF0346FB710B46BB8013467B80BB88DAB2BB881B0A9BB2DBB21344DAB27B88DBB21344DAB27B881B0A9BB2DBB21344DBB22633E3
:40014000FB73FB7BDB43FB73FB79002B30D1FF2000F06EFCFF2000F06BFCFE2000F068FC072000F065FC032000F062FC1E2000F05FFCBB88DBB2184600F05AFCBB881B0AC0
:400180009BB2DBB2184600F053FC7B88DBB2184600F04EFC7B881B0A9BB2DBB2184600F047FCFB7B184600F043FC022000F084FB1037BD4680BD00BF80B584B000AF0346D2
:4001C000FB710E23FB73FB7BDB43FB73FB79012B21D1FF2000F02AFDFF2000F027FDFE2000F024FD072000F021FD032000F01EFD062000F01BFD002000F018FD002000F002
:4002000015FD002000F012FD002000F00FFDFB7B184600F00BFDFB79022B21D1FF2000F0E9FDFF2000F0E6FDFE2000F0E3FD072000F0E0FD032000F0DDFD062000F0DAFD6F
:40024000002000F0D7FD002000F0D4FD002000F0D1FD002000F0CEFDFB7B184600F0CAFD022000F029FB1037BD4680BD80B584B000AF0346FB710B46BB801346BB71B7F92A
:400280000430B3F5806F02DB40F2FF33BB80B7F9043013F5806F02DC4FF60143BB80B7F90430002B07DABB885B429BB2BB80BB8843F48063BB80FB79012B3AD1BB88DAB210
:4002C000B7F904301B129BB2DBB21344DAB2BB791344DBB22733FB73FB7BDB43FB73FF2000F0A4FCFF2000F0A1FCFE2000F09EFC062000F09BFC032000F098FC202000F0C7
:4003000095FCBB88DBB2184600F090FCB7F904301B129BB2DBB2184600F088FCBB79184600F084FCFB7B184600F080FC022000F0C3FAFB79022B3AD1BB88DAB2B7F9043055
:400340001B129BB2DBB21344DAB2BB791344DBB22733FB73FB7BDB43FB73FF2000F04AFDFF2000F047FDFE2000F044FD062000F041FD032000F03EFD202000F03BFDBB886C
:40038000DBB2184600F036FDB7F904301B129BB2DBB2184600F02EFDBB79184600F02AFDFB7B184600F026FD022000F085FA1037BD4680BD80B400AFFEE700BF80B586B031
:4003C00000AF224B7B61224B3B61204B7B6135E03B691B68FB603B695B68BB603B699B683B6000237B600CE0FB681A68BB681A60BB680433BB60FB680433FB607B6804336A
:400400007B607A683B689A42EED13B69DB683B6000237B6008E0BB6800221A60BB680433BB607B6804337B607A683B689A42F2D13B6910333B617B69013B7B617B69002B7E
:40044000C6D100F09FFDFFF71DFEFEE701000000B414000080B582B000AF174B174A1A60174A174B1B6843F40073136000237B600FE07B68032B04D8124A7B6852F823302E
:4004800000E0114B11497A6841F822307B6801337B607B682F2BECD90D4B1B78DAB20D4B1A700D4B094A1A6000F044F90B4B00221A600837BD4680BD0CED00E00004FA054D
:4004C00014ED00E000000000B50300000080FF1FBC7600400481FF1F08ED00E00081FF1F80B582B000AF78603960786800213A6800F079FD0837BD4680BD00BF80B584B005
:4005000000AFF860B9607A60F868B9687A6800F05FFD1037BD4680BD80B584B000AFF860B9607A60F868B9687A6800F051FD1037BD4680BD80B483B000AF0346FB71FEE750
:4005400080B487B000AF7860396000233B6100237B6127E07B699B007A6813441B68BB60BB68FB73BB6823F0FF03BB6014E03B695B003A6813441B781A46BB681344194639
:400580003B695B003A6813445B780B703B6901333B61FB7B013BFB73FB7B002BE7D17B6901337B617B690D2BD4D91C37BD465DF8047B704780B582B000AF384B19221A80FC
:4005C000374B19221A70374B19221A80364B19221A70364B19221A80354B19221A70354835490422FFF798FF344B06221A70344B52221A70334B344A1278D2B21A70334B0E
:4006000040F618021A80324B41F251221A800023FB7019237B6014E0FB785B00DAB22D4B1B78DBB203F00103DBB21343DBB203F00303FB704FF4F07000F006F97B68013B0C
:400640007B607B68002B02D0FB78032BE4D17B68002B02D10320FFF76DFF1F4B4FF480721A801D4B07221A701C4B00221A701C4B48221A70184B00221A701A4B00221A7021
:40068000194B02221A70194A184B1B78DBB243F00703DBB213700837BD4680BD80400040824000408440004086400040884000408A40004000410040FC0F00000043004049
:4006C00000420040A14600400F0100492242004020420040254200400440004006400040084000400940004001400040A243004080B483B000AF0B4B1B78FB710A4AFB7917
:4007000003F00703DBB21370084AFB791B09DBB21370074B44221A700C37BD465DF8047B704700BFCF0100496E5800406F5800407658004080B582B000AF72B6334B0022CE
:400740001A70FFF737FF324A314B1B78DBB243F00403DBB213700023FB7113E0FA7913465B0013445B002B4A13443B603B681A683B689B889BB210461946FFF7B1FEFB7999
:400780000133FB71FB79092BE8D923482349FFF7D7FE234A224B1B78DBB243F00203DBB21370204A1F4B1B78DBB243F00203DBB213701D4A1C4B1B78DBB243F04003DBB21F
:4007C00013701A4A194B1B78DBB243F01003DBB21370174817490822FFF79EFE164817490A22FFF799FE164A154B1B78DBB243F00803DBB21370FFF77BFF12480A490E22CB
:40080000FFF77CFE0837BD4680BD00BF00480040E8460040001000003C100000741000000350014013500140A0430040C2430040125100407C1400004051004084140000F8
:4008400022430040B0430040142816D902B4012114381049097811F0C001890904B40E4A515C04BC00BF00BF00BF8841FDD500BF00BF02BC704700BF00BF70F10400FCD527
:4008800070470B050709EFF3108072B6704780F3108870470048004082080000AFF3008080B483B000AF0346FB7101BE0C37BD465DF8047B704700BF80B582B000AF786012
:4008C00008E00C4B1B681846FFF7BEFF7B68A3F500437B607B68B3F5004FF2D8064B1B687A6802FB03F31846FFF7AEFF0837BD4680BD00BF1881FF1F1081FF1F80B584B031
:4009000000AF03463960FB710F4B1B68FB60FB791F2B02D90020FFF7C3FFFB7903F01F0310339B00FA6813441B68BB60FB7903F01F0310339B00FA6813443A681A60BB68F4
:4009400018461037BD4680BD08ED00E080B582B000AF03460A46FB711346BB71BB79072B02D90020FFF79CFFFB791F2B02D90020FFF796FFFB7903F01F0303F1604303F5CF
:400980006443BA795201D2B21A700837BD4680BD80B500AF054B1B78002B04D100F008F8024B01221A7000F01FF880BD3C81FF1F80B500AF00200849FFF7A0FF002007217B
:4009C000FFF7C4FF054B06221A70054B47221A70044B02221A7080BDE90A000022640040326400408364004080B582B000AFFFF74AFF0346FB710B4A0A4B1B78DBB243F002
:400A00001003DBB21370084B01221A60074B01221A6000F0A1F8FB791846FFF738FF0837BD4680BD9364004080E200E000E100E080B485B000AF0346FB71254B1B78FB7335
:400A4000244B1B78BB73FA7BBB7B9A4208D2FA7BBB7B013B9A420CBF01230023DBB207E0FA7BBB7BD31A1A2B0CBF01230023DBB2002BE2D1BA7BFB7B9A420AD1164B1B78EC
:400A8000DBB203F00403002B03D1144AFB79137018E0FB7B1A2B01D90023FB73FB7B1049FA79CA54FB7B0133FB73094AFB7B1370094B1B78DBB203F00203002B02D0094BBC
:400AC00001221A601437BD465DF8047B704700BF3E81FF1F3D81FF1F63640040446400404881FF1F00E200E080B400AF17E0154B1B78DBB21A2B02D9124B00221A70124B90
:400B0000104A1278D2B21146104A525CD2B21A700C4B1B78DBB20133DAB20A4B1A70094B1B78DAB20A4B1B789A4206D0094B1B78DBB203F00403002BD9D0BD465DF8047BA4
:400B4000704700BF3D81FF1F446400404881FF1F3E81FF1F6364004080B400AF094A094B1B78DBB243F00403DBB21370064A064B1B78DBB243F00403DBB21370BD465DF819
:400B8000047B7047A2430040B243004080B500AF054B1B78002B04D100F008F8024B01221A7000F01FF880BD4081FF1F80B500AF01200849FFF7A2FE01200721FFF7C6FEE2
:400BC000054B06221A70054B47221A70044B02221A7080BDE50C000025640040356400408564004080B582B000AFFFF74CFE0346FB710B4A0A4B1B78DBB243F01003DBB212
:400C00001370084B02221A60074B02221A6000F085F9FB791846FFF73AFE0837BD4680BD9564004080E200E000E100E080B485B000AF0346FB71254B1B78FB73244B1B78E7
:400C4000BB73FA7BBB7B9A4208D2FA7BBB7B013B9A420CBF01230023DBB207E0FA7BBB7BD31A1A2B0CBF01230023DBB2002BE2D1BA7BFB7B9A420AD1164B1B78DBB203F06C
:400C80000403002B03D1144AFB79137018E0FB7B1A2B01D90023FB73FB7B1049FA79CA54FB7B0133FB73094AFB7B1370094B1B78DBB203F00203002B02D0094B02221A609C
:400CC0001437BD465DF8047B704700BF4281FF1F4181FF1F65640040416400406481FF1F00E200E080B400AF17E0154B1B78DBB21A2B02D9124B00221A70124B104A127824
:400D0000D2B21146104A525CD2B21A700C4B1B78DBB20133DAB20A4B1A70094B1B78DAB20A4B1B789A4206D0094B1B78DBB203F00403002BD9D0BD465DF8047B704700BF10
:400D40004181FF1F416400406481FF1F4281FF1F6564004080B500AF054B1B78002B04D100F008F8024B01221A7000F01FF880BD4481FF1F80B500AF02200849FFF7BEFDE1
:400D800002200721FFF7E2FD054B06221A70054B47221A70044B02221A7080BDAD0E000023640040336400408064004080B582B000AFFFF768FD0346FB710B4A0A4B1B78B5
:400DC000DBB243F01003DBB21370084B04221A60074B04221A6000F0BBF8FB791846FFF756FD0837BD4680BD9064004080E200E000E100E080B485B000AF0346FB71254B7A
:400E00001B78FB73244B1B78BB73FA7BBB7B9A4208D2FA7BBB7B013B9A420CBF01230023DBB207E0FA7BBB7BD31A1A2B0CBF01230023DBB2002BE2D1BA7BFB7B9A420AD11B
:400E4000164B1B78DBB203F00403002B03D1144AFB79137018E0FB7B1A2B01D90023FB73FB7B1049FA79CA54FB7B0133FB73094AFB7B1370094B1B78DBB203F00203002B2A
:400E800002D0094B04221A601437BD465DF8047B704700BF4681FF1F4581FF1F60640040406400408081FF1F00E200E080B400AF17E0154B1B78DBB21A2B02D9124B002249
:400EC0001A70124B104A1278D2B21146104A525CD2B21A700C4B1B78DBB20133DAB20A4B1A70094B1B78DAB20A4B1B789A4206D0094B1B78DBB203F00403002BD9D0BD46CE
:400F00005DF8047B704700BF4581FF1F406400408081FF1F4681FF1F6064004080B400AF094A094B1B78DBB243F00103DBB21370064A064B1B78DBB243F00103DBB213709E
:400F4000BD465DF8047B7047A2430040B243004080B400AF094A094B1B78DBB243F00203DBB21370064A064B1B78DBB243F00203DBB21370BD465DF8047B7047A2430040DB
:400F8000B24300400E4B70B51E460E4C0025E41AA410A54204D056F8253098470135F8E700F076FA084B094C1E46E41AA4100025A54204D056F8253098470135F8E770BDD5
:400FC0009C1400009C1400009C140000A414000010B5431E0A44914204D011F8014B03F8014FF8E710BD03460244934202D003F8011BFAE7704700000000000005001001C7
:40100000005100401000205100402000505100402000C05100401000F0510040100000000140001000140140000800400140000A004C01400002005001402000025200403E
:40104000036400405D00014032010140630201404C0301406004014045050140020701400A400140084101400442014003500140015101402006210C800F830F850F0040FC
:401080000510060808200A030B050C400D030F0C1011110A1206130414111503160E17041A0C1C0C1E132503264027042A402B082E403040310F34303510360F38203A8077
:4010C0003B023E013F1040434101450E460B470C481549FF4AFF4BFF4EF04F44500C54015604580459045A045B045C225D115F0166C06A406B028441863088318A448C24A4
:401100008E40960C9C02A050A440AC70AE09B27CB603B880C024C106C5E0C6EBC70CC81EC9FFCAFFCBFFCEF0CF44D00CD804DA04DF01E6C0EA40EB020020010403820428EC
:40114000054009080A060B400E200F0210281201132016A219201A461D401E202040234829283108320138403A103B044104438245114B044E084F01504856885710580101
:401180005A405B2862028602C0EFC2AFC4B7CA06CC03CE0ED0ABD220D60FD80103350503071409130B2C10021401151317641F48214A23342B4032013368350F3602371048
:4011C0003B283E443F404001454449FF4A074BFF4C404D204EF04F055008580459045A045D025F01604061A8624063208061828E87088BA18C618DE08E968F059146921C14
:40120000938195E09608970399109F02A118A45CA683A780A860AA80AB06AD18AEA3B0F0B180B20FB307B518B61AB760B9A0BA8ABB08BF51C006C640C9FFCA07CBFFCC40F6
:40124000CD20CEF0CF05D008D401D604D804D904DA04DB04DC21DD21DF01E040E1A8E240E32003820A800B200E60102812011A201B821E011F042008218823802428251444
:401280002648281029282B822E222F4030A03108321135403608384039083A103D223E08458048044C804D04511452015310541055205610581159045B8060808080830890
:4012C000860190C0920693019428950C99609A089D089E33A008A210A310A430A519A608A783B001B304C009C23CC407CAAFCC5FCEEED010D204D60FD80104010580091095
:401300000C200D140E18120614181520162217031812191C1A201B421C381D091E041F10214C2311242028282D502F0C303E3201331F352037C039803E043F104042410372
:40134000450C46E0470B481949FF4AFF4BFF4EF04F44500C580459045A045C125D025F0166C06A406B028301840185038606880189038A0E8E0C94109C0C9E03A102A20321
:40138000A608B103B410B60FB902BA80BE10BF01C001C640C9FFCA07CBFFCC40CD20CEF0CF05D008D401D604D804D904DA04DB04DF01E040E1A8E240E320004002100428E1
:4013C000054009080A460E020F201008110415011628172019041A401E0A1F402244230827402B822F403254388039283D283F0240404128474049084D014F0250085210DF
:40140000550156205E885F216740874090E8912C9226930196C0978099409A089C019D0C9E209F08A13CA240A392A501A701B304C0E5C2AFC436CA89CC0ECEEED017D6F059
:40144000D880EA80B001B21033413640552057015B108701CC70D4C0D620E240835085209F50A520A640A701E230E6808640A640B301E640000708070A07003F0004000083
:40148000000000000E00000E0E000E0000000000F8B500BFF8BC08BC9E4670474D00000055040000F8B500BFF8BC08BC9E46704729000000C81400000881FF1F180000008C
:4014C0008000000000000000000000000090D00300FA0000400000000000007D00000000000000000000000000000000000000000000000000000000000000000000000052
:4015000000000000000000000000000000000000000000000000000000000000000000000000000000000000000000000000000000000000000000000000000000000000AB
:40154000000000000000000000000000000000000000000000000000000000000000000000000000000000000000000000000000000000000000000000000000000000006B
:40158000000000000000000000000000000000000000000000000000000000000000000000000000000000000000000000000000000000000000000000000000000000002B
:4015C00000000000000000000000000000000000000000000000000000000000000000000000000000000000000000000000000000000000000000000000000000000000EB
:0200000480007A
:0200000490006A
:040000000800C0052F
:0200000490105A
:04000000BC90ACAF55
:0200000490303A
:02000000D35BD0
:0200000490402A
:4000000000000000000000000000000000000000000000000000000000000000000000000000000000000000000000000000000000000000000000000000000000000000C0
:400040000000000000000000000000000000000000000000000000000000000000000000000000000000000000000000000000000000000000000000000000000000000080
:400080000000000000000000000000000000000000000000000000000000000000000000000000000000000000000000000000000000000000000000000000000000000040
:4000C0000000000000000000000000000000000000000000000000000000000000000000000000000000000000000000000000000000000000000000000000000000000000
:0200000490501A
:0C00000000012E12306900012E1A03C40A
:00000001FF